{
	"data": {
		"bytecode": {
			"linkReferences": {},
			"object": "608060405234801561001057600080fd5b50614446806100206000396000f3fe608060405234801561001057600080fd5b50600436106101cf5760003560e01c80637b4fca3d11610104578063b88d4fde116100a2578063c87b56dd11610071578063c87b56dd146104d6578063e985e9c514610506578063f2fde38b14610536578063f8a8fd6d14610552576101cf565b8063b88d4fde14610466578063bde5a6aa14610482578063c196f2de1461049e578063c327325d146104ba576101cf565b80638f47012e116100de5780638f47012e146103f457806395d89b41146104105780639c52a7f11461042e578063a22cb4651461044a576101cf565b80637b4fca3d146103b05780638129fc1c146103cc5780638da5cb5b146103d6576101cf565b806342966c681161017157806365fae35e1161014b57806365fae35e1461033e578063704b6c021461035a57806370a0823114610376578063715018a6146103a6576101cf565b806342966c68146102d657806355f804b3146102f25780636352211e1461030e576101cf565b8063095ea7b3116101ad578063095ea7b314610252578063150b7a021461026e57806323b872dd1461029e57806342842e0e146102ba576101cf565b806301ffc9a7146101d457806306fdde0314610204578063081812fc14610222575b600080fd5b6101ee60048036038101906101e99190612c0b565b610570565b6040516101fb9190612c53565b60405180910390f35b61020c610652565b6040516102199190612d07565b60405180910390f35b61023c60048036038101906102379190612d5f565b6106e4565b6040516102499190612dcd565b60405180910390f35b61026c60048036038101906102679190612e14565b610769565b005b61028860048036038101906102839190612eb9565b610881565b6040516102959190612f50565b60405180910390f35b6102b860048036038101906102b39190612f6b565b610896565b005b6102d460048036038101906102cf9190612f6b565b6109b2565b005b6102f060048036038101906102eb9190612d5f565b6109d2565b005b61030c600480360381019061030791906130ee565b610a2e565b005b61032860048036038101906103239190612d5f565b610ac4565b6040516103359190612dcd565b60405180910390f35b61035860048036038101906103539190613137565b610b76565b005b610374600480360381019061036f9190613137565b610c40565b005b610390600480360381019061038b9190613137565b610d04565b60405161039d9190613173565b60405180910390f35b6103ae610dbc565b005b6103ca60048036038101906103c591906131ba565b610e44565b005b6103d4610ed4565b005b6103de611081565b6040516103eb9190612dcd565b60405180910390f35b61040e60048036038101906104099190613137565b6110ab565b005b610418611175565b6040516104259190612d07565b60405180910390f35b61044860048036038101906104439190613137565b611207565b005b610464600480360381019061045f91906131fa565b6112d1565b005b610480600480360381019061047b91906132db565b6112e7565b005b61049c60048036038101906104979190613137565b6113cf565b005b6104b860048036038101906104b391906130ee565b611499565b005b6104d460048036038101906104cf919061335e565b61152f565b005b6104f060048036038101906104eb9190612d5f565b61154a565b6040516104fd9190612d07565b60405180910390f35b610520600480360381019061051b91906133e1565b61169c565b60405161052d9190612c53565b60405180910390f35b610550600480360381019061054b9190613137565b611730565b005b61055a611828565b6040516105679190612d07565b60405180910390f35b60007f80ac58cd000000000000000000000000000000000000000000000000000000007bffffffffffffffffffffffffffffffffffffffffffffffffffffffff1916827bffffffffffffffffffffffffffffffffffffffffffffffffffffffff1916148061063b57507f5b5e139f000000000000000000000000000000000000000000000000000000007bffffffffffffffffffffffffffffffffffffffffffffffffffffffff1916827bffffffffffffffffffffffffffffffffffffffffffffffffffffffff1916145b8061064b575061064a826118b6565b5b9050919050565b60606097805461066190613450565b80601f016020809104026020016040519081016040528092919081815260200182805461068d90613450565b80156106da5780601f106106af576101008083540402835291602001916106da565b820191906000526020600020905b8154815290600101906020018083116106bd57829003601f168201915b5050505050905090565b60006106ef82611920565b61072e576040517f08c379a0000000000000000000000000000000000000000000000000000000008152600401610725906134f4565b60405180910390fd5b609b600083815260200190815260200160002060009054906101000a900473ffffffffffffffffffffffffffffffffffffffff169050919050565b600061077482610ac4565b90508073ffffffffffffffffffffffffffffffffffffffff168373ffffffffffffffffffffffffffffffffffffffff1614156107e5576040517f08c379a00000000000000000000000000000000000000000000000000000000081526004016107dc90613586565b60405180910390fd5b8073ffffffffffffffffffffffffffffffffffffffff1661080461198c565b73ffffffffffffffffffffffffffffffffffffffff16148061083357506108328161082d61198c565b61169c565b5b610872576040517f08c379a000000000000000000000000000000000000000000000000000000000815260040161086990613618565b60405180910390fd5b61087c8383611994565b505050565b600063150b7a0260e01b905095945050505050565b6001151560fd600083815260200190815260200160002060009054906101000a900460ff161515141561095157600160fe60006108d161198c565b73ffffffffffffffffffffffffffffffffffffffff1673ffffffffffffffffffffffffffffffffffffffff168152602001908152602001600020541461094c576040517f08c379a0000000000000000000000000000000000000000000000000000000008152600401610943906136aa565b60405180910390fd5b6109a2565b61096261095c61198c565b82611a4d565b6109a1576040517f08c379a00000000000000000000000000000000000000000000000000000000081526004016109989061373c565b60405180910390fd5b5b6109ad838383611b2b565b505050565b6109cd838383604051806020016040528060008152506112e7565b505050565b6109e36109dd61198c565b82611a4d565b610a22576040517f08c379a0000000000000000000000000000000000000000000000000000000008152600401610a19906137ce565b60405180910390fd5b610a2b81611d92565b50565b610a3661198c565b73ffffffffffffffffffffffffffffffffffffffff16610a54611081565b73ffffffffffffffffffffffffffffffffffffffff1614610aaa576040517f08c379a0000000000000000000000000000000000000000000000000000000008152600401610aa19061383a565b60405180910390fd5b8060fb9080519060200190610ac0929190612abc565b5050565b6000806099600084815260200190815260200160002060009054906101000a900473ffffffffffffffffffffffffffffffffffffffff169050600073ffffffffffffffffffffffffffffffffffffffff168173ffffffffffffffffffffffffffffffffffffffff161415610b6d576040517f08c379a0000000000000000000000000000000000000000000000000000000008152600401610b64906138cc565b60405180910390fd5b80915050919050565b600160fc60003373ffffffffffffffffffffffffffffffffffffffff1673ffffffffffffffffffffffffffffffffffffffff1681526020019081526020016000205414610bf8576040517f08c379a0000000000000000000000000000000000000000000000000000000008152600401610bef90613938565b60405180910390fd5b600160fc60008373ffffffffffffffffffffffffffffffffffffffff1673ffffffffffffffffffffffffffffffffffffffff1681526020019081526020016000208190555050565b610c4861198c565b73ffffffffffffffffffffffffffffffffffffffff16610c66611081565b73ffffffffffffffffffffffffffffffffffffffff1614610cbc576040517f08c379a0000000000000000000000000000000000000000000000000000000008152600401610cb39061383a565b60405180910390fd5b600160fc60008373ffffffffffffffffffffffffffffffffffffffff1673ffffffffffffffffffffffffffffffffffffffff1681526020019081526020016000208190555050565b60008073ffffffffffffffffffffffffffffffffffffffff168273ffffffffffffffffffffffffffffffffffffffff161415610d75576040517f08c379a0000000000000000000000000000000000000000000000000000000008152600401610d6c906139ca565b60405180910390fd5b609a60008373ffffffffffffffffffffffffffffffffffffffff1673ffffffffffffffffffffffffffffffffffffffff168152602001908152602001600020549050919050565b610dc461198c565b73ffffffffffffffffffffffffffffffffffffffff16610de2611081565b73ffffffffffffffffffffffffffffffffffffffff1614610e38576040517f08c379a0000000000000000000000000000000000000000000000000000000008152600401610e2f9061383a565b60405180910390fd5b610e426000611de5565b565b600160fc60003373ffffffffffffffffffffffffffffffffffffffff1673ffffffffffffffffffffffffffffffffffffffff1681526020019081526020016000205414610ec6576040517f08c379a0000000000000000000000000000000000000000000000000000000008152600401610ebd90613938565b60405180910390fd5b610ed08282611eab565b5050565b600060019054906101000a900460ff16610efc5760008054906101000a900460ff1615610f05565b610f04611f13565b5b610f44576040517f08c379a0000000000000000000000000000000000000000000000000000000008152600401610f3b90613a5c565b60405180910390fd5b60008060019054906101000a900460ff161590508015610f94576001600060016101000a81548160ff02191690831515021790555060016000806101000a81548160ff0219169083151502179055505b600160fc60003373ffffffffffffffffffffffffffffffffffffffff1673ffffffffffffffffffffffffffffffffffffffff1681526020019081526020016000208190555061104d6040518060400160405280600981526020017f746f70686f6c64657200000000000000000000000000000000000000000000008152506040518060400160405280600281526020017f5450000000000000000000000000000000000000000000000000000000000000815250611f24565b611055611f81565b61105d611fd2565b801561107e5760008060016101000a81548160ff0219169083151502179055505b50565b6000603360009054906101000a900473ffffffffffffffffffffffffffffffffffffffff16905090565b600160fc60003373ffffffffffffffffffffffffffffffffffffffff1673ffffffffffffffffffffffffffffffffffffffff168152602001908152602001600020541461112d576040517f08c379a000000000000000000000000000000000000000000000000000000000815260040161112490613938565b60405180910390fd5b600060fe60008373ffffffffffffffffffffffffffffffffffffffff1673ffffffffffffffffffffffffffffffffffffffff1681526020019081526020016000208190555050565b60606098805461118490613450565b80601f01602080910402602001604051908101604052809291908181526020018280546111b090613450565b80156111fd5780601f106111d2576101008083540402835291602001916111fd565b820191906000526020600020905b8154815290600101906020018083116111e057829003601f168201915b5050505050905090565b600160fc60003373ffffffffffffffffffffffffffffffffffffffff1673ffffffffffffffffffffffffffffffffffffffff1681526020019081526020016000205414611289576040517f08c379a000000000000000000000000000000000000000000000000000000000815260040161128090613938565b60405180910390fd5b600060fc60008373ffffffffffffffffffffffffffffffffffffffff1673ffffffffffffffffffffffffffffffffffffffff1681526020019081526020016000208190555050565b6112e36112dc61198c565b838361202b565b5050565b6001151560fd600084815260200190815260200160002060009054906101000a900460ff161515141561136c57600160fe600061132261198c565b73ffffffffffffffffffffffffffffffffffffffff1673ffffffffffffffffffffffffffffffffffffffff168152602001908152602001600020541461136757600080fd5b6113bd565b61137d61137761198c565b83611a4d565b6113bc576040517f08c379a00000000000000000000000000000000000000000000000000000000081526004016113b39061373c565b60405180910390fd5b5b6113c984848484612198565b50505050565b600160fc60003373ffffffffffffffffffffffffffffffffffffffff1673ffffffffffffffffffffffffffffffffffffffff1681526020019081526020016000205414611451576040517f08c379a000000000000000000000000000000000000000000000000000000000815260040161144890613938565b60405180910390fd5b600160fe60008373ffffffffffffffffffffffffffffffffffffffff1673ffffffffffffffffffffffffffffffffffffffff1681526020019081526020016000208190555050565b6114a161198c565b73ffffffffffffffffffffffffffffffffffffffff166114bf611081565b73ffffffffffffffffffffffffffffffffffffffff1614611515576040517f08c379a000000000000000000000000000000000000000000000000000000000815260040161150c9061383a565b60405180910390fd5b8060ff908051906020019061152b929190612abc565b5050565b61153a8484836121f4565b61154483836123fa565b50505050565b606061155582611920565b611594576040517f08c379a000000000000000000000000000000000000000000000000000000000815260040161158b90613aee565b60405180910390fd5b600060c9600084815260200190815260200160002080546115b490613450565b80601f01602080910402602001604051908101604052809291908181526020018280546115e090613450565b801561162d5780601f106116025761010080835404028352916020019161162d565b820191906000526020600020905b81548152906001019060200180831161161057829003601f168201915b50505050509050600061163e61246e565b9050600081511415611654578192505050611697565b600082511115611689578082604051602001611671929190613b4a565b60405160208183030381529060405292505050611697565b61169284612500565b925050505b919050565b6000609c60008473ffffffffffffffffffffffffffffffffffffffff1673ffffffffffffffffffffffffffffffffffffffff16815260200190815260200160002060008373ffffffffffffffffffffffffffffffffffffffff1673ffffffffffffffffffffffffffffffffffffffff16815260200190815260200160002060009054906101000a900460ff16905092915050565b61173861198c565b73ffffffffffffffffffffffffffffffffffffffff16611756611081565b73ffffffffffffffffffffffffffffffffffffffff16146117ac576040517f08c379a00000000000000000000000000000000000000000000000000000000081526004016117a39061383a565b60405180910390fd5b600073ffffffffffffffffffffffffffffffffffffffff168173ffffffffffffffffffffffffffffffffffffffff16141561181c576040517f08c379a000000000000000000000000000000000000000000000000000000000815260040161181390613be0565b60405180910390fd5b61182581611de5565b50565b60ff805461183590613450565b80601f016020809104026020016040519081016040528092919081815260200182805461186190613450565b80156118ae5780601f10611883576101008083540402835291602001916118ae565b820191906000526020600020905b81548152906001019060200180831161189157829003601f168201915b505050505081565b60007f01ffc9a7000000000000000000000000000000000000000000000000000000007bffffffffffffffffffffffffffffffffffffffffffffffffffffffff1916827bffffffffffffffffffffffffffffffffffffffffffffffffffffffff1916149050919050565b60008073ffffffffffffffffffffffffffffffffffffffff166099600084815260200190815260200160002060009054906101000a900473ffffffffffffffffffffffffffffffffffffffff1673ffffffffffffffffffffffffffffffffffffffff1614159050919050565b600033905090565b81609b600083815260200190815260200160002060006101000a81548173ffffffffffffffffffffffffffffffffffffffff021916908373ffffffffffffffffffffffffffffffffffffffff160217905550808273ffffffffffffffffffffffffffffffffffffffff16611a0783610ac4565b73ffffffffffffffffffffffffffffffffffffffff167f8c5be1e5ebec7d5bd14f71427d1e84f3dd0314c0f7b2291e5b200ac8c7c3b92560405160405180910390a45050565b6000611a5882611920565b611a97576040517f08c379a0000000000000000000000000000000000000000000000000000000008152600401611a8e90613c72565b60405180910390fd5b6000611aa283610ac4565b90508073ffffffffffffffffffffffffffffffffffffffff168473ffffffffffffffffffffffffffffffffffffffff161480611b1157508373ffffffffffffffffffffffffffffffffffffffff16611af9846106e4565b73ffffffffffffffffffffffffffffffffffffffff16145b80611b225750611b21818561169c565b5b91505092915050565b8273ffffffffffffffffffffffffffffffffffffffff16611b4b82610ac4565b73ffffffffffffffffffffffffffffffffffffffff1614611ba1576040517f08c379a0000000000000000000000000000000000000000000000000000000008152600401611b9890613d04565b60405180910390fd5b600073ffffffffffffffffffffffffffffffffffffffff168273ffffffffffffffffffffffffffffffffffffffff161415611c11576040517f08c379a0000000000000000000000000000000000000000000000000000000008152600401611c0890613d96565b60405180910390fd5b611c1c8383836125a7565b611c27600082611994565b6001609a60008573ffffffffffffffffffffffffffffffffffffffff1673ffffffffffffffffffffffffffffffffffffffff1681526020019081526020016000206000828254611c779190613de5565b925050819055506001609a60008473ffffffffffffffffffffffffffffffffffffffff1673ffffffffffffffffffffffffffffffffffffffff1681526020019081526020016000206000828254611cce9190613e19565b92505081905550816099600083815260200190815260200160002060006101000a81548173ffffffffffffffffffffffffffffffffffffffff021916908373ffffffffffffffffffffffffffffffffffffffff160217905550808273ffffffffffffffffffffffffffffffffffffffff168473ffffffffffffffffffffffffffffffffffffffff167fddf252ad1be2c89b69c2b068fc378daa952ba7f163c4a11628f55a4df523b3ef60405160405180910390a4611d8d8383836125ac565b505050565b611d9b816125b1565b600060c960008381526020019081526020016000208054611dbb90613450565b905014611de25760c960008281526020019081526020016000206000611de19190612b42565b5b50565b6000603360009054906101000a900473ffffffffffffffffffffffffffffffffffffffff16905081603360006101000a81548173ffffffffffffffffffffffffffffffffffffffff021916908373ffffffffffffffffffffffffffffffffffffffff1602179055508173ffffffffffffffffffffffffffffffffffffffff168173ffffffffffffffffffffffffffffffffffffffff167f8be0079c531659141344cd1fd0a4f28419497f9722a3daafe3b4186f6b6457e060405160405180910390a35050565b8060fd600084815260200190815260200160002060006101000a81548160ff0219169083151502179055507f771f1d1daa3cca46394b02d1373b06948f241b5b7e948a11cbbf6a2a90dbcb2b8282604051611f07929190613e6f565b60405180910390a15050565b6000611f1e306126ce565b15905090565b600060019054906101000a900460ff16611f73576040517f08c379a0000000000000000000000000000000000000000000000000000000008152600401611f6a90613f0a565b60405180910390fd5b611f7d82826126f1565b5050565b600060019054906101000a900460ff16611fd0576040517f08c379a0000000000000000000000000000000000000000000000000000000008152600401611fc790613f0a565b60405180910390fd5b565b600060019054906101000a900460ff16612021576040517f08c379a000000000000000000000000000000000000000000000000000000000815260040161201890613f0a565b60405180910390fd5b612029612772565b565b8173ffffffffffffffffffffffffffffffffffffffff168373ffffffffffffffffffffffffffffffffffffffff16141561209a576040517f08c379a000000000000000000000000000000000000000000000000000000000815260040161209190613f76565b60405180910390fd5b80609c60008573ffffffffffffffffffffffffffffffffffffffff1673ffffffffffffffffffffffffffffffffffffffff16815260200190815260200160002060008473ffffffffffffffffffffffffffffffffffffffff1673ffffffffffffffffffffffffffffffffffffffff16815260200190815260200160002060006101000a81548160ff0219169083151502179055508173ffffffffffffffffffffffffffffffffffffffff168373ffffffffffffffffffffffffffffffffffffffff167f17307eab39ab6107e8899845ad3d59bd9653f200f220920489ca2b5937696c318360405161218b9190612c53565b60405180910390a3505050565b6121a3848484611b2b565b6121af848484846127d3565b6121ee576040517f08c379a00000000000000000000000000000000000000000000000000000000081526004016121e590614008565b60405180910390fd5b50505050565b600073ffffffffffffffffffffffffffffffffffffffff168373ffffffffffffffffffffffffffffffffffffffff161415612264576040517f08c379a000000000000000000000000000000000000000000000000000000000815260040161225b90614074565b60405180910390fd5b61226d82611920565b156122ad576040517f08c379a00000000000000000000000000000000000000000000000000000000081526004016122a4906140e0565b60405180910390fd5b6122b9600084846125a7565b6001609a60008573ffffffffffffffffffffffffffffffffffffffff1673ffffffffffffffffffffffffffffffffffffffff16815260200190815260200160002060008282546123099190613e19565b92505081905550826099600084815260200190815260200160002060006101000a81548173ffffffffffffffffffffffffffffffffffffffff021916908373ffffffffffffffffffffffffffffffffffffffff1602179055508060fd600084815260200190815260200160002060006101000a81548160ff021916908315150217905550818373ffffffffffffffffffffffffffffffffffffffff16600073ffffffffffffffffffffffffffffffffffffffff167fddf252ad1be2c89b69c2b068fc378daa952ba7f163c4a11628f55a4df523b3ef60405160405180910390a46123f5600084846125ac565b505050565b61240382611920565b612442576040517f08c379a000000000000000000000000000000000000000000000000000000000815260040161243990614172565b60405180910390fd5b8060c960008481526020019081526020016000209080519060200190612469929190612abc565b505050565b606060fb805461247d90613450565b80601f01602080910402602001604051908101604052809291908181526020018280546124a990613450565b80156124f65780601f106124cb576101008083540402835291602001916124f6565b820191906000526020600020905b8154815290600101906020018083116124d957829003601f168201915b5050505050905090565b606061250b82611920565b61254a576040517f08c379a000000000000000000000000000000000000000000000000000000000815260040161254190614204565b60405180910390fd5b600061255461246e565b90506000815111612574576040518060200160405280600081525061259f565b8061257e8461295b565b60405160200161258f929190613b4a565b6040516020818303038152906040525b915050919050565b505050565b505050565b60006125bc82610ac4565b90506125ca816000846125a7565b6125d5600083611994565b6001609a60008373ffffffffffffffffffffffffffffffffffffffff1673ffffffffffffffffffffffffffffffffffffffff16815260200190815260200160002060008282546126259190613de5565b925050819055506099600083815260200190815260200160002060006101000a81549073ffffffffffffffffffffffffffffffffffffffff021916905581600073ffffffffffffffffffffffffffffffffffffffff168273ffffffffffffffffffffffffffffffffffffffff167fddf252ad1be2c89b69c2b068fc378daa952ba7f163c4a11628f55a4df523b3ef60405160405180910390a46126ca816000846125ac565b5050565b6000808273ffffffffffffffffffffffffffffffffffffffff163b119050919050565b600060019054906101000a900460ff16612740576040517f08c379a000000000000000000000000000000000000000000000000000000000815260040161273790613f0a565b60405180910390fd5b8160979080519060200190612756929190612abc565b50806098908051906020019061276d929190612abc565b505050565b600060019054906101000a900460ff166127c1576040517f08c379a00000000000000000000000000000000000000000000000000000000081526004016127b890613f0a565b60405180910390fd5b6127d16127cc61198c565b611de5565b565b60006127f48473ffffffffffffffffffffffffffffffffffffffff166126ce565b1561294e578373ffffffffffffffffffffffffffffffffffffffff1663150b7a0261281d61198c565b8786866040518563ffffffff1660e01b815260040161283f9493929190614279565b6020604051808303816000875af192505050801561287b57506040513d601f19601f8201168201806040525081019061287891906142da565b60015b6128fe573d80600081146128ab576040519150601f19603f3d011682016040523d82523d6000602084013e6128b0565b606091505b506000815114156128f6576040517f08c379a00000000000000000000000000000000000000000000000000000000081526004016128ed90614008565b60405180910390fd5b805181602001fd5b63150b7a0260e01b7bffffffffffffffffffffffffffffffffffffffffffffffffffffffff1916817bffffffffffffffffffffffffffffffffffffffffffffffffffffffff191614915050612953565b600190505b949350505050565b606060008214156129a3576040518060400160405280600181526020017f30000000000000000000000000000000000000000000000000000000000000008152509050612ab7565b600082905060005b600082146129d55780806129be90614307565b915050600a826129ce919061437f565b91506129ab565b60008167ffffffffffffffff8111156129f1576129f0612fc3565b5b6040519080825280601f01601f191660200182016040528015612a235781602001600182028036833780820191505090505b5090505b60008514612ab057600182612a3c9190613de5565b9150600a85612a4b91906143b0565b6030612a579190613e19565b60f81b818381518110612a6d57612a6c6143e1565b5b60200101907effffffffffffffffffffffffffffffffffffffffffffffffffffffffffffff1916908160001a905350600a85612aa9919061437f565b9450612a27565b8093505050505b919050565b828054612ac890613450565b90600052602060002090601f016020900481019282612aea5760008555612b31565b82601f10612b0357805160ff1916838001178555612b31565b82800160010185558215612b31579182015b82811115612b30578251825591602001919060010190612b15565b5b509050612b3e9190612b82565b5090565b508054612b4e90613450565b6000825580601f10612b605750612b7f565b601f016020900490600052602060002090810190612b7e9190612b82565b5b50565b5b80821115612b9b576000816000905550600101612b83565b5090565b6000604051905090565b600080fd5b600080fd5b60007fffffffff0000000000000000000000000000000000000000000000000000000082169050919050565b612be881612bb3565b8114612bf357600080fd5b50565b600081359050612c0581612bdf565b92915050565b600060208284031215612c2157612c20612ba9565b5b6000612c2f84828501612bf6565b91505092915050565b60008115159050919050565b612c4d81612c38565b82525050565b6000602082019050612c686000830184612c44565b92915050565b600081519050919050565b600082825260208201905092915050565b60005b83811015612ca8578082015181840152602081019050612c8d565b83811115612cb7576000848401525b50505050565b6000601f19601f8301169050919050565b6000612cd982612c6e565b612ce38185612c79565b9350612cf3818560208601612c8a565b612cfc81612cbd565b840191505092915050565b60006020820190508181036000830152612d218184612cce565b905092915050565b6000819050919050565b612d3c81612d29565b8114612d4757600080fd5b50565b600081359050612d5981612d33565b92915050565b600060208284031215612d7557612d74612ba9565b5b6000612d8384828501612d4a565b91505092915050565b600073ffffffffffffffffffffffffffffffffffffffff82169050919050565b6000612db782612d8c565b9050919050565b612dc781612dac565b82525050565b6000602082019050612de26000830184612dbe565b92915050565b612df181612dac565b8114612dfc57600080fd5b50565b600081359050612e0e81612de8565b92915050565b60008060408385031215612e2b57612e2a612ba9565b5b6000612e3985828601612dff565b9250506020612e4a85828601612d4a565b9150509250929050565b600080fd5b600080fd5b600080fd5b60008083601f840112612e7957612e78612e54565b5b8235905067ffffffffffffffff811115612e9657612e95612e59565b5b602083019150836001820283011115612eb257612eb1612e5e565b5b9250929050565b600080600080600060808688031215612ed557612ed4612ba9565b5b6000612ee388828901612dff565b9550506020612ef488828901612dff565b9450506040612f0588828901612d4a565b935050606086013567ffffffffffffffff811115612f2657612f25612bae565b5b612f3288828901612e63565b92509250509295509295909350565b612f4a81612bb3565b82525050565b6000602082019050612f656000830184612f41565b92915050565b600080600060608486031215612f8457612f83612ba9565b5b6000612f9286828701612dff565b9350506020612fa386828701612dff565b9250506040612fb486828701612d4a565b9150509250925092565b600080fd5b7f4e487b7100000000000000000000000000000000000000000000000000000000600052604160045260246000fd5b612ffb82612cbd565b810181811067ffffffffffffffff8211171561301a57613019612fc3565b5b80604052505050565b600061302d612b9f565b90506130398282612ff2565b919050565b600067ffffffffffffffff82111561305957613058612fc3565b5b61306282612cbd565b9050602081019050919050565b82818337600083830152505050565b600061309161308c8461303e565b613023565b9050828152602081018484840111156130ad576130ac612fbe565b5b6130b884828561306f565b509392505050565b600082601f8301126130d5576130d4612e54565b5b81356130e584826020860161307e565b91505092915050565b60006020828403121561310457613103612ba9565b5b600082013567ffffffffffffffff81111561312257613121612bae565b5b61312e848285016130c0565b91505092915050565b60006020828403121561314d5761314c612ba9565b5b600061315b84828501612dff565b91505092915050565b61316d81612d29565b82525050565b60006020820190506131886000830184613164565b92915050565b61319781612c38565b81146131a257600080fd5b50565b6000813590506131b48161318e565b92915050565b600080604083850312156131d1576131d0612ba9565b5b60006131df85828601612d4a565b92505060206131f0858286016131a5565b9150509250929050565b6000806040838503121561321157613210612ba9565b5b600061321f85828601612dff565b9250506020613230858286016131a5565b9150509250929050565b600067ffffffffffffffff82111561325557613254612fc3565b5b61325e82612cbd565b9050602081019050919050565b600061327e6132798461323a565b613023565b90508281526020810184848401111561329a57613299612fbe565b5b6132a584828561306f565b509392505050565b600082601f8301126132c2576132c1612e54565b5b81356132d284826020860161326b565b91505092915050565b600080600080608085870312156132f5576132f4612ba9565b5b600061330387828801612dff565b945050602061331487828801612dff565b935050604061332587828801612d4a565b925050606085013567ffffffffffffffff81111561334657613345612bae565b5b613352878288016132ad565b91505092959194509250565b6000806000806080858703121561337857613377612ba9565b5b600061338687828801612dff565b945050602061339787828801612d4a565b935050604085013567ffffffffffffffff8111156133b8576133b7612bae565b5b6133c4878288016130c0565b92505060606133d5878288016131a5565b91505092959194509250565b600080604083850312156133f8576133f7612ba9565b5b600061340685828601612dff565b925050602061341785828601612dff565b9150509250929050565b7f4e487b7100000000000000000000000000000000000000000000000000000000600052602260045260246000fd5b6000600282049050600182168061346857607f821691505b6020821081141561347c5761347b613421565b5b50919050565b7f4552433732313a20617070726f76656420717565727920666f72206e6f6e657860008201527f697374656e7420746f6b656e0000000000000000000000000000000000000000602082015250565b60006134de602c83612c79565b91506134e982613482565b604082019050919050565b6000602082019050818103600083015261350d816134d1565b9050919050565b7f4552433732313a20617070726f76616c20746f2063757272656e74206f776e6560008201527f7200000000000000000000000000000000000000000000000000000000000000602082015250565b6000613570602183612c79565b915061357b82613514565b604082019050919050565b6000602082019050818103600083015261359f81613563565b9050919050565b7f4552433732313a20617070726f76652063616c6c6572206973206e6f74206f7760008201527f6e6572206e6f7220617070726f76656420666f7220616c6c0000000000000000602082015250565b6000613602603883612c79565b915061360d826135a6565b604082019050919050565b60006020820190508181036000830152613631816135f5565b9050919050565b7f4552433732313a207472616e736665722063616c6c6572206973206e6f74206f60008201527f70657261746f7200000000000000000000000000000000000000000000000000602082015250565b6000613694602783612c79565b915061369f82613638565b604082019050919050565b600060208201905081810360008301526136c381613687565b9050919050565b7f4552433732313a207472616e736665722063616c6c6572206973206e6f74206f60008201527f776e6572206e6f7220617070726f766564000000000000000000000000000000602082015250565b6000613726603183612c79565b9150613731826136ca565b604082019050919050565b6000602082019050818103600083015261375581613719565b9050919050565b7f4552433732314275726e61626c653a2063616c6c6572206973206e6f74206f7760008201527f6e6572206e6f7220617070726f76656400000000000000000000000000000000602082015250565b60006137b8603083612c79565b91506137c38261375c565b604082019050919050565b600060208201905081810360008301526137e7816137ab565b9050919050565b7f4f776e61626c653a2063616c6c6572206973206e6f7420746865206f776e6572600082015250565b6000613824602083612c79565b915061382f826137ee565b602082019050919050565b6000602082019050818103600083015261385381613817565b9050919050565b7f4552433732313a206f776e657220717565727920666f72206e6f6e657869737460008201527f656e7420746f6b656e0000000000000000000000000000000000000000000000602082015250565b60006138b6602983612c79565b91506138c18261385a565b604082019050919050565b600060208201905081810360008301526138e5816138a9565b9050919050565b7f6e6f742d617574686f72697a6564000000000000000000000000000000000000600082015250565b6000613922600e83612c79565b915061392d826138ec565b602082019050919050565b6000602082019050818103600083015261395181613915565b9050919050565b7f4552433732313a2062616c616e636520717565727920666f7220746865207a6560008201527f726f206164647265737300000000000000000000000000000000000000000000602082015250565b60006139b4602a83612c79565b91506139bf82613958565b604082019050919050565b600060208201905081810360008301526139e3816139a7565b9050919050565b7f496e697469616c697a61626c653a20636f6e747261637420697320616c72656160008201527f647920696e697469616c697a6564000000000000000000000000000000000000602082015250565b6000613a46602e83612c79565b9150613a51826139ea565b604082019050919050565b60006020820190508181036000830152613a7581613a39565b9050919050565b7f45524337323155524953746f726167653a2055524920717565727920666f722060008201527f6e6f6e6578697374656e7420746f6b656e000000000000000000000000000000602082015250565b6000613ad8603183612c79565b9150613ae382613a7c565b604082019050919050565b60006020820190508181036000830152613b0781613acb565b9050919050565b600081905092915050565b6000613b2482612c6e565b613b2e8185613b0e565b9350613b3e818560208601612c8a565b80840191505092915050565b6000613b568285613b19565b9150613b628284613b19565b91508190509392505050565b7f4f776e61626c653a206e6577206f776e657220697320746865207a65726f206160008201527f6464726573730000000000000000000000000000000000000000000000000000602082015250565b6000613bca602683612c79565b9150613bd582613b6e565b604082019050919050565b60006020820190508181036000830152613bf981613bbd565b9050919050565b7f4552433732313a206f70657261746f7220717565727920666f72206e6f6e657860008201527f697374656e7420746f6b656e0000000000000000000000000000000000000000602082015250565b6000613c5c602c83612c79565b9150613c6782613c00565b604082019050919050565b60006020820190508181036000830152613c8b81613c4f565b9050919050565b7f4552433732313a207472616e736665722066726f6d20696e636f72726563742060008201527f6f776e6572000000000000000000000000000000000000000000000000000000602082015250565b6000613cee602583612c79565b9150613cf982613c92565b604082019050919050565b60006020820190508181036000830152613d1d81613ce1565b9050919050565b7f4552433732313a207472616e7366657220746f20746865207a65726f2061646460008201527f7265737300000000000000000000000000000000000000000000000000000000602082015250565b6000613d80602483612c79565b9150613d8b82613d24565b604082019050919050565b60006020820190508181036000830152613daf81613d73565b9050919050565b7f4e487b7100000000000000000000000000000000000000000000000000000000600052601160045260246000fd5b6000613df082612d29565b9150613dfb83612d29565b925082821015613e0e57613e0d613db6565b5b828203905092915050565b6000613e2482612d29565b9150613e2f83612d29565b9250827fffffffffffffffffffffffffffffffffffffffffffffffffffffffffffffffff03821115613e6457613e63613db6565b5b828201905092915050565b6000604082019050613e846000830185613164565b613e916020830184612c44565b9392505050565b7f496e697469616c697a61626c653a20636f6e7472616374206973206e6f74206960008201527f6e697469616c697a696e67000000000000000000000000000000000000000000602082015250565b6000613ef4602b83612c79565b9150613eff82613e98565b604082019050919050565b60006020820190508181036000830152613f2381613ee7565b9050919050565b7f4552433732313a20617070726f766520746f2063616c6c657200000000000000600082015250565b6000613f60601983612c79565b9150613f6b82613f2a565b602082019050919050565b60006020820190508181036000830152613f8f81613f53565b9050919050565b7f4552433732313a207472616e7366657220746f206e6f6e20455243373231526560008201527f63656976657220696d706c656d656e7465720000000000000000000000000000602082015250565b6000613ff2603283612c79565b9150613ffd82613f96565b604082019050919050565b6000602082019050818103600083015261402181613fe5565b9050919050565b7f4552433732313a206d696e7420746f20746865207a65726f2061646472657373600082015250565b600061405e602083612c79565b915061406982614028565b602082019050919050565b6000602082019050818103600083015261408d81614051565b9050919050565b7f4552433732313a20746f6b656e20616c7265616479206d696e74656400000000600082015250565b60006140ca601c83612c79565b91506140d582614094565b602082019050919050565b600060208201905081810360008301526140f9816140bd565b9050919050565b7f45524337323155524953746f726167653a2055524920736574206f66206e6f6e60008201527f6578697374656e7420746f6b656e000000000000000000000000000000000000602082015250565b600061415c602e83612c79565b915061416782614100565b604082019050919050565b6000602082019050818103600083015261418b8161414f565b9050919050565b7f4552433732314d657461646174613a2055524920717565727920666f72206e6f60008201527f6e6578697374656e7420746f6b656e0000000000000000000000000000000000602082015250565b60006141ee602f83612c79565b91506141f982614192565b604082019050919050565b6000602082019050818103600083015261421d816141e1565b9050919050565b600081519050919050565b600082825260208201905092915050565b600061424b82614224565b614255818561422f565b9350614265818560208601612c8a565b61426e81612cbd565b840191505092915050565b600060808201905061428e6000830187612dbe565b61429b6020830186612dbe565b6142a86040830185613164565b81810360608301526142ba8184614240565b905095945050505050565b6000815190506142d481612bdf565b92915050565b6000602082840312156142f0576142ef612ba9565b5b60006142fe848285016142c5565b91505092915050565b600061431282612d29565b91507fffffffffffffffffffffffffffffffffffffffffffffffffffffffffffffffff82141561434557614344613db6565b5b600182019050919050565b7f4e487b7100000000000000000000000000000000000000000000000000000000600052601260045260246000fd5b600061438a82612d29565b915061439583612d29565b9250826143a5576143a4614350565b5b828204905092915050565b60006143bb82612d29565b91506143c683612d29565b9250826143d6576143d5614350565b5b828206905092915050565b7f4e487b7100000000000000000000000000000000000000000000000000000000600052603260045260246000fdfea26469706673582212209e45dc2a73b8b0fe2f187befff8af05ee1351179a1a4b38f8fcb3e772abfa4d564736f6c634300080c0033",
			"opcodes": "PUSH1 0x80 PUSH1 0x40 MSTORE CALLVALUE DUP1 ISZERO PUSH2 0x10 JUMPI PUSH1 0x0 DUP1 REVERT JUMPDEST POP PUSH2 0x4446 DUP1 PUSH2 0x20 PUSH1 0x0 CODECOPY PUSH1 0x0 RETURN INVALID PUSH1 0x80 PUSH1 0x40 MSTORE CALLVALUE DUP1 ISZERO PUSH2 0x10 JUMPI PUSH1 0x0 DUP1 REVERT JUMPDEST POP PUSH1 0x4 CALLDATASIZE LT PUSH2 0x1CF JUMPI PUSH1 0x0 CALLDATALOAD PUSH1 0xE0 SHR DUP1 PUSH4 0x7B4FCA3D GT PUSH2 0x104 JUMPI DUP1 PUSH4 0xB88D4FDE GT PUSH2 0xA2 JUMPI DUP1 PUSH4 0xC87B56DD GT PUSH2 0x71 JUMPI DUP1 PUSH4 0xC87B56DD EQ PUSH2 0x4D6 JUMPI DUP1 PUSH4 0xE985E9C5 EQ PUSH2 0x506 JUMPI DUP1 PUSH4 0xF2FDE38B EQ PUSH2 0x536 JUMPI DUP1 PUSH4 0xF8A8FD6D EQ PUSH2 0x552 JUMPI PUSH2 0x1CF JUMP JUMPDEST DUP1 PUSH4 0xB88D4FDE EQ PUSH2 0x466 JUMPI DUP1 PUSH4 0xBDE5A6AA EQ PUSH2 0x482 JUMPI DUP1 PUSH4 0xC196F2DE EQ PUSH2 0x49E JUMPI DUP1 PUSH4 0xC327325D EQ PUSH2 0x4BA JUMPI PUSH2 0x1CF JUMP JUMPDEST DUP1 PUSH4 0x8F47012E GT PUSH2 0xDE JUMPI DUP1 PUSH4 0x8F47012E EQ PUSH2 0x3F4 JUMPI DUP1 PUSH4 0x95D89B41 EQ PUSH2 0x410 JUMPI DUP1 PUSH4 0x9C52A7F1 EQ PUSH2 0x42E JUMPI DUP1 PUSH4 0xA22CB465 EQ PUSH2 0x44A JUMPI PUSH2 0x1CF JUMP JUMPDEST DUP1 PUSH4 0x7B4FCA3D EQ PUSH2 0x3B0 JUMPI DUP1 PUSH4 0x8129FC1C EQ PUSH2 0x3CC JUMPI DUP1 PUSH4 0x8DA5CB5B EQ PUSH2 0x3D6 JUMPI PUSH2 0x1CF JUMP JUMPDEST DUP1 PUSH4 0x42966C68 GT PUSH2 0x171 JUMPI DUP1 PUSH4 0x65FAE35E GT PUSH2 0x14B JUMPI DUP1 PUSH4 0x65FAE35E EQ PUSH2 0x33E JUMPI DUP1 PUSH4 0x704B6C02 EQ PUSH2 0x35A JUMPI DUP1 PUSH4 0x70A08231 EQ PUSH2 0x376 JUMPI DUP1 PUSH4 0x715018A6 EQ PUSH2 0x3A6 JUMPI PUSH2 0x1CF JUMP JUMPDEST DUP1 PUSH4 0x42966C68 EQ PUSH2 0x2D6 JUMPI DUP1 PUSH4 0x55F804B3 EQ PUSH2 0x2F2 JUMPI DUP1 PUSH4 0x6352211E EQ PUSH2 0x30E JUMPI PUSH2 0x1CF JUMP JUMPDEST DUP1 PUSH4 0x95EA7B3 GT PUSH2 0x1AD JUMPI DUP1 PUSH4 0x95EA7B3 EQ PUSH2 0x252 JUMPI DUP1 PUSH4 0x150B7A02 EQ PUSH2 0x26E JUMPI DUP1 PUSH4 0x23B872DD EQ PUSH2 0x29E JUMPI DUP1 PUSH4 0x42842E0E EQ PUSH2 0x2BA JUMPI PUSH2 0x1CF JUMP JUMPDEST DUP1 PUSH4 0x1FFC9A7 EQ PUSH2 0x1D4 JUMPI DUP1 PUSH4 0x6FDDE03 EQ PUSH2 0x204 JUMPI DUP1 PUSH4 0x81812FC EQ PUSH2 0x222 JUMPI JUMPDEST PUSH1 0x0 DUP1 REVERT JUMPDEST PUSH2 0x1EE PUSH1 0x4 DUP1 CALLDATASIZE SUB DUP2 ADD SWAP1 PUSH2 0x1E9 SWAP2 SWAP1 PUSH2 0x2C0B JUMP JUMPDEST PUSH2 0x570 JUMP JUMPDEST PUSH1 0x40 MLOAD PUSH2 0x1FB SWAP2 SWAP1 PUSH2 0x2C53 JUMP JUMPDEST PUSH1 0x40 MLOAD DUP1 SWAP2 SUB SWAP1 RETURN JUMPDEST PUSH2 0x20C PUSH2 0x652 JUMP JUMPDEST PUSH1 0x40 MLOAD PUSH2 0x219 SWAP2 SWAP1 PUSH2 0x2D07 JUMP JUMPDEST PUSH1 0x40 MLOAD DUP1 SWAP2 SUB SWAP1 RETURN JUMPDEST PUSH2 0x23C PUSH1 0x4 DUP1 CALLDATASIZE SUB DUP2 ADD SWAP1 PUSH2 0x237 SWAP2 SWAP1 PUSH2 0x2D5F JUMP JUMPDEST PUSH2 0x6E4 JUMP JUMPDEST PUSH1 0x40 MLOAD PUSH2 0x249 SWAP2 SWAP1 PUSH2 0x2DCD JUMP JUMPDEST PUSH1 0x40 MLOAD DUP1 SWAP2 SUB SWAP1 RETURN JUMPDEST PUSH2 0x26C PUSH1 0x4 DUP1 CALLDATASIZE SUB DUP2 ADD SWAP1 PUSH2 0x267 SWAP2 SWAP1 PUSH2 0x2E14 JUMP JUMPDEST PUSH2 0x769 JUMP JUMPDEST STOP JUMPDEST PUSH2 0x288 PUSH1 0x4 DUP1 CALLDATASIZE SUB DUP2 ADD SWAP1 PUSH2 0x283 SWAP2 SWAP1 PUSH2 0x2EB9 JUMP JUMPDEST PUSH2 0x881 JUMP JUMPDEST PUSH1 0x40 MLOAD PUSH2 0x295 SWAP2 SWAP1 PUSH2 0x2F50 JUMP JUMPDEST PUSH1 0x40 MLOAD DUP1 SWAP2 SUB SWAP1 RETURN JUMPDEST PUSH2 0x2B8 PUSH1 0x4 DUP1 CALLDATASIZE SUB DUP2 ADD SWAP1 PUSH2 0x2B3 SWAP2 SWAP1 PUSH2 0x2F6B JUMP JUMPDEST PUSH2 0x896 JUMP JUMPDEST STOP JUMPDEST PUSH2 0x2D4 PUSH1 0x4 DUP1 CALLDATASIZE SUB DUP2 ADD SWAP1 PUSH2 0x2CF SWAP2 SWAP1 PUSH2 0x2F6B JUMP JUMPDEST PUSH2 0x9B2 JUMP JUMPDEST STOP JUMPDEST PUSH2 0x2F0 PUSH1 0x4 DUP1 CALLDATASIZE SUB DUP2 ADD SWAP1 PUSH2 0x2EB SWAP2 SWAP1 PUSH2 0x2D5F JUMP JUMPDEST PUSH2 0x9D2 JUMP JUMPDEST STOP JUMPDEST PUSH2 0x30C PUSH1 0x4 DUP1 CALLDATASIZE SUB DUP2 ADD SWAP1 PUSH2 0x307 SWAP2 SWAP1 PUSH2 0x30EE JUMP JUMPDEST PUSH2 0xA2E JUMP JUMPDEST STOP JUMPDEST PUSH2 0x328 PUSH1 0x4 DUP1 CALLDATASIZE SUB DUP2 ADD SWAP1 PUSH2 0x323 SWAP2 SWAP1 PUSH2 0x2D5F JUMP JUMPDEST PUSH2 0xAC4 JUMP JUMPDEST PUSH1 0x40 MLOAD PUSH2 0x335 SWAP2 SWAP1 PUSH2 0x2DCD JUMP JUMPDEST PUSH1 0x40 MLOAD DUP1 SWAP2 SUB SWAP1 RETURN JUMPDEST PUSH2 0x358 PUSH1 0x4 DUP1 CALLDATASIZE SUB DUP2 ADD SWAP1 PUSH2 0x353 SWAP2 SWAP1 PUSH2 0x3137 JUMP JUMPDEST PUSH2 0xB76 JUMP JUMPDEST STOP JUMPDEST PUSH2 0x374 PUSH1 0x4 DUP1 CALLDATASIZE SUB DUP2 ADD SWAP1 PUSH2 0x36F SWAP2 SWAP1 PUSH2 0x3137 JUMP JUMPDEST PUSH2 0xC40 JUMP JUMPDEST STOP JUMPDEST PUSH2 0x390 PUSH1 0x4 DUP1 CALLDATASIZE SUB DUP2 ADD SWAP1 PUSH2 0x38B SWAP2 SWAP1 PUSH2 0x3137 JUMP JUMPDEST PUSH2 0xD04 JUMP JUMPDEST PUSH1 0x40 MLOAD PUSH2 0x39D SWAP2 SWAP1 PUSH2 0x3173 JUMP JUMPDEST PUSH1 0x40 MLOAD DUP1 SWAP2 SUB SWAP1 RETURN JUMPDEST PUSH2 0x3AE PUSH2 0xDBC JUMP JUMPDEST STOP JUMPDEST PUSH2 0x3CA PUSH1 0x4 DUP1 CALLDATASIZE SUB DUP2 ADD SWAP1 PUSH2 0x3C5 SWAP2 SWAP1 PUSH2 0x31BA JUMP JUMPDEST PUSH2 0xE44 JUMP JUMPDEST STOP JUMPDEST PUSH2 0x3D4 PUSH2 0xED4 JUMP JUMPDEST STOP JUMPDEST PUSH2 0x3DE PUSH2 0x1081 JUMP JUMPDEST PUSH1 0x40 MLOAD PUSH2 0x3EB SWAP2 SWAP1 PUSH2 0x2DCD JUMP JUMPDEST PUSH1 0x40 MLOAD DUP1 SWAP2 SUB SWAP1 RETURN JUMPDEST PUSH2 0x40E PUSH1 0x4 DUP1 CALLDATASIZE SUB DUP2 ADD SWAP1 PUSH2 0x409 SWAP2 SWAP1 PUSH2 0x3137 JUMP JUMPDEST PUSH2 0x10AB JUMP JUMPDEST STOP JUMPDEST PUSH2 0x418 PUSH2 0x1175 JUMP JUMPDEST PUSH1 0x40 MLOAD PUSH2 0x425 SWAP2 SWAP1 PUSH2 0x2D07 JUMP JUMPDEST PUSH1 0x40 MLOAD DUP1 SWAP2 SUB SWAP1 RETURN JUMPDEST PUSH2 0x448 PUSH1 0x4 DUP1 CALLDATASIZE SUB DUP2 ADD SWAP1 PUSH2 0x443 SWAP2 SWAP1 PUSH2 0x3137 JUMP JUMPDEST PUSH2 0x1207 JUMP JUMPDEST STOP JUMPDEST PUSH2 0x464 PUSH1 0x4 DUP1 CALLDATASIZE SUB DUP2 ADD SWAP1 PUSH2 0x45F SWAP2 SWAP1 PUSH2 0x31FA JUMP JUMPDEST PUSH2 0x12D1 JUMP JUMPDEST STOP JUMPDEST PUSH2 0x480 PUSH1 0x4 DUP1 CALLDATASIZE SUB DUP2 ADD SWAP1 PUSH2 0x47B SWAP2 SWAP1 PUSH2 0x32DB JUMP JUMPDEST PUSH2 0x12E7 JUMP JUMPDEST STOP JUMPDEST PUSH2 0x49C PUSH1 0x4 DUP1 CALLDATASIZE SUB DUP2 ADD SWAP1 PUSH2 0x497 SWAP2 SWAP1 PUSH2 0x3137 JUMP JUMPDEST PUSH2 0x13CF JUMP JUMPDEST STOP JUMPDEST PUSH2 0x4B8 PUSH1 0x4 DUP1 CALLDATASIZE SUB DUP2 ADD SWAP1 PUSH2 0x4B3 SWAP2 SWAP1 PUSH2 0x30EE JUMP JUMPDEST PUSH2 0x1499 JUMP JUMPDEST STOP JUMPDEST PUSH2 0x4D4 PUSH1 0x4 DUP1 CALLDATASIZE SUB DUP2 ADD SWAP1 PUSH2 0x4CF SWAP2 SWAP1 PUSH2 0x335E JUMP JUMPDEST PUSH2 0x152F JUMP JUMPDEST STOP JUMPDEST PUSH2 0x4F0 PUSH1 0x4 DUP1 CALLDATASIZE SUB DUP2 ADD SWAP1 PUSH2 0x4EB SWAP2 SWAP1 PUSH2 0x2D5F JUMP JUMPDEST PUSH2 0x154A JUMP JUMPDEST PUSH1 0x40 MLOAD PUSH2 0x4FD SWAP2 SWAP1 PUSH2 0x2D07 JUMP JUMPDEST PUSH1 0x40 MLOAD DUP1 SWAP2 SUB SWAP1 RETURN JUMPDEST PUSH2 0x520 PUSH1 0x4 DUP1 CALLDATASIZE SUB DUP2 ADD SWAP1 PUSH2 0x51B SWAP2 SWAP1 PUSH2 0x33E1 JUMP JUMPDEST PUSH2 0x169C JUMP JUMPDEST PUSH1 0x40 MLOAD PUSH2 0x52D SWAP2 SWAP1 PUSH2 0x2C53 JUMP JUMPDEST PUSH1 0x40 MLOAD DUP1 SWAP2 SUB SWAP1 RETURN JUMPDEST PUSH2 0x550 PUSH1 0x4 DUP1 CALLDATASIZE SUB DUP2 ADD SWAP1 PUSH2 0x54B SWAP2 SWAP1 PUSH2 0x3137 JUMP JUMPDEST PUSH2 0x1730 JUMP JUMPDEST STOP JUMPDEST PUSH2 0x55A PUSH2 0x1828 JUMP JUMPDEST PUSH1 0x40 MLOAD PUSH2 0x567 SWAP2 SWAP1 PUSH2 0x2D07 JUMP JUMPDEST PUSH1 0x40 MLOAD DUP1 SWAP2 SUB SWAP1 RETURN JUMPDEST PUSH1 0x0 PUSH32 0x80AC58CD00000000000000000000000000000000000000000000000000000000 PUSH28 0xFFFFFFFFFFFFFFFFFFFFFFFFFFFFFFFFFFFFFFFFFFFFFFFFFFFFFFFF NOT AND DUP3 PUSH28 0xFFFFFFFFFFFFFFFFFFFFFFFFFFFFFFFFFFFFFFFFFFFFFFFFFFFFFFFF NOT AND EQ DUP1 PUSH2 0x63B JUMPI POP PUSH32 0x5B5E139F00000000000000000000000000000000000000000000000000000000 PUSH28 0xFFFFFFFFFFFFFFFFFFFFFFFFFFFFFFFFFFFFFFFFFFFFFFFFFFFFFFFF NOT AND DUP3 PUSH28 0xFFFFFFFFFFFFFFFFFFFFFFFFFFFFFFFFFFFFFFFFFFFFFFFFFFFFFFFF NOT AND EQ JUMPDEST DUP1 PUSH2 0x64B JUMPI POP PUSH2 0x64A DUP3 PUSH2 0x18B6 JUMP JUMPDEST JUMPDEST SWAP1 POP SWAP2 SWAP1 POP JUMP JUMPDEST PUSH1 0x60 PUSH1 0x97 DUP1 SLOAD PUSH2 0x661 SWAP1 PUSH2 0x3450 JUMP JUMPDEST DUP1 PUSH1 0x1F ADD PUSH1 0x20 DUP1 SWAP2 DIV MUL PUSH1 0x20 ADD PUSH1 0x40 MLOAD SWAP1 DUP2 ADD PUSH1 0x40 MSTORE DUP1 SWAP3 SWAP2 SWAP1 DUP2 DUP2 MSTORE PUSH1 0x20 ADD DUP3 DUP1 SLOAD PUSH2 0x68D SWAP1 PUSH2 0x3450 JUMP JUMPDEST DUP1 ISZERO PUSH2 0x6DA JUMPI DUP1 PUSH1 0x1F LT PUSH2 0x6AF JUMPI PUSH2 0x100 DUP1 DUP4 SLOAD DIV MUL DUP4 MSTORE SWAP2 PUSH1 0x20 ADD SWAP2 PUSH2 0x6DA JUMP JUMPDEST DUP3 ADD SWAP2 SWAP1 PUSH1 0x0 MSTORE PUSH1 0x20 PUSH1 0x0 KECCAK256 SWAP1 JUMPDEST DUP2 SLOAD DUP2 MSTORE SWAP1 PUSH1 0x1 ADD SWAP1 PUSH1 0x20 ADD DUP1 DUP4 GT PUSH2 0x6BD JUMPI DUP3 SWAP1 SUB PUSH1 0x1F AND DUP3 ADD SWAP2 JUMPDEST POP POP POP POP POP SWAP1 POP SWAP1 JUMP JUMPDEST PUSH1 0x0 PUSH2 0x6EF DUP3 PUSH2 0x1920 JUMP JUMPDEST PUSH2 0x72E JUMPI PUSH1 0x40 MLOAD PUSH32 0x8C379A000000000000000000000000000000000000000000000000000000000 DUP2 MSTORE PUSH1 0x4 ADD PUSH2 0x725 SWAP1 PUSH2 0x34F4 JUMP JUMPDEST PUSH1 0x40 MLOAD DUP1 SWAP2 SUB SWAP1 REVERT JUMPDEST PUSH1 0x9B PUSH1 0x0 DUP4 DUP2 MSTORE PUSH1 0x20 ADD SWAP1 DUP2 MSTORE PUSH1 0x20 ADD PUSH1 0x0 KECCAK256 PUSH1 0x0 SWAP1 SLOAD SWAP1 PUSH2 0x100 EXP SWAP1 DIV PUSH20 0xFFFFFFFFFFFFFFFFFFFFFFFFFFFFFFFFFFFFFFFF AND SWAP1 POP SWAP2 SWAP1 POP JUMP JUMPDEST PUSH1 0x0 PUSH2 0x774 DUP3 PUSH2 0xAC4 JUMP JUMPDEST SWAP1 POP DUP1 PUSH20 0xFFFFFFFFFFFFFFFFFFFFFFFFFFFFFFFFFFFFFFFF AND DUP4 PUSH20 0xFFFFFFFFFFFFFFFFFFFFFFFFFFFFFFFFFFFFFFFF AND EQ ISZERO PUSH2 0x7E5 JUMPI PUSH1 0x40 MLOAD PUSH32 0x8C379A000000000000000000000000000000000000000000000000000000000 DUP2 MSTORE PUSH1 0x4 ADD PUSH2 0x7DC SWAP1 PUSH2 0x3586 JUMP JUMPDEST PUSH1 0x40 MLOAD DUP1 SWAP2 SUB SWAP1 REVERT JUMPDEST DUP1 PUSH20 0xFFFFFFFFFFFFFFFFFFFFFFFFFFFFFFFFFFFFFFFF AND PUSH2 0x804 PUSH2 0x198C JUMP JUMPDEST PUSH20 0xFFFFFFFFFFFFFFFFFFFFFFFFFFFFFFFFFFFFFFFF AND EQ DUP1 PUSH2 0x833 JUMPI POP PUSH2 0x832 DUP2 PUSH2 0x82D PUSH2 0x198C JUMP JUMPDEST PUSH2 0x169C JUMP JUMPDEST JUMPDEST PUSH2 0x872 JUMPI PUSH1 0x40 MLOAD PUSH32 0x8C379A000000000000000000000000000000000000000000000000000000000 DUP2 MSTORE PUSH1 0x4 ADD PUSH2 0x869 SWAP1 PUSH2 0x3618 JUMP JUMPDEST PUSH1 0x40 MLOAD DUP1 SWAP2 SUB SWAP1 REVERT JUMPDEST PUSH2 0x87C DUP4 DUP4 PUSH2 0x1994 JUMP JUMPDEST POP POP POP JUMP JUMPDEST PUSH1 0x0 PUSH4 0x150B7A02 PUSH1 0xE0 SHL SWAP1 POP SWAP6 SWAP5 POP POP POP POP POP JUMP JUMPDEST PUSH1 0x1 ISZERO ISZERO PUSH1 0xFD PUSH1 0x0 DUP4 DUP2 MSTORE PUSH1 0x20 ADD SWAP1 DUP2 MSTORE PUSH1 0x20 ADD PUSH1 0x0 KECCAK256 PUSH1 0x0 SWAP1 SLOAD SWAP1 PUSH2 0x100 EXP SWAP1 DIV PUSH1 0xFF AND ISZERO ISZERO EQ ISZERO PUSH2 0x951 JUMPI PUSH1 0x1 PUSH1 0xFE PUSH1 0x0 PUSH2 0x8D1 PUSH2 0x198C JUMP JUMPDEST PUSH20 0xFFFFFFFFFFFFFFFFFFFFFFFFFFFFFFFFFFFFFFFF AND PUSH20 0xFFFFFFFFFFFFFFFFFFFFFFFFFFFFFFFFFFFFFFFF AND DUP2 MSTORE PUSH1 0x20 ADD SWAP1 DUP2 MSTORE PUSH1 0x20 ADD PUSH1 0x0 KECCAK256 SLOAD EQ PUSH2 0x94C JUMPI PUSH1 0x40 MLOAD PUSH32 0x8C379A000000000000000000000000000000000000000000000000000000000 DUP2 MSTORE PUSH1 0x4 ADD PUSH2 0x943 SWAP1 PUSH2 0x36AA JUMP JUMPDEST PUSH1 0x40 MLOAD DUP1 SWAP2 SUB SWAP1 REVERT JUMPDEST PUSH2 0x9A2 JUMP JUMPDEST PUSH2 0x962 PUSH2 0x95C PUSH2 0x198C JUMP JUMPDEST DUP3 PUSH2 0x1A4D JUMP JUMPDEST PUSH2 0x9A1 JUMPI PUSH1 0x40 MLOAD PUSH32 0x8C379A000000000000000000000000000000000000000000000000000000000 DUP2 MSTORE PUSH1 0x4 ADD PUSH2 0x998 SWAP1 PUSH2 0x373C JUMP JUMPDEST PUSH1 0x40 MLOAD DUP1 SWAP2 SUB SWAP1 REVERT JUMPDEST JUMPDEST PUSH2 0x9AD DUP4 DUP4 DUP4 PUSH2 0x1B2B JUMP JUMPDEST POP POP POP JUMP JUMPDEST PUSH2 0x9CD DUP4 DUP4 DUP4 PUSH1 0x40 MLOAD DUP1 PUSH1 0x20 ADD PUSH1 0x40 MSTORE DUP1 PUSH1 0x0 DUP2 MSTORE POP PUSH2 0x12E7 JUMP JUMPDEST POP POP POP JUMP JUMPDEST PUSH2 0x9E3 PUSH2 0x9DD PUSH2 0x198C JUMP JUMPDEST DUP3 PUSH2 0x1A4D JUMP JUMPDEST PUSH2 0xA22 JUMPI PUSH1 0x40 MLOAD PUSH32 0x8C379A000000000000000000000000000000000000000000000000000000000 DUP2 MSTORE PUSH1 0x4 ADD PUSH2 0xA19 SWAP1 PUSH2 0x37CE JUMP JUMPDEST PUSH1 0x40 MLOAD DUP1 SWAP2 SUB SWAP1 REVERT JUMPDEST PUSH2 0xA2B DUP2 PUSH2 0x1D92 JUMP JUMPDEST POP JUMP JUMPDEST PUSH2 0xA36 PUSH2 0x198C JUMP JUMPDEST PUSH20 0xFFFFFFFFFFFFFFFFFFFFFFFFFFFFFFFFFFFFFFFF AND PUSH2 0xA54 PUSH2 0x1081 JUMP JUMPDEST PUSH20 0xFFFFFFFFFFFFFFFFFFFFFFFFFFFFFFFFFFFFFFFF AND EQ PUSH2 0xAAA JUMPI PUSH1 0x40 MLOAD PUSH32 0x8C379A000000000000000000000000000000000000000000000000000000000 DUP2 MSTORE PUSH1 0x4 ADD PUSH2 0xAA1 SWAP1 PUSH2 0x383A JUMP JUMPDEST PUSH1 0x40 MLOAD DUP1 SWAP2 SUB SWAP1 REVERT JUMPDEST DUP1 PUSH1 0xFB SWAP1 DUP1 MLOAD SWAP1 PUSH1 0x20 ADD SWAP1 PUSH2 0xAC0 SWAP3 SWAP2 SWAP1 PUSH2 0x2ABC JUMP JUMPDEST POP POP JUMP JUMPDEST PUSH1 0x0 DUP1 PUSH1 0x99 PUSH1 0x0 DUP5 DUP2 MSTORE PUSH1 0x20 ADD SWAP1 DUP2 MSTORE PUSH1 0x20 ADD PUSH1 0x0 KECCAK256 PUSH1 0x0 SWAP1 SLOAD SWAP1 PUSH2 0x100 EXP SWAP1 DIV PUSH20 0xFFFFFFFFFFFFFFFFFFFFFFFFFFFFFFFFFFFFFFFF AND SWAP1 POP PUSH1 0x0 PUSH20 0xFFFFFFFFFFFFFFFFFFFFFFFFFFFFFFFFFFFFFFFF AND DUP2 PUSH20 0xFFFFFFFFFFFFFFFFFFFFFFFFFFFFFFFFFFFFFFFF AND EQ ISZERO PUSH2 0xB6D JUMPI PUSH1 0x40 MLOAD PUSH32 0x8C379A000000000000000000000000000000000000000000000000000000000 DUP2 MSTORE PUSH1 0x4 ADD PUSH2 0xB64 SWAP1 PUSH2 0x38CC JUMP JUMPDEST PUSH1 0x40 MLOAD DUP1 SWAP2 SUB SWAP1 REVERT JUMPDEST DUP1 SWAP2 POP POP SWAP2 SWAP1 POP JUMP JUMPDEST PUSH1 0x1 PUSH1 0xFC PUSH1 0x0 CALLER PUSH20 0xFFFFFFFFFFFFFFFFFFFFFFFFFFFFFFFFFFFFFFFF AND PUSH20 0xFFFFFFFFFFFFFFFFFFFFFFFFFFFFFFFFFFFFFFFF AND DUP2 MSTORE PUSH1 0x20 ADD SWAP1 DUP2 MSTORE PUSH1 0x20 ADD PUSH1 0x0 KECCAK256 SLOAD EQ PUSH2 0xBF8 JUMPI PUSH1 0x40 MLOAD PUSH32 0x8C379A000000000000000000000000000000000000000000000000000000000 DUP2 MSTORE PUSH1 0x4 ADD PUSH2 0xBEF SWAP1 PUSH2 0x3938 JUMP JUMPDEST PUSH1 0x40 MLOAD DUP1 SWAP2 SUB SWAP1 REVERT JUMPDEST PUSH1 0x1 PUSH1 0xFC PUSH1 0x0 DUP4 PUSH20 0xFFFFFFFFFFFFFFFFFFFFFFFFFFFFFFFFFFFFFFFF AND PUSH20 0xFFFFFFFFFFFFFFFFFFFFFFFFFFFFFFFFFFFFFFFF AND DUP2 MSTORE PUSH1 0x20 ADD SWAP1 DUP2 MSTORE PUSH1 0x20 ADD PUSH1 0x0 KECCAK256 DUP2 SWAP1 SSTORE POP POP JUMP JUMPDEST PUSH2 0xC48 PUSH2 0x198C JUMP JUMPDEST PUSH20 0xFFFFFFFFFFFFFFFFFFFFFFFFFFFFFFFFFFFFFFFF AND PUSH2 0xC66 PUSH2 0x1081 JUMP JUMPDEST PUSH20 0xFFFFFFFFFFFFFFFFFFFFFFFFFFFFFFFFFFFFFFFF AND EQ PUSH2 0xCBC JUMPI PUSH1 0x40 MLOAD PUSH32 0x8C379A000000000000000000000000000000000000000000000000000000000 DUP2 MSTORE PUSH1 0x4 ADD PUSH2 0xCB3 SWAP1 PUSH2 0x383A JUMP JUMPDEST PUSH1 0x40 MLOAD DUP1 SWAP2 SUB SWAP1 REVERT JUMPDEST PUSH1 0x1 PUSH1 0xFC PUSH1 0x0 DUP4 PUSH20 0xFFFFFFFFFFFFFFFFFFFFFFFFFFFFFFFFFFFFFFFF AND PUSH20 0xFFFFFFFFFFFFFFFFFFFFFFFFFFFFFFFFFFFFFFFF AND DUP2 MSTORE PUSH1 0x20 ADD SWAP1 DUP2 MSTORE PUSH1 0x20 ADD PUSH1 0x0 KECCAK256 DUP2 SWAP1 SSTORE POP POP JUMP JUMPDEST PUSH1 0x0 DUP1 PUSH20 0xFFFFFFFFFFFFFFFFFFFFFFFFFFFFFFFFFFFFFFFF AND DUP3 PUSH20 0xFFFFFFFFFFFFFFFFFFFFFFFFFFFFFFFFFFFFFFFF AND EQ ISZERO PUSH2 0xD75 JUMPI PUSH1 0x40 MLOAD PUSH32 0x8C379A000000000000000000000000000000000000000000000000000000000 DUP2 MSTORE PUSH1 0x4 ADD PUSH2 0xD6C SWAP1 PUSH2 0x39CA JUMP JUMPDEST PUSH1 0x40 MLOAD DUP1 SWAP2 SUB SWAP1 REVERT JUMPDEST PUSH1 0x9A PUSH1 0x0 DUP4 PUSH20 0xFFFFFFFFFFFFFFFFFFFFFFFFFFFFFFFFFFFFFFFF AND PUSH20 0xFFFFFFFFFFFFFFFFFFFFFFFFFFFFFFFFFFFFFFFF AND DUP2 MSTORE PUSH1 0x20 ADD SWAP1 DUP2 MSTORE PUSH1 0x20 ADD PUSH1 0x0 KECCAK256 SLOAD SWAP1 POP SWAP2 SWAP1 POP JUMP JUMPDEST PUSH2 0xDC4 PUSH2 0x198C JUMP JUMPDEST PUSH20 0xFFFFFFFFFFFFFFFFFFFFFFFFFFFFFFFFFFFFFFFF AND PUSH2 0xDE2 PUSH2 0x1081 JUMP JUMPDEST PUSH20 0xFFFFFFFFFFFFFFFFFFFFFFFFFFFFFFFFFFFFFFFF AND EQ PUSH2 0xE38 JUMPI PUSH1 0x40 MLOAD PUSH32 0x8C379A000000000000000000000000000000000000000000000000000000000 DUP2 MSTORE PUSH1 0x4 ADD PUSH2 0xE2F SWAP1 PUSH2 0x383A JUMP JUMPDEST PUSH1 0x40 MLOAD DUP1 SWAP2 SUB SWAP1 REVERT JUMPDEST PUSH2 0xE42 PUSH1 0x0 PUSH2 0x1DE5 JUMP JUMPDEST JUMP JUMPDEST PUSH1 0x1 PUSH1 0xFC PUSH1 0x0 CALLER PUSH20 0xFFFFFFFFFFFFFFFFFFFFFFFFFFFFFFFFFFFFFFFF AND PUSH20 0xFFFFFFFFFFFFFFFFFFFFFFFFFFFFFFFFFFFFFFFF AND DUP2 MSTORE PUSH1 0x20 ADD SWAP1 DUP2 MSTORE PUSH1 0x20 ADD PUSH1 0x0 KECCAK256 SLOAD EQ PUSH2 0xEC6 JUMPI PUSH1 0x40 MLOAD PUSH32 0x8C379A000000000000000000000000000000000000000000000000000000000 DUP2 MSTORE PUSH1 0x4 ADD PUSH2 0xEBD SWAP1 PUSH2 0x3938 JUMP JUMPDEST PUSH1 0x40 MLOAD DUP1 SWAP2 SUB SWAP1 REVERT JUMPDEST PUSH2 0xED0 DUP3 DUP3 PUSH2 0x1EAB JUMP JUMPDEST POP POP JUMP JUMPDEST PUSH1 0x0 PUSH1 0x1 SWAP1 SLOAD SWAP1 PUSH2 0x100 EXP SWAP1 DIV PUSH1 0xFF AND PUSH2 0xEFC JUMPI PUSH1 0x0 DUP1 SLOAD SWAP1 PUSH2 0x100 EXP SWAP1 DIV PUSH1 0xFF AND ISZERO PUSH2 0xF05 JUMP JUMPDEST PUSH2 0xF04 PUSH2 0x1F13 JUMP JUMPDEST JUMPDEST PUSH2 0xF44 JUMPI PUSH1 0x40 MLOAD PUSH32 0x8C379A000000000000000000000000000000000000000000000000000000000 DUP2 MSTORE PUSH1 0x4 ADD PUSH2 0xF3B SWAP1 PUSH2 0x3A5C JUMP JUMPDEST PUSH1 0x40 MLOAD DUP1 SWAP2 SUB SWAP1 REVERT JUMPDEST PUSH1 0x0 DUP1 PUSH1 0x1 SWAP1 SLOAD SWAP1 PUSH2 0x100 EXP SWAP1 DIV PUSH1 0xFF AND ISZERO SWAP1 POP DUP1 ISZERO PUSH2 0xF94 JUMPI PUSH1 0x1 PUSH1 0x0 PUSH1 0x1 PUSH2 0x100 EXP DUP2 SLOAD DUP2 PUSH1 0xFF MUL NOT AND SWAP1 DUP4 ISZERO ISZERO MUL OR SWAP1 SSTORE POP PUSH1 0x1 PUSH1 0x0 DUP1 PUSH2 0x100 EXP DUP2 SLOAD DUP2 PUSH1 0xFF MUL NOT AND SWAP1 DUP4 ISZERO ISZERO MUL OR SWAP1 SSTORE POP JUMPDEST PUSH1 0x1 PUSH1 0xFC PUSH1 0x0 CALLER PUSH20 0xFFFFFFFFFFFFFFFFFFFFFFFFFFFFFFFFFFFFFFFF AND PUSH20 0xFFFFFFFFFFFFFFFFFFFFFFFFFFFFFFFFFFFFFFFF AND DUP2 MSTORE PUSH1 0x20 ADD SWAP1 DUP2 MSTORE PUSH1 0x20 ADD PUSH1 0x0 KECCAK256 DUP2 SWAP1 SSTORE POP PUSH2 0x104D PUSH1 0x40 MLOAD DUP1 PUSH1 0x40 ADD PUSH1 0x40 MSTORE DUP1 PUSH1 0x9 DUP2 MSTORE PUSH1 0x20 ADD PUSH32 0x746F70686F6C6465720000000000000000000000000000000000000000000000 DUP2 MSTORE POP PUSH1 0x40 MLOAD DUP1 PUSH1 0x40 ADD PUSH1 0x40 MSTORE DUP1 PUSH1 0x2 DUP2 MSTORE PUSH1 0x20 ADD PUSH32 0x5450000000000000000000000000000000000000000000000000000000000000 DUP2 MSTORE POP PUSH2 0x1F24 JUMP JUMPDEST PUSH2 0x1055 PUSH2 0x1F81 JUMP JUMPDEST PUSH2 0x105D PUSH2 0x1FD2 JUMP JUMPDEST DUP1 ISZERO PUSH2 0x107E JUMPI PUSH1 0x0 DUP1 PUSH1 0x1 PUSH2 0x100 EXP DUP2 SLOAD DUP2 PUSH1 0xFF MUL NOT AND SWAP1 DUP4 ISZERO ISZERO MUL OR SWAP1 SSTORE POP JUMPDEST POP JUMP JUMPDEST PUSH1 0x0 PUSH1 0x33 PUSH1 0x0 SWAP1 SLOAD SWAP1 PUSH2 0x100 EXP SWAP1 DIV PUSH20 0xFFFFFFFFFFFFFFFFFFFFFFFFFFFFFFFFFFFFFFFF AND SWAP1 POP SWAP1 JUMP JUMPDEST PUSH1 0x1 PUSH1 0xFC PUSH1 0x0 CALLER PUSH20 0xFFFFFFFFFFFFFFFFFFFFFFFFFFFFFFFFFFFFFFFF AND PUSH20 0xFFFFFFFFFFFFFFFFFFFFFFFFFFFFFFFFFFFFFFFF AND DUP2 MSTORE PUSH1 0x20 ADD SWAP1 DUP2 MSTORE PUSH1 0x20 ADD PUSH1 0x0 KECCAK256 SLOAD EQ PUSH2 0x112D JUMPI PUSH1 0x40 MLOAD PUSH32 0x8C379A000000000000000000000000000000000000000000000000000000000 DUP2 MSTORE PUSH1 0x4 ADD PUSH2 0x1124 SWAP1 PUSH2 0x3938 JUMP JUMPDEST PUSH1 0x40 MLOAD DUP1 SWAP2 SUB SWAP1 REVERT JUMPDEST PUSH1 0x0 PUSH1 0xFE PUSH1 0x0 DUP4 PUSH20 0xFFFFFFFFFFFFFFFFFFFFFFFFFFFFFFFFFFFFFFFF AND PUSH20 0xFFFFFFFFFFFFFFFFFFFFFFFFFFFFFFFFFFFFFFFF AND DUP2 MSTORE PUSH1 0x20 ADD SWAP1 DUP2 MSTORE PUSH1 0x20 ADD PUSH1 0x0 KECCAK256 DUP2 SWAP1 SSTORE POP POP JUMP JUMPDEST PUSH1 0x60 PUSH1 0x98 DUP1 SLOAD PUSH2 0x1184 SWAP1 PUSH2 0x3450 JUMP JUMPDEST DUP1 PUSH1 0x1F ADD PUSH1 0x20 DUP1 SWAP2 DIV MUL PUSH1 0x20 ADD PUSH1 0x40 MLOAD SWAP1 DUP2 ADD PUSH1 0x40 MSTORE DUP1 SWAP3 SWAP2 SWAP1 DUP2 DUP2 MSTORE PUSH1 0x20 ADD DUP3 DUP1 SLOAD PUSH2 0x11B0 SWAP1 PUSH2 0x3450 JUMP JUMPDEST DUP1 ISZERO PUSH2 0x11FD JUMPI DUP1 PUSH1 0x1F LT PUSH2 0x11D2 JUMPI PUSH2 0x100 DUP1 DUP4 SLOAD DIV MUL DUP4 MSTORE SWAP2 PUSH1 0x20 ADD SWAP2 PUSH2 0x11FD JUMP JUMPDEST DUP3 ADD SWAP2 SWAP1 PUSH1 0x0 MSTORE PUSH1 0x20 PUSH1 0x0 KECCAK256 SWAP1 JUMPDEST DUP2 SLOAD DUP2 MSTORE SWAP1 PUSH1 0x1 ADD SWAP1 PUSH1 0x20 ADD DUP1 DUP4 GT PUSH2 0x11E0 JUMPI DUP3 SWAP1 SUB PUSH1 0x1F AND DUP3 ADD SWAP2 JUMPDEST POP POP POP POP POP SWAP1 POP SWAP1 JUMP JUMPDEST PUSH1 0x1 PUSH1 0xFC PUSH1 0x0 CALLER PUSH20 0xFFFFFFFFFFFFFFFFFFFFFFFFFFFFFFFFFFFFFFFF AND PUSH20 0xFFFFFFFFFFFFFFFFFFFFFFFFFFFFFFFFFFFFFFFF AND DUP2 MSTORE PUSH1 0x20 ADD SWAP1 DUP2 MSTORE PUSH1 0x20 ADD PUSH1 0x0 KECCAK256 SLOAD EQ PUSH2 0x1289 JUMPI PUSH1 0x40 MLOAD PUSH32 0x8C379A000000000000000000000000000000000000000000000000000000000 DUP2 MSTORE PUSH1 0x4 ADD PUSH2 0x1280 SWAP1 PUSH2 0x3938 JUMP JUMPDEST PUSH1 0x40 MLOAD DUP1 SWAP2 SUB SWAP1 REVERT JUMPDEST PUSH1 0x0 PUSH1 0xFC PUSH1 0x0 DUP4 PUSH20 0xFFFFFFFFFFFFFFFFFFFFFFFFFFFFFFFFFFFFFFFF AND PUSH20 0xFFFFFFFFFFFFFFFFFFFFFFFFFFFFFFFFFFFFFFFF AND DUP2 MSTORE PUSH1 0x20 ADD SWAP1 DUP2 MSTORE PUSH1 0x20 ADD PUSH1 0x0 KECCAK256 DUP2 SWAP1 SSTORE POP POP JUMP JUMPDEST PUSH2 0x12E3 PUSH2 0x12DC PUSH2 0x198C JUMP JUMPDEST DUP4 DUP4 PUSH2 0x202B JUMP JUMPDEST POP POP JUMP JUMPDEST PUSH1 0x1 ISZERO ISZERO PUSH1 0xFD PUSH1 0x0 DUP5 DUP2 MSTORE PUSH1 0x20 ADD SWAP1 DUP2 MSTORE PUSH1 0x20 ADD PUSH1 0x0 KECCAK256 PUSH1 0x0 SWAP1 SLOAD SWAP1 PUSH2 0x100 EXP SWAP1 DIV PUSH1 0xFF AND ISZERO ISZERO EQ ISZERO PUSH2 0x136C JUMPI PUSH1 0x1 PUSH1 0xFE PUSH1 0x0 PUSH2 0x1322 PUSH2 0x198C JUMP JUMPDEST PUSH20 0xFFFFFFFFFFFFFFFFFFFFFFFFFFFFFFFFFFFFFFFF AND PUSH20 0xFFFFFFFFFFFFFFFFFFFFFFFFFFFFFFFFFFFFFFFF AND DUP2 MSTORE PUSH1 0x20 ADD SWAP1 DUP2 MSTORE PUSH1 0x20 ADD PUSH1 0x0 KECCAK256 SLOAD EQ PUSH2 0x1367 JUMPI PUSH1 0x0 DUP1 REVERT JUMPDEST PUSH2 0x13BD JUMP JUMPDEST PUSH2 0x137D PUSH2 0x1377 PUSH2 0x198C JUMP JUMPDEST DUP4 PUSH2 0x1A4D JUMP JUMPDEST PUSH2 0x13BC JUMPI PUSH1 0x40 MLOAD PUSH32 0x8C379A000000000000000000000000000000000000000000000000000000000 DUP2 MSTORE PUSH1 0x4 ADD PUSH2 0x13B3 SWAP1 PUSH2 0x373C JUMP JUMPDEST PUSH1 0x40 MLOAD DUP1 SWAP2 SUB SWAP1 REVERT JUMPDEST JUMPDEST PUSH2 0x13C9 DUP5 DUP5 DUP5 DUP5 PUSH2 0x2198 JUMP JUMPDEST POP POP POP POP JUMP JUMPDEST PUSH1 0x1 PUSH1 0xFC PUSH1 0x0 CALLER PUSH20 0xFFFFFFFFFFFFFFFFFFFFFFFFFFFFFFFFFFFFFFFF AND PUSH20 0xFFFFFFFFFFFFFFFFFFFFFFFFFFFFFFFFFFFFFFFF AND DUP2 MSTORE PUSH1 0x20 ADD SWAP1 DUP2 MSTORE PUSH1 0x20 ADD PUSH1 0x0 KECCAK256 SLOAD EQ PUSH2 0x1451 JUMPI PUSH1 0x40 MLOAD PUSH32 0x8C379A000000000000000000000000000000000000000000000000000000000 DUP2 MSTORE PUSH1 0x4 ADD PUSH2 0x1448 SWAP1 PUSH2 0x3938 JUMP JUMPDEST PUSH1 0x40 MLOAD DUP1 SWAP2 SUB SWAP1 REVERT JUMPDEST PUSH1 0x1 PUSH1 0xFE PUSH1 0x0 DUP4 PUSH20 0xFFFFFFFFFFFFFFFFFFFFFFFFFFFFFFFFFFFFFFFF AND PUSH20 0xFFFFFFFFFFFFFFFFFFFFFFFFFFFFFFFFFFFFFFFF AND DUP2 MSTORE PUSH1 0x20 ADD SWAP1 DUP2 MSTORE PUSH1 0x20 ADD PUSH1 0x0 KECCAK256 DUP2 SWAP1 SSTORE POP POP JUMP JUMPDEST PUSH2 0x14A1 PUSH2 0x198C JUMP JUMPDEST PUSH20 0xFFFFFFFFFFFFFFFFFFFFFFFFFFFFFFFFFFFFFFFF AND PUSH2 0x14BF PUSH2 0x1081 JUMP JUMPDEST PUSH20 0xFFFFFFFFFFFFFFFFFFFFFFFFFFFFFFFFFFFFFFFF AND EQ PUSH2 0x1515 JUMPI PUSH1 0x40 MLOAD PUSH32 0x8C379A000000000000000000000000000000000000000000000000000000000 DUP2 MSTORE PUSH1 0x4 ADD PUSH2 0x150C SWAP1 PUSH2 0x383A JUMP JUMPDEST PUSH1 0x40 MLOAD DUP1 SWAP2 SUB SWAP1 REVERT JUMPDEST DUP1 PUSH1 0xFF SWAP1 DUP1 MLOAD SWAP1 PUSH1 0x20 ADD SWAP1 PUSH2 0x152B SWAP3 SWAP2 SWAP1 PUSH2 0x2ABC JUMP JUMPDEST POP POP JUMP JUMPDEST PUSH2 0x153A DUP5 DUP5 DUP4 PUSH2 0x21F4 JUMP JUMPDEST PUSH2 0x1544 DUP4 DUP4 PUSH2 0x23FA JUMP JUMPDEST POP POP POP POP JUMP JUMPDEST PUSH1 0x60 PUSH2 0x1555 DUP3 PUSH2 0x1920 JUMP JUMPDEST PUSH2 0x1594 JUMPI PUSH1 0x40 MLOAD PUSH32 0x8C379A000000000000000000000000000000000000000000000000000000000 DUP2 MSTORE PUSH1 0x4 ADD PUSH2 0x158B SWAP1 PUSH2 0x3AEE JUMP JUMPDEST PUSH1 0x40 MLOAD DUP1 SWAP2 SUB SWAP1 REVERT JUMPDEST PUSH1 0x0 PUSH1 0xC9 PUSH1 0x0 DUP5 DUP2 MSTORE PUSH1 0x20 ADD SWAP1 DUP2 MSTORE PUSH1 0x20 ADD PUSH1 0x0 KECCAK256 DUP1 SLOAD PUSH2 0x15B4 SWAP1 PUSH2 0x3450 JUMP JUMPDEST DUP1 PUSH1 0x1F ADD PUSH1 0x20 DUP1 SWAP2 DIV MUL PUSH1 0x20 ADD PUSH1 0x40 MLOAD SWAP1 DUP2 ADD PUSH1 0x40 MSTORE DUP1 SWAP3 SWAP2 SWAP1 DUP2 DUP2 MSTORE PUSH1 0x20 ADD DUP3 DUP1 SLOAD PUSH2 0x15E0 SWAP1 PUSH2 0x3450 JUMP JUMPDEST DUP1 ISZERO PUSH2 0x162D JUMPI DUP1 PUSH1 0x1F LT PUSH2 0x1602 JUMPI PUSH2 0x100 DUP1 DUP4 SLOAD DIV MUL DUP4 MSTORE SWAP2 PUSH1 0x20 ADD SWAP2 PUSH2 0x162D JUMP JUMPDEST DUP3 ADD SWAP2 SWAP1 PUSH1 0x0 MSTORE PUSH1 0x20 PUSH1 0x0 KECCAK256 SWAP1 JUMPDEST DUP2 SLOAD DUP2 MSTORE SWAP1 PUSH1 0x1 ADD SWAP1 PUSH1 0x20 ADD DUP1 DUP4 GT PUSH2 0x1610 JUMPI DUP3 SWAP1 SUB PUSH1 0x1F AND DUP3 ADD SWAP2 JUMPDEST POP POP POP POP POP SWAP1 POP PUSH1 0x0 PUSH2 0x163E PUSH2 0x246E JUMP JUMPDEST SWAP1 POP PUSH1 0x0 DUP2 MLOAD EQ ISZERO PUSH2 0x1654 JUMPI DUP2 SWAP3 POP POP POP PUSH2 0x1697 JUMP JUMPDEST PUSH1 0x0 DUP3 MLOAD GT ISZERO PUSH2 0x1689 JUMPI DUP1 DUP3 PUSH1 0x40 MLOAD PUSH1 0x20 ADD PUSH2 0x1671 SWAP3 SWAP2 SWAP1 PUSH2 0x3B4A JUMP JUMPDEST PUSH1 0x40 MLOAD PUSH1 0x20 DUP2 DUP4 SUB SUB DUP2 MSTORE SWAP1 PUSH1 0x40 MSTORE SWAP3 POP POP POP PUSH2 0x1697 JUMP JUMPDEST PUSH2 0x1692 DUP5 PUSH2 0x2500 JUMP JUMPDEST SWAP3 POP POP POP JUMPDEST SWAP2 SWAP1 POP JUMP JUMPDEST PUSH1 0x0 PUSH1 0x9C PUSH1 0x0 DUP5 PUSH20 0xFFFFFFFFFFFFFFFFFFFFFFFFFFFFFFFFFFFFFFFF AND PUSH20 0xFFFFFFFFFFFFFFFFFFFFFFFFFFFFFFFFFFFFFFFF AND DUP2 MSTORE PUSH1 0x20 ADD SWAP1 DUP2 MSTORE PUSH1 0x20 ADD PUSH1 0x0 KECCAK256 PUSH1 0x0 DUP4 PUSH20 0xFFFFFFFFFFFFFFFFFFFFFFFFFFFFFFFFFFFFFFFF AND PUSH20 0xFFFFFFFFFFFFFFFFFFFFFFFFFFFFFFFFFFFFFFFF AND DUP2 MSTORE PUSH1 0x20 ADD SWAP1 DUP2 MSTORE PUSH1 0x20 ADD PUSH1 0x0 KECCAK256 PUSH1 0x0 SWAP1 SLOAD SWAP1 PUSH2 0x100 EXP SWAP1 DIV PUSH1 0xFF AND SWAP1 POP SWAP3 SWAP2 POP POP JUMP JUMPDEST PUSH2 0x1738 PUSH2 0x198C JUMP JUMPDEST PUSH20 0xFFFFFFFFFFFFFFFFFFFFFFFFFFFFFFFFFFFFFFFF AND PUSH2 0x1756 PUSH2 0x1081 JUMP JUMPDEST PUSH20 0xFFFFFFFFFFFFFFFFFFFFFFFFFFFFFFFFFFFFFFFF AND EQ PUSH2 0x17AC JUMPI PUSH1 0x40 MLOAD PUSH32 0x8C379A000000000000000000000000000000000000000000000000000000000 DUP2 MSTORE PUSH1 0x4 ADD PUSH2 0x17A3 SWAP1 PUSH2 0x383A JUMP JUMPDEST PUSH1 0x40 MLOAD DUP1 SWAP2 SUB SWAP1 REVERT JUMPDEST PUSH1 0x0 PUSH20 0xFFFFFFFFFFFFFFFFFFFFFFFFFFFFFFFFFFFFFFFF AND DUP2 PUSH20 0xFFFFFFFFFFFFFFFFFFFFFFFFFFFFFFFFFFFFFFFF AND EQ ISZERO PUSH2 0x181C JUMPI PUSH1 0x40 MLOAD PUSH32 0x8C379A000000000000000000000000000000000000000000000000000000000 DUP2 MSTORE PUSH1 0x4 ADD PUSH2 0x1813 SWAP1 PUSH2 0x3BE0 JUMP JUMPDEST PUSH1 0x40 MLOAD DUP1 SWAP2 SUB SWAP1 REVERT JUMPDEST PUSH2 0x1825 DUP2 PUSH2 0x1DE5 JUMP JUMPDEST POP JUMP JUMPDEST PUSH1 0xFF DUP1 SLOAD PUSH2 0x1835 SWAP1 PUSH2 0x3450 JUMP JUMPDEST DUP1 PUSH1 0x1F ADD PUSH1 0x20 DUP1 SWAP2 DIV MUL PUSH1 0x20 ADD PUSH1 0x40 MLOAD SWAP1 DUP2 ADD PUSH1 0x40 MSTORE DUP1 SWAP3 SWAP2 SWAP1 DUP2 DUP2 MSTORE PUSH1 0x20 ADD DUP3 DUP1 SLOAD PUSH2 0x1861 SWAP1 PUSH2 0x3450 JUMP JUMPDEST DUP1 ISZERO PUSH2 0x18AE JUMPI DUP1 PUSH1 0x1F LT PUSH2 0x1883 JUMPI PUSH2 0x100 DUP1 DUP4 SLOAD DIV MUL DUP4 MSTORE SWAP2 PUSH1 0x20 ADD SWAP2 PUSH2 0x18AE JUMP JUMPDEST DUP3 ADD SWAP2 SWAP1 PUSH1 0x0 MSTORE PUSH1 0x20 PUSH1 0x0 KECCAK256 SWAP1 JUMPDEST DUP2 SLOAD DUP2 MSTORE SWAP1 PUSH1 0x1 ADD SWAP1 PUSH1 0x20 ADD DUP1 DUP4 GT PUSH2 0x1891 JUMPI DUP3 SWAP1 SUB PUSH1 0x1F AND DUP3 ADD SWAP2 JUMPDEST POP POP POP POP POP DUP2 JUMP JUMPDEST PUSH1 0x0 PUSH32 0x1FFC9A700000000000000000000000000000000000000000000000000000000 PUSH28 0xFFFFFFFFFFFFFFFFFFFFFFFFFFFFFFFFFFFFFFFFFFFFFFFFFFFFFFFF NOT AND DUP3 PUSH28 0xFFFFFFFFFFFFFFFFFFFFFFFFFFFFFFFFFFFFFFFFFFFFFFFFFFFFFFFF NOT AND EQ SWAP1 POP SWAP2 SWAP1 POP JUMP JUMPDEST PUSH1 0x0 DUP1 PUSH20 0xFFFFFFFFFFFFFFFFFFFFFFFFFFFFFFFFFFFFFFFF AND PUSH1 0x99 PUSH1 0x0 DUP5 DUP2 MSTORE PUSH1 0x20 ADD SWAP1 DUP2 MSTORE PUSH1 0x20 ADD PUSH1 0x0 KECCAK256 PUSH1 0x0 SWAP1 SLOAD SWAP1 PUSH2 0x100 EXP SWAP1 DIV PUSH20 0xFFFFFFFFFFFFFFFFFFFFFFFFFFFFFFFFFFFFFFFF AND PUSH20 0xFFFFFFFFFFFFFFFFFFFFFFFFFFFFFFFFFFFFFFFF AND EQ ISZERO SWAP1 POP SWAP2 SWAP1 POP JUMP JUMPDEST PUSH1 0x0 CALLER SWAP1 POP SWAP1 JUMP JUMPDEST DUP2 PUSH1 0x9B PUSH1 0x0 DUP4 DUP2 MSTORE PUSH1 0x20 ADD SWAP1 DUP2 MSTORE PUSH1 0x20 ADD PUSH1 0x0 KECCAK256 PUSH1 0x0 PUSH2 0x100 EXP DUP2 SLOAD DUP2 PUSH20 0xFFFFFFFFFFFFFFFFFFFFFFFFFFFFFFFFFFFFFFFF MUL NOT AND SWAP1 DUP4 PUSH20 0xFFFFFFFFFFFFFFFFFFFFFFFFFFFFFFFFFFFFFFFF AND MUL OR SWAP1 SSTORE POP DUP1 DUP3 PUSH20 0xFFFFFFFFFFFFFFFFFFFFFFFFFFFFFFFFFFFFFFFF AND PUSH2 0x1A07 DUP4 PUSH2 0xAC4 JUMP JUMPDEST PUSH20 0xFFFFFFFFFFFFFFFFFFFFFFFFFFFFFFFFFFFFFFFF AND PUSH32 0x8C5BE1E5EBEC7D5BD14F71427D1E84F3DD0314C0F7B2291E5B200AC8C7C3B925 PUSH1 0x40 MLOAD PUSH1 0x40 MLOAD DUP1 SWAP2 SUB SWAP1 LOG4 POP POP JUMP JUMPDEST PUSH1 0x0 PUSH2 0x1A58 DUP3 PUSH2 0x1920 JUMP JUMPDEST PUSH2 0x1A97 JUMPI PUSH1 0x40 MLOAD PUSH32 0x8C379A000000000000000000000000000000000000000000000000000000000 DUP2 MSTORE PUSH1 0x4 ADD PUSH2 0x1A8E SWAP1 PUSH2 0x3C72 JUMP JUMPDEST PUSH1 0x40 MLOAD DUP1 SWAP2 SUB SWAP1 REVERT JUMPDEST PUSH1 0x0 PUSH2 0x1AA2 DUP4 PUSH2 0xAC4 JUMP JUMPDEST SWAP1 POP DUP1 PUSH20 0xFFFFFFFFFFFFFFFFFFFFFFFFFFFFFFFFFFFFFFFF AND DUP5 PUSH20 0xFFFFFFFFFFFFFFFFFFFFFFFFFFFFFFFFFFFFFFFF AND EQ DUP1 PUSH2 0x1B11 JUMPI POP DUP4 PUSH20 0xFFFFFFFFFFFFFFFFFFFFFFFFFFFFFFFFFFFFFFFF AND PUSH2 0x1AF9 DUP5 PUSH2 0x6E4 JUMP JUMPDEST PUSH20 0xFFFFFFFFFFFFFFFFFFFFFFFFFFFFFFFFFFFFFFFF AND EQ JUMPDEST DUP1 PUSH2 0x1B22 JUMPI POP PUSH2 0x1B21 DUP2 DUP6 PUSH2 0x169C JUMP JUMPDEST JUMPDEST SWAP2 POP POP SWAP3 SWAP2 POP POP JUMP JUMPDEST DUP3 PUSH20 0xFFFFFFFFFFFFFFFFFFFFFFFFFFFFFFFFFFFFFFFF AND PUSH2 0x1B4B DUP3 PUSH2 0xAC4 JUMP JUMPDEST PUSH20 0xFFFFFFFFFFFFFFFFFFFFFFFFFFFFFFFFFFFFFFFF AND EQ PUSH2 0x1BA1 JUMPI PUSH1 0x40 MLOAD PUSH32 0x8C379A000000000000000000000000000000000000000000000000000000000 DUP2 MSTORE PUSH1 0x4 ADD PUSH2 0x1B98 SWAP1 PUSH2 0x3D04 JUMP JUMPDEST PUSH1 0x40 MLOAD DUP1 SWAP2 SUB SWAP1 REVERT JUMPDEST PUSH1 0x0 PUSH20 0xFFFFFFFFFFFFFFFFFFFFFFFFFFFFFFFFFFFFFFFF AND DUP3 PUSH20 0xFFFFFFFFFFFFFFFFFFFFFFFFFFFFFFFFFFFFFFFF AND EQ ISZERO PUSH2 0x1C11 JUMPI PUSH1 0x40 MLOAD PUSH32 0x8C379A000000000000000000000000000000000000000000000000000000000 DUP2 MSTORE PUSH1 0x4 ADD PUSH2 0x1C08 SWAP1 PUSH2 0x3D96 JUMP JUMPDEST PUSH1 0x40 MLOAD DUP1 SWAP2 SUB SWAP1 REVERT JUMPDEST PUSH2 0x1C1C DUP4 DUP4 DUP4 PUSH2 0x25A7 JUMP JUMPDEST PUSH2 0x1C27 PUSH1 0x0 DUP3 PUSH2 0x1994 JUMP JUMPDEST PUSH1 0x1 PUSH1 0x9A PUSH1 0x0 DUP6 PUSH20 0xFFFFFFFFFFFFFFFFFFFFFFFFFFFFFFFFFFFFFFFF AND PUSH20 0xFFFFFFFFFFFFFFFFFFFFFFFFFFFFFFFFFFFFFFFF AND DUP2 MSTORE PUSH1 0x20 ADD SWAP1 DUP2 MSTORE PUSH1 0x20 ADD PUSH1 0x0 KECCAK256 PUSH1 0x0 DUP3 DUP3 SLOAD PUSH2 0x1C77 SWAP2 SWAP1 PUSH2 0x3DE5 JUMP JUMPDEST SWAP3 POP POP DUP2 SWAP1 SSTORE POP PUSH1 0x1 PUSH1 0x9A PUSH1 0x0 DUP5 PUSH20 0xFFFFFFFFFFFFFFFFFFFFFFFFFFFFFFFFFFFFFFFF AND PUSH20 0xFFFFFFFFFFFFFFFFFFFFFFFFFFFFFFFFFFFFFFFF AND DUP2 MSTORE PUSH1 0x20 ADD SWAP1 DUP2 MSTORE PUSH1 0x20 ADD PUSH1 0x0 KECCAK256 PUSH1 0x0 DUP3 DUP3 SLOAD PUSH2 0x1CCE SWAP2 SWAP1 PUSH2 0x3E19 JUMP JUMPDEST SWAP3 POP POP DUP2 SWAP1 SSTORE POP DUP2 PUSH1 0x99 PUSH1 0x0 DUP4 DUP2 MSTORE PUSH1 0x20 ADD SWAP1 DUP2 MSTORE PUSH1 0x20 ADD PUSH1 0x0 KECCAK256 PUSH1 0x0 PUSH2 0x100 EXP DUP2 SLOAD DUP2 PUSH20 0xFFFFFFFFFFFFFFFFFFFFFFFFFFFFFFFFFFFFFFFF MUL NOT AND SWAP1 DUP4 PUSH20 0xFFFFFFFFFFFFFFFFFFFFFFFFFFFFFFFFFFFFFFFF AND MUL OR SWAP1 SSTORE POP DUP1 DUP3 PUSH20 0xFFFFFFFFFFFFFFFFFFFFFFFFFFFFFFFFFFFFFFFF AND DUP5 PUSH20 0xFFFFFFFFFFFFFFFFFFFFFFFFFFFFFFFFFFFFFFFF AND PUSH32 0xDDF252AD1BE2C89B69C2B068FC378DAA952BA7F163C4A11628F55A4DF523B3EF PUSH1 0x40 MLOAD PUSH1 0x40 MLOAD DUP1 SWAP2 SUB SWAP1 LOG4 PUSH2 0x1D8D DUP4 DUP4 DUP4 PUSH2 0x25AC JUMP JUMPDEST POP POP POP JUMP JUMPDEST PUSH2 0x1D9B DUP2 PUSH2 0x25B1 JUMP JUMPDEST PUSH1 0x0 PUSH1 0xC9 PUSH1 0x0 DUP4 DUP2 MSTORE PUSH1 0x20 ADD SWAP1 DUP2 MSTORE PUSH1 0x20 ADD PUSH1 0x0 KECCAK256 DUP1 SLOAD PUSH2 0x1DBB SWAP1 PUSH2 0x3450 JUMP JUMPDEST SWAP1 POP EQ PUSH2 0x1DE2 JUMPI PUSH1 0xC9 PUSH1 0x0 DUP3 DUP2 MSTORE PUSH1 0x20 ADD SWAP1 DUP2 MSTORE PUSH1 0x20 ADD PUSH1 0x0 KECCAK256 PUSH1 0x0 PUSH2 0x1DE1 SWAP2 SWAP1 PUSH2 0x2B42 JUMP JUMPDEST JUMPDEST POP JUMP JUMPDEST PUSH1 0x0 PUSH1 0x33 PUSH1 0x0 SWAP1 SLOAD SWAP1 PUSH2 0x100 EXP SWAP1 DIV PUSH20 0xFFFFFFFFFFFFFFFFFFFFFFFFFFFFFFFFFFFFFFFF AND SWAP1 POP DUP2 PUSH1 0x33 PUSH1 0x0 PUSH2 0x100 EXP DUP2 SLOAD DUP2 PUSH20 0xFFFFFFFFFFFFFFFFFFFFFFFFFFFFFFFFFFFFFFFF MUL NOT AND SWAP1 DUP4 PUSH20 0xFFFFFFFFFFFFFFFFFFFFFFFFFFFFFFFFFFFFFFFF AND MUL OR SWAP1 SSTORE POP DUP2 PUSH20 0xFFFFFFFFFFFFFFFFFFFFFFFFFFFFFFFFFFFFFFFF AND DUP2 PUSH20 0xFFFFFFFFFFFFFFFFFFFFFFFFFFFFFFFFFFFFFFFF AND PUSH32 0x8BE0079C531659141344CD1FD0A4F28419497F9722A3DAAFE3B4186F6B6457E0 PUSH1 0x40 MLOAD PUSH1 0x40 MLOAD DUP1 SWAP2 SUB SWAP1 LOG3 POP POP JUMP JUMPDEST DUP1 PUSH1 0xFD PUSH1 0x0 DUP5 DUP2 MSTORE PUSH1 0x20 ADD SWAP1 DUP2 MSTORE PUSH1 0x20 ADD PUSH1 0x0 KECCAK256 PUSH1 0x0 PUSH2 0x100 EXP DUP2 SLOAD DUP2 PUSH1 0xFF MUL NOT AND SWAP1 DUP4 ISZERO ISZERO MUL OR SWAP1 SSTORE POP PUSH32 0x771F1D1DAA3CCA46394B02D1373B06948F241B5B7E948A11CBBF6A2A90DBCB2B DUP3 DUP3 PUSH1 0x40 MLOAD PUSH2 0x1F07 SWAP3 SWAP2 SWAP1 PUSH2 0x3E6F JUMP JUMPDEST PUSH1 0x40 MLOAD DUP1 SWAP2 SUB SWAP1 LOG1 POP POP JUMP JUMPDEST PUSH1 0x0 PUSH2 0x1F1E ADDRESS PUSH2 0x26CE JUMP JUMPDEST ISZERO SWAP1 POP SWAP1 JUMP JUMPDEST PUSH1 0x0 PUSH1 0x1 SWAP1 SLOAD SWAP1 PUSH2 0x100 EXP SWAP1 DIV PUSH1 0xFF AND PUSH2 0x1F73 JUMPI PUSH1 0x40 MLOAD PUSH32 0x8C379A000000000000000000000000000000000000000000000000000000000 DUP2 MSTORE PUSH1 0x4 ADD PUSH2 0x1F6A SWAP1 PUSH2 0x3F0A JUMP JUMPDEST PUSH1 0x40 MLOAD DUP1 SWAP2 SUB SWAP1 REVERT JUMPDEST PUSH2 0x1F7D DUP3 DUP3 PUSH2 0x26F1 JUMP JUMPDEST POP POP JUMP JUMPDEST PUSH1 0x0 PUSH1 0x1 SWAP1 SLOAD SWAP1 PUSH2 0x100 EXP SWAP1 DIV PUSH1 0xFF AND PUSH2 0x1FD0 JUMPI PUSH1 0x40 MLOAD PUSH32 0x8C379A000000000000000000000000000000000000000000000000000000000 DUP2 MSTORE PUSH1 0x4 ADD PUSH2 0x1FC7 SWAP1 PUSH2 0x3F0A JUMP JUMPDEST PUSH1 0x40 MLOAD DUP1 SWAP2 SUB SWAP1 REVERT JUMPDEST JUMP JUMPDEST PUSH1 0x0 PUSH1 0x1 SWAP1 SLOAD SWAP1 PUSH2 0x100 EXP SWAP1 DIV PUSH1 0xFF AND PUSH2 0x2021 JUMPI PUSH1 0x40 MLOAD PUSH32 0x8C379A000000000000000000000000000000000000000000000000000000000 DUP2 MSTORE PUSH1 0x4 ADD PUSH2 0x2018 SWAP1 PUSH2 0x3F0A JUMP JUMPDEST PUSH1 0x40 MLOAD DUP1 SWAP2 SUB SWAP1 REVERT JUMPDEST PUSH2 0x2029 PUSH2 0x2772 JUMP JUMPDEST JUMP JUMPDEST DUP2 PUSH20 0xFFFFFFFFFFFFFFFFFFFFFFFFFFFFFFFFFFFFFFFF AND DUP4 PUSH20 0xFFFFFFFFFFFFFFFFFFFFFFFFFFFFFFFFFFFFFFFF AND EQ ISZERO PUSH2 0x209A JUMPI PUSH1 0x40 MLOAD PUSH32 0x8C379A000000000000000000000000000000000000000000000000000000000 DUP2 MSTORE PUSH1 0x4 ADD PUSH2 0x2091 SWAP1 PUSH2 0x3F76 JUMP JUMPDEST PUSH1 0x40 MLOAD DUP1 SWAP2 SUB SWAP1 REVERT JUMPDEST DUP1 PUSH1 0x9C PUSH1 0x0 DUP6 PUSH20 0xFFFFFFFFFFFFFFFFFFFFFFFFFFFFFFFFFFFFFFFF AND PUSH20 0xFFFFFFFFFFFFFFFFFFFFFFFFFFFFFFFFFFFFFFFF AND DUP2 MSTORE PUSH1 0x20 ADD SWAP1 DUP2 MSTORE PUSH1 0x20 ADD PUSH1 0x0 KECCAK256 PUSH1 0x0 DUP5 PUSH20 0xFFFFFFFFFFFFFFFFFFFFFFFFFFFFFFFFFFFFFFFF AND PUSH20 0xFFFFFFFFFFFFFFFFFFFFFFFFFFFFFFFFFFFFFFFF AND DUP2 MSTORE PUSH1 0x20 ADD SWAP1 DUP2 MSTORE PUSH1 0x20 ADD PUSH1 0x0 KECCAK256 PUSH1 0x0 PUSH2 0x100 EXP DUP2 SLOAD DUP2 PUSH1 0xFF MUL NOT AND SWAP1 DUP4 ISZERO ISZERO MUL OR SWAP1 SSTORE POP DUP2 PUSH20 0xFFFFFFFFFFFFFFFFFFFFFFFFFFFFFFFFFFFFFFFF AND DUP4 PUSH20 0xFFFFFFFFFFFFFFFFFFFFFFFFFFFFFFFFFFFFFFFF AND PUSH32 0x17307EAB39AB6107E8899845AD3D59BD9653F200F220920489CA2B5937696C31 DUP4 PUSH1 0x40 MLOAD PUSH2 0x218B SWAP2 SWAP1 PUSH2 0x2C53 JUMP JUMPDEST PUSH1 0x40 MLOAD DUP1 SWAP2 SUB SWAP1 LOG3 POP POP POP JUMP JUMPDEST PUSH2 0x21A3 DUP5 DUP5 DUP5 PUSH2 0x1B2B JUMP JUMPDEST PUSH2 0x21AF DUP5 DUP5 DUP5 DUP5 PUSH2 0x27D3 JUMP JUMPDEST PUSH2 0x21EE JUMPI PUSH1 0x40 MLOAD PUSH32 0x8C379A000000000000000000000000000000000000000000000000000000000 DUP2 MSTORE PUSH1 0x4 ADD PUSH2 0x21E5 SWAP1 PUSH2 0x4008 JUMP JUMPDEST PUSH1 0x40 MLOAD DUP1 SWAP2 SUB SWAP1 REVERT JUMPDEST POP POP POP POP JUMP JUMPDEST PUSH1 0x0 PUSH20 0xFFFFFFFFFFFFFFFFFFFFFFFFFFFFFFFFFFFFFFFF AND DUP4 PUSH20 0xFFFFFFFFFFFFFFFFFFFFFFFFFFFFFFFFFFFFFFFF AND EQ ISZERO PUSH2 0x2264 JUMPI PUSH1 0x40 MLOAD PUSH32 0x8C379A000000000000000000000000000000000000000000000000000000000 DUP2 MSTORE PUSH1 0x4 ADD PUSH2 0x225B SWAP1 PUSH2 0x4074 JUMP JUMPDEST PUSH1 0x40 MLOAD DUP1 SWAP2 SUB SWAP1 REVERT JUMPDEST PUSH2 0x226D DUP3 PUSH2 0x1920 JUMP JUMPDEST ISZERO PUSH2 0x22AD JUMPI PUSH1 0x40 MLOAD PUSH32 0x8C379A000000000000000000000000000000000000000000000000000000000 DUP2 MSTORE PUSH1 0x4 ADD PUSH2 0x22A4 SWAP1 PUSH2 0x40E0 JUMP JUMPDEST PUSH1 0x40 MLOAD DUP1 SWAP2 SUB SWAP1 REVERT JUMPDEST PUSH2 0x22B9 PUSH1 0x0 DUP5 DUP5 PUSH2 0x25A7 JUMP JUMPDEST PUSH1 0x1 PUSH1 0x9A PUSH1 0x0 DUP6 PUSH20 0xFFFFFFFFFFFFFFFFFFFFFFFFFFFFFFFFFFFFFFFF AND PUSH20 0xFFFFFFFFFFFFFFFFFFFFFFFFFFFFFFFFFFFFFFFF AND DUP2 MSTORE PUSH1 0x20 ADD SWAP1 DUP2 MSTORE PUSH1 0x20 ADD PUSH1 0x0 KECCAK256 PUSH1 0x0 DUP3 DUP3 SLOAD PUSH2 0x2309 SWAP2 SWAP1 PUSH2 0x3E19 JUMP JUMPDEST SWAP3 POP POP DUP2 SWAP1 SSTORE POP DUP3 PUSH1 0x99 PUSH1 0x0 DUP5 DUP2 MSTORE PUSH1 0x20 ADD SWAP1 DUP2 MSTORE PUSH1 0x20 ADD PUSH1 0x0 KECCAK256 PUSH1 0x0 PUSH2 0x100 EXP DUP2 SLOAD DUP2 PUSH20 0xFFFFFFFFFFFFFFFFFFFFFFFFFFFFFFFFFFFFFFFF MUL NOT AND SWAP1 DUP4 PUSH20 0xFFFFFFFFFFFFFFFFFFFFFFFFFFFFFFFFFFFFFFFF AND MUL OR SWAP1 SSTORE POP DUP1 PUSH1 0xFD PUSH1 0x0 DUP5 DUP2 MSTORE PUSH1 0x20 ADD SWAP1 DUP2 MSTORE PUSH1 0x20 ADD PUSH1 0x0 KECCAK256 PUSH1 0x0 PUSH2 0x100 EXP DUP2 SLOAD DUP2 PUSH1 0xFF MUL NOT AND SWAP1 DUP4 ISZERO ISZERO MUL OR SWAP1 SSTORE POP DUP2 DUP4 PUSH20 0xFFFFFFFFFFFFFFFFFFFFFFFFFFFFFFFFFFFFFFFF AND PUSH1 0x0 PUSH20 0xFFFFFFFFFFFFFFFFFFFFFFFFFFFFFFFFFFFFFFFF AND PUSH32 0xDDF252AD1BE2C89B69C2B068FC378DAA952BA7F163C4A11628F55A4DF523B3EF PUSH1 0x40 MLOAD PUSH1 0x40 MLOAD DUP1 SWAP2 SUB SWAP1 LOG4 PUSH2 0x23F5 PUSH1 0x0 DUP5 DUP5 PUSH2 0x25AC JUMP JUMPDEST POP POP POP JUMP JUMPDEST PUSH2 0x2403 DUP3 PUSH2 0x1920 JUMP JUMPDEST PUSH2 0x2442 JUMPI PUSH1 0x40 MLOAD PUSH32 0x8C379A000000000000000000000000000000000000000000000000000000000 DUP2 MSTORE PUSH1 0x4 ADD PUSH2 0x2439 SWAP1 PUSH2 0x4172 JUMP JUMPDEST PUSH1 0x40 MLOAD DUP1 SWAP2 SUB SWAP1 REVERT JUMPDEST DUP1 PUSH1 0xC9 PUSH1 0x0 DUP5 DUP2 MSTORE PUSH1 0x20 ADD SWAP1 DUP2 MSTORE PUSH1 0x20 ADD PUSH1 0x0 KECCAK256 SWAP1 DUP1 MLOAD SWAP1 PUSH1 0x20 ADD SWAP1 PUSH2 0x2469 SWAP3 SWAP2 SWAP1 PUSH2 0x2ABC JUMP JUMPDEST POP POP POP JUMP JUMPDEST PUSH1 0x60 PUSH1 0xFB DUP1 SLOAD PUSH2 0x247D SWAP1 PUSH2 0x3450 JUMP JUMPDEST DUP1 PUSH1 0x1F ADD PUSH1 0x20 DUP1 SWAP2 DIV MUL PUSH1 0x20 ADD PUSH1 0x40 MLOAD SWAP1 DUP2 ADD PUSH1 0x40 MSTORE DUP1 SWAP3 SWAP2 SWAP1 DUP2 DUP2 MSTORE PUSH1 0x20 ADD DUP3 DUP1 SLOAD PUSH2 0x24A9 SWAP1 PUSH2 0x3450 JUMP JUMPDEST DUP1 ISZERO PUSH2 0x24F6 JUMPI DUP1 PUSH1 0x1F LT PUSH2 0x24CB JUMPI PUSH2 0x100 DUP1 DUP4 SLOAD DIV MUL DUP4 MSTORE SWAP2 PUSH1 0x20 ADD SWAP2 PUSH2 0x24F6 JUMP JUMPDEST DUP3 ADD SWAP2 SWAP1 PUSH1 0x0 MSTORE PUSH1 0x20 PUSH1 0x0 KECCAK256 SWAP1 JUMPDEST DUP2 SLOAD DUP2 MSTORE SWAP1 PUSH1 0x1 ADD SWAP1 PUSH1 0x20 ADD DUP1 DUP4 GT PUSH2 0x24D9 JUMPI DUP3 SWAP1 SUB PUSH1 0x1F AND DUP3 ADD SWAP2 JUMPDEST POP POP POP POP POP SWAP1 POP SWAP1 JUMP JUMPDEST PUSH1 0x60 PUSH2 0x250B DUP3 PUSH2 0x1920 JUMP JUMPDEST PUSH2 0x254A JUMPI PUSH1 0x40 MLOAD PUSH32 0x8C379A000000000000000000000000000000000000000000000000000000000 DUP2 MSTORE PUSH1 0x4 ADD PUSH2 0x2541 SWAP1 PUSH2 0x4204 JUMP JUMPDEST PUSH1 0x40 MLOAD DUP1 SWAP2 SUB SWAP1 REVERT JUMPDEST PUSH1 0x0 PUSH2 0x2554 PUSH2 0x246E JUMP JUMPDEST SWAP1 POP PUSH1 0x0 DUP2 MLOAD GT PUSH2 0x2574 JUMPI PUSH1 0x40 MLOAD DUP1 PUSH1 0x20 ADD PUSH1 0x40 MSTORE DUP1 PUSH1 0x0 DUP2 MSTORE POP PUSH2 0x259F JUMP JUMPDEST DUP1 PUSH2 0x257E DUP5 PUSH2 0x295B JUMP JUMPDEST PUSH1 0x40 MLOAD PUSH1 0x20 ADD PUSH2 0x258F SWAP3 SWAP2 SWAP1 PUSH2 0x3B4A JUMP JUMPDEST PUSH1 0x40 MLOAD PUSH1 0x20 DUP2 DUP4 SUB SUB DUP2 MSTORE SWAP1 PUSH1 0x40 MSTORE JUMPDEST SWAP2 POP POP SWAP2 SWAP1 POP JUMP JUMPDEST POP POP POP JUMP JUMPDEST POP POP POP JUMP JUMPDEST PUSH1 0x0 PUSH2 0x25BC DUP3 PUSH2 0xAC4 JUMP JUMPDEST SWAP1 POP PUSH2 0x25CA DUP2 PUSH1 0x0 DUP5 PUSH2 0x25A7 JUMP JUMPDEST PUSH2 0x25D5 PUSH1 0x0 DUP4 PUSH2 0x1994 JUMP JUMPDEST PUSH1 0x1 PUSH1 0x9A PUSH1 0x0 DUP4 PUSH20 0xFFFFFFFFFFFFFFFFFFFFFFFFFFFFFFFFFFFFFFFF AND PUSH20 0xFFFFFFFFFFFFFFFFFFFFFFFFFFFFFFFFFFFFFFFF AND DUP2 MSTORE PUSH1 0x20 ADD SWAP1 DUP2 MSTORE PUSH1 0x20 ADD PUSH1 0x0 KECCAK256 PUSH1 0x0 DUP3 DUP3 SLOAD PUSH2 0x2625 SWAP2 SWAP1 PUSH2 0x3DE5 JUMP JUMPDEST SWAP3 POP POP DUP2 SWAP1 SSTORE POP PUSH1 0x99 PUSH1 0x0 DUP4 DUP2 MSTORE PUSH1 0x20 ADD SWAP1 DUP2 MSTORE PUSH1 0x20 ADD PUSH1 0x0 KECCAK256 PUSH1 0x0 PUSH2 0x100 EXP DUP2 SLOAD SWAP1 PUSH20 0xFFFFFFFFFFFFFFFFFFFFFFFFFFFFFFFFFFFFFFFF MUL NOT AND SWAP1 SSTORE DUP2 PUSH1 0x0 PUSH20 0xFFFFFFFFFFFFFFFFFFFFFFFFFFFFFFFFFFFFFFFF AND DUP3 PUSH20 0xFFFFFFFFFFFFFFFFFFFFFFFFFFFFFFFFFFFFFFFF AND PUSH32 0xDDF252AD1BE2C89B69C2B068FC378DAA952BA7F163C4A11628F55A4DF523B3EF PUSH1 0x40 MLOAD PUSH1 0x40 MLOAD DUP1 SWAP2 SUB SWAP1 LOG4 PUSH2 0x26CA DUP2 PUSH1 0x0 DUP5 PUSH2 0x25AC JUMP JUMPDEST POP POP JUMP JUMPDEST PUSH1 0x0 DUP1 DUP3 PUSH20 0xFFFFFFFFFFFFFFFFFFFFFFFFFFFFFFFFFFFFFFFF AND EXTCODESIZE GT SWAP1 POP SWAP2 SWAP1 POP JUMP JUMPDEST PUSH1 0x0 PUSH1 0x1 SWAP1 SLOAD SWAP1 PUSH2 0x100 EXP SWAP1 DIV PUSH1 0xFF AND PUSH2 0x2740 JUMPI PUSH1 0x40 MLOAD PUSH32 0x8C379A000000000000000000000000000000000000000000000000000000000 DUP2 MSTORE PUSH1 0x4 ADD PUSH2 0x2737 SWAP1 PUSH2 0x3F0A JUMP JUMPDEST PUSH1 0x40 MLOAD DUP1 SWAP2 SUB SWAP1 REVERT JUMPDEST DUP2 PUSH1 0x97 SWAP1 DUP1 MLOAD SWAP1 PUSH1 0x20 ADD SWAP1 PUSH2 0x2756 SWAP3 SWAP2 SWAP1 PUSH2 0x2ABC JUMP JUMPDEST POP DUP1 PUSH1 0x98 SWAP1 DUP1 MLOAD SWAP1 PUSH1 0x20 ADD SWAP1 PUSH2 0x276D SWAP3 SWAP2 SWAP1 PUSH2 0x2ABC JUMP JUMPDEST POP POP POP JUMP JUMPDEST PUSH1 0x0 PUSH1 0x1 SWAP1 SLOAD SWAP1 PUSH2 0x100 EXP SWAP1 DIV PUSH1 0xFF AND PUSH2 0x27C1 JUMPI PUSH1 0x40 MLOAD PUSH32 0x8C379A000000000000000000000000000000000000000000000000000000000 DUP2 MSTORE PUSH1 0x4 ADD PUSH2 0x27B8 SWAP1 PUSH2 0x3F0A JUMP JUMPDEST PUSH1 0x40 MLOAD DUP1 SWAP2 SUB SWAP1 REVERT JUMPDEST PUSH2 0x27D1 PUSH2 0x27CC PUSH2 0x198C JUMP JUMPDEST PUSH2 0x1DE5 JUMP JUMPDEST JUMP JUMPDEST PUSH1 0x0 PUSH2 0x27F4 DUP5 PUSH20 0xFFFFFFFFFFFFFFFFFFFFFFFFFFFFFFFFFFFFFFFF AND PUSH2 0x26CE JUMP JUMPDEST ISZERO PUSH2 0x294E JUMPI DUP4 PUSH20 0xFFFFFFFFFFFFFFFFFFFFFFFFFFFFFFFFFFFFFFFF AND PUSH4 0x150B7A02 PUSH2 0x281D PUSH2 0x198C JUMP JUMPDEST DUP8 DUP7 DUP7 PUSH1 0x40 MLOAD DUP6 PUSH4 0xFFFFFFFF AND PUSH1 0xE0 SHL DUP2 MSTORE PUSH1 0x4 ADD PUSH2 0x283F SWAP5 SWAP4 SWAP3 SWAP2 SWAP1 PUSH2 0x4279 JUMP JUMPDEST PUSH1 0x20 PUSH1 0x40 MLOAD DUP1 DUP4 SUB DUP2 PUSH1 0x0 DUP8 GAS CALL SWAP3 POP POP POP DUP1 ISZERO PUSH2 0x287B JUMPI POP PUSH1 0x40 MLOAD RETURNDATASIZE PUSH1 0x1F NOT PUSH1 0x1F DUP3 ADD AND DUP3 ADD DUP1 PUSH1 0x40 MSTORE POP DUP2 ADD SWAP1 PUSH2 0x2878 SWAP2 SWAP1 PUSH2 0x42DA JUMP JUMPDEST PUSH1 0x1 JUMPDEST PUSH2 0x28FE JUMPI RETURNDATASIZE DUP1 PUSH1 0x0 DUP2 EQ PUSH2 0x28AB JUMPI PUSH1 0x40 MLOAD SWAP2 POP PUSH1 0x1F NOT PUSH1 0x3F RETURNDATASIZE ADD AND DUP3 ADD PUSH1 0x40 MSTORE RETURNDATASIZE DUP3 MSTORE RETURNDATASIZE PUSH1 0x0 PUSH1 0x20 DUP5 ADD RETURNDATACOPY PUSH2 0x28B0 JUMP JUMPDEST PUSH1 0x60 SWAP2 POP JUMPDEST POP PUSH1 0x0 DUP2 MLOAD EQ ISZERO PUSH2 0x28F6 JUMPI PUSH1 0x40 MLOAD PUSH32 0x8C379A000000000000000000000000000000000000000000000000000000000 DUP2 MSTORE PUSH1 0x4 ADD PUSH2 0x28ED SWAP1 PUSH2 0x4008 JUMP JUMPDEST PUSH1 0x40 MLOAD DUP1 SWAP2 SUB SWAP1 REVERT JUMPDEST DUP1 MLOAD DUP2 PUSH1 0x20 ADD REVERT JUMPDEST PUSH4 0x150B7A02 PUSH1 0xE0 SHL PUSH28 0xFFFFFFFFFFFFFFFFFFFFFFFFFFFFFFFFFFFFFFFFFFFFFFFFFFFFFFFF NOT AND DUP2 PUSH28 0xFFFFFFFFFFFFFFFFFFFFFFFFFFFFFFFFFFFFFFFFFFFFFFFFFFFFFFFF NOT AND EQ SWAP2 POP POP PUSH2 0x2953 JUMP JUMPDEST PUSH1 0x1 SWAP1 POP JUMPDEST SWAP5 SWAP4 POP POP POP POP JUMP JUMPDEST PUSH1 0x60 PUSH1 0x0 DUP3 EQ ISZERO PUSH2 0x29A3 JUMPI PUSH1 0x40 MLOAD DUP1 PUSH1 0x40 ADD PUSH1 0x40 MSTORE DUP1 PUSH1 0x1 DUP2 MSTORE PUSH1 0x20 ADD PUSH32 0x3000000000000000000000000000000000000000000000000000000000000000 DUP2 MSTORE POP SWAP1 POP PUSH2 0x2AB7 JUMP JUMPDEST PUSH1 0x0 DUP3 SWAP1 POP PUSH1 0x0 JUMPDEST PUSH1 0x0 DUP3 EQ PUSH2 0x29D5 JUMPI DUP1 DUP1 PUSH2 0x29BE SWAP1 PUSH2 0x4307 JUMP JUMPDEST SWAP2 POP POP PUSH1 0xA DUP3 PUSH2 0x29CE SWAP2 SWAP1 PUSH2 0x437F JUMP JUMPDEST SWAP2 POP PUSH2 0x29AB JUMP JUMPDEST PUSH1 0x0 DUP2 PUSH8 0xFFFFFFFFFFFFFFFF DUP2 GT ISZERO PUSH2 0x29F1 JUMPI PUSH2 0x29F0 PUSH2 0x2FC3 JUMP JUMPDEST JUMPDEST PUSH1 0x40 MLOAD SWAP1 DUP1 DUP3 MSTORE DUP1 PUSH1 0x1F ADD PUSH1 0x1F NOT AND PUSH1 0x20 ADD DUP3 ADD PUSH1 0x40 MSTORE DUP1 ISZERO PUSH2 0x2A23 JUMPI DUP2 PUSH1 0x20 ADD PUSH1 0x1 DUP3 MUL DUP1 CALLDATASIZE DUP4 CALLDATACOPY DUP1 DUP3 ADD SWAP2 POP POP SWAP1 POP JUMPDEST POP SWAP1 POP JUMPDEST PUSH1 0x0 DUP6 EQ PUSH2 0x2AB0 JUMPI PUSH1 0x1 DUP3 PUSH2 0x2A3C SWAP2 SWAP1 PUSH2 0x3DE5 JUMP JUMPDEST SWAP2 POP PUSH1 0xA DUP6 PUSH2 0x2A4B SWAP2 SWAP1 PUSH2 0x43B0 JUMP JUMPDEST PUSH1 0x30 PUSH2 0x2A57 SWAP2 SWAP1 PUSH2 0x3E19 JUMP JUMPDEST PUSH1 0xF8 SHL DUP2 DUP4 DUP2 MLOAD DUP2 LT PUSH2 0x2A6D JUMPI PUSH2 0x2A6C PUSH2 0x43E1 JUMP JUMPDEST JUMPDEST PUSH1 0x20 ADD ADD SWAP1 PUSH31 0xFFFFFFFFFFFFFFFFFFFFFFFFFFFFFFFFFFFFFFFFFFFFFFFFFFFFFFFFFFFFFF NOT AND SWAP1 DUP2 PUSH1 0x0 BYTE SWAP1 MSTORE8 POP PUSH1 0xA DUP6 PUSH2 0x2AA9 SWAP2 SWAP1 PUSH2 0x437F JUMP JUMPDEST SWAP5 POP PUSH2 0x2A27 JUMP JUMPDEST DUP1 SWAP4 POP POP POP POP JUMPDEST SWAP2 SWAP1 POP JUMP JUMPDEST DUP3 DUP1 SLOAD PUSH2 0x2AC8 SWAP1 PUSH2 0x3450 JUMP JUMPDEST SWAP1 PUSH1 0x0 MSTORE PUSH1 0x20 PUSH1 0x0 KECCAK256 SWAP1 PUSH1 0x1F ADD PUSH1 0x20 SWAP1 DIV DUP2 ADD SWAP3 DUP3 PUSH2 0x2AEA JUMPI PUSH1 0x0 DUP6 SSTORE PUSH2 0x2B31 JUMP JUMPDEST DUP3 PUSH1 0x1F LT PUSH2 0x2B03 JUMPI DUP1 MLOAD PUSH1 0xFF NOT AND DUP4 DUP1 ADD OR DUP6 SSTORE PUSH2 0x2B31 JUMP JUMPDEST DUP3 DUP1 ADD PUSH1 0x1 ADD DUP6 SSTORE DUP3 ISZERO PUSH2 0x2B31 JUMPI SWAP2 DUP3 ADD JUMPDEST DUP3 DUP2 GT ISZERO PUSH2 0x2B30 JUMPI DUP3 MLOAD DUP3 SSTORE SWAP2 PUSH1 0x20 ADD SWAP2 SWAP1 PUSH1 0x1 ADD SWAP1 PUSH2 0x2B15 JUMP JUMPDEST JUMPDEST POP SWAP1 POP PUSH2 0x2B3E SWAP2 SWAP1 PUSH2 0x2B82 JUMP JUMPDEST POP SWAP1 JUMP JUMPDEST POP DUP1 SLOAD PUSH2 0x2B4E SWAP1 PUSH2 0x3450 JUMP JUMPDEST PUSH1 0x0 DUP3 SSTORE DUP1 PUSH1 0x1F LT PUSH2 0x2B60 JUMPI POP PUSH2 0x2B7F JUMP JUMPDEST PUSH1 0x1F ADD PUSH1 0x20 SWAP1 DIV SWAP1 PUSH1 0x0 MSTORE PUSH1 0x20 PUSH1 0x0 KECCAK256 SWAP1 DUP2 ADD SWAP1 PUSH2 0x2B7E SWAP2 SWAP1 PUSH2 0x2B82 JUMP JUMPDEST JUMPDEST POP JUMP JUMPDEST JUMPDEST DUP1 DUP3 GT ISZERO PUSH2 0x2B9B JUMPI PUSH1 0x0 DUP2 PUSH1 0x0 SWAP1 SSTORE POP PUSH1 0x1 ADD PUSH2 0x2B83 JUMP JUMPDEST POP SWAP1 JUMP JUMPDEST PUSH1 0x0 PUSH1 0x40 MLOAD SWAP1 POP SWAP1 JUMP JUMPDEST PUSH1 0x0 DUP1 REVERT JUMPDEST PUSH1 0x0 DUP1 REVERT JUMPDEST PUSH1 0x0 PUSH32 0xFFFFFFFF00000000000000000000000000000000000000000000000000000000 DUP3 AND SWAP1 POP SWAP2 SWAP1 POP JUMP JUMPDEST PUSH2 0x2BE8 DUP2 PUSH2 0x2BB3 JUMP JUMPDEST DUP2 EQ PUSH2 0x2BF3 JUMPI PUSH1 0x0 DUP1 REVERT JUMPDEST POP JUMP JUMPDEST PUSH1 0x0 DUP2 CALLDATALOAD SWAP1 POP PUSH2 0x2C05 DUP2 PUSH2 0x2BDF JUMP JUMPDEST SWAP3 SWAP2 POP POP JUMP JUMPDEST PUSH1 0x0 PUSH1 0x20 DUP3 DUP5 SUB SLT ISZERO PUSH2 0x2C21 JUMPI PUSH2 0x2C20 PUSH2 0x2BA9 JUMP JUMPDEST JUMPDEST PUSH1 0x0 PUSH2 0x2C2F DUP5 DUP3 DUP6 ADD PUSH2 0x2BF6 JUMP JUMPDEST SWAP2 POP POP SWAP3 SWAP2 POP POP JUMP JUMPDEST PUSH1 0x0 DUP2 ISZERO ISZERO SWAP1 POP SWAP2 SWAP1 POP JUMP JUMPDEST PUSH2 0x2C4D DUP2 PUSH2 0x2C38 JUMP JUMPDEST DUP3 MSTORE POP POP JUMP JUMPDEST PUSH1 0x0 PUSH1 0x20 DUP3 ADD SWAP1 POP PUSH2 0x2C68 PUSH1 0x0 DUP4 ADD DUP5 PUSH2 0x2C44 JUMP JUMPDEST SWAP3 SWAP2 POP POP JUMP JUMPDEST PUSH1 0x0 DUP2 MLOAD SWAP1 POP SWAP2 SWAP1 POP JUMP JUMPDEST PUSH1 0x0 DUP3 DUP3 MSTORE PUSH1 0x20 DUP3 ADD SWAP1 POP SWAP3 SWAP2 POP POP JUMP JUMPDEST PUSH1 0x0 JUMPDEST DUP4 DUP2 LT ISZERO PUSH2 0x2CA8 JUMPI DUP1 DUP3 ADD MLOAD DUP2 DUP5 ADD MSTORE PUSH1 0x20 DUP2 ADD SWAP1 POP PUSH2 0x2C8D JUMP JUMPDEST DUP4 DUP2 GT ISZERO PUSH2 0x2CB7 JUMPI PUSH1 0x0 DUP5 DUP5 ADD MSTORE JUMPDEST POP POP POP POP JUMP JUMPDEST PUSH1 0x0 PUSH1 0x1F NOT PUSH1 0x1F DUP4 ADD AND SWAP1 POP SWAP2 SWAP1 POP JUMP JUMPDEST PUSH1 0x0 PUSH2 0x2CD9 DUP3 PUSH2 0x2C6E JUMP JUMPDEST PUSH2 0x2CE3 DUP2 DUP6 PUSH2 0x2C79 JUMP JUMPDEST SWAP4 POP PUSH2 0x2CF3 DUP2 DUP6 PUSH1 0x20 DUP7 ADD PUSH2 0x2C8A JUMP JUMPDEST PUSH2 0x2CFC DUP2 PUSH2 0x2CBD JUMP JUMPDEST DUP5 ADD SWAP2 POP POP SWAP3 SWAP2 POP POP JUMP JUMPDEST PUSH1 0x0 PUSH1 0x20 DUP3 ADD SWAP1 POP DUP2 DUP2 SUB PUSH1 0x0 DUP4 ADD MSTORE PUSH2 0x2D21 DUP2 DUP5 PUSH2 0x2CCE JUMP JUMPDEST SWAP1 POP SWAP3 SWAP2 POP POP JUMP JUMPDEST PUSH1 0x0 DUP2 SWAP1 POP SWAP2 SWAP1 POP JUMP JUMPDEST PUSH2 0x2D3C DUP2 PUSH2 0x2D29 JUMP JUMPDEST DUP2 EQ PUSH2 0x2D47 JUMPI PUSH1 0x0 DUP1 REVERT JUMPDEST POP JUMP JUMPDEST PUSH1 0x0 DUP2 CALLDATALOAD SWAP1 POP PUSH2 0x2D59 DUP2 PUSH2 0x2D33 JUMP JUMPDEST SWAP3 SWAP2 POP POP JUMP JUMPDEST PUSH1 0x0 PUSH1 0x20 DUP3 DUP5 SUB SLT ISZERO PUSH2 0x2D75 JUMPI PUSH2 0x2D74 PUSH2 0x2BA9 JUMP JUMPDEST JUMPDEST PUSH1 0x0 PUSH2 0x2D83 DUP5 DUP3 DUP6 ADD PUSH2 0x2D4A JUMP JUMPDEST SWAP2 POP POP SWAP3 SWAP2 POP POP JUMP JUMPDEST PUSH1 0x0 PUSH20 0xFFFFFFFFFFFFFFFFFFFFFFFFFFFFFFFFFFFFFFFF DUP3 AND SWAP1 POP SWAP2 SWAP1 POP JUMP JUMPDEST PUSH1 0x0 PUSH2 0x2DB7 DUP3 PUSH2 0x2D8C JUMP JUMPDEST SWAP1 POP SWAP2 SWAP1 POP JUMP JUMPDEST PUSH2 0x2DC7 DUP2 PUSH2 0x2DAC JUMP JUMPDEST DUP3 MSTORE POP POP JUMP JUMPDEST PUSH1 0x0 PUSH1 0x20 DUP3 ADD SWAP1 POP PUSH2 0x2DE2 PUSH1 0x0 DUP4 ADD DUP5 PUSH2 0x2DBE JUMP JUMPDEST SWAP3 SWAP2 POP POP JUMP JUMPDEST PUSH2 0x2DF1 DUP2 PUSH2 0x2DAC JUMP JUMPDEST DUP2 EQ PUSH2 0x2DFC JUMPI PUSH1 0x0 DUP1 REVERT JUMPDEST POP JUMP JUMPDEST PUSH1 0x0 DUP2 CALLDATALOAD SWAP1 POP PUSH2 0x2E0E DUP2 PUSH2 0x2DE8 JUMP JUMPDEST SWAP3 SWAP2 POP POP JUMP JUMPDEST PUSH1 0x0 DUP1 PUSH1 0x40 DUP4 DUP6 SUB SLT ISZERO PUSH2 0x2E2B JUMPI PUSH2 0x2E2A PUSH2 0x2BA9 JUMP JUMPDEST JUMPDEST PUSH1 0x0 PUSH2 0x2E39 DUP6 DUP3 DUP7 ADD PUSH2 0x2DFF JUMP JUMPDEST SWAP3 POP POP PUSH1 0x20 PUSH2 0x2E4A DUP6 DUP3 DUP7 ADD PUSH2 0x2D4A JUMP JUMPDEST SWAP2 POP POP SWAP3 POP SWAP3 SWAP1 POP JUMP JUMPDEST PUSH1 0x0 DUP1 REVERT JUMPDEST PUSH1 0x0 DUP1 REVERT JUMPDEST PUSH1 0x0 DUP1 REVERT JUMPDEST PUSH1 0x0 DUP1 DUP4 PUSH1 0x1F DUP5 ADD SLT PUSH2 0x2E79 JUMPI PUSH2 0x2E78 PUSH2 0x2E54 JUMP JUMPDEST JUMPDEST DUP3 CALLDATALOAD SWAP1 POP PUSH8 0xFFFFFFFFFFFFFFFF DUP2 GT ISZERO PUSH2 0x2E96 JUMPI PUSH2 0x2E95 PUSH2 0x2E59 JUMP JUMPDEST JUMPDEST PUSH1 0x20 DUP4 ADD SWAP2 POP DUP4 PUSH1 0x1 DUP3 MUL DUP4 ADD GT ISZERO PUSH2 0x2EB2 JUMPI PUSH2 0x2EB1 PUSH2 0x2E5E JUMP JUMPDEST JUMPDEST SWAP3 POP SWAP3 SWAP1 POP JUMP JUMPDEST PUSH1 0x0 DUP1 PUSH1 0x0 DUP1 PUSH1 0x0 PUSH1 0x80 DUP7 DUP9 SUB SLT ISZERO PUSH2 0x2ED5 JUMPI PUSH2 0x2ED4 PUSH2 0x2BA9 JUMP JUMPDEST JUMPDEST PUSH1 0x0 PUSH2 0x2EE3 DUP9 DUP3 DUP10 ADD PUSH2 0x2DFF JUMP JUMPDEST SWAP6 POP POP PUSH1 0x20 PUSH2 0x2EF4 DUP9 DUP3 DUP10 ADD PUSH2 0x2DFF JUMP JUMPDEST SWAP5 POP POP PUSH1 0x40 PUSH2 0x2F05 DUP9 DUP3 DUP10 ADD PUSH2 0x2D4A JUMP JUMPDEST SWAP4 POP POP PUSH1 0x60 DUP7 ADD CALLDATALOAD PUSH8 0xFFFFFFFFFFFFFFFF DUP2 GT ISZERO PUSH2 0x2F26 JUMPI PUSH2 0x2F25 PUSH2 0x2BAE JUMP JUMPDEST JUMPDEST PUSH2 0x2F32 DUP9 DUP3 DUP10 ADD PUSH2 0x2E63 JUMP JUMPDEST SWAP3 POP SWAP3 POP POP SWAP3 SWAP6 POP SWAP3 SWAP6 SWAP1 SWAP4 POP JUMP JUMPDEST PUSH2 0x2F4A DUP2 PUSH2 0x2BB3 JUMP JUMPDEST DUP3 MSTORE POP POP JUMP JUMPDEST PUSH1 0x0 PUSH1 0x20 DUP3 ADD SWAP1 POP PUSH2 0x2F65 PUSH1 0x0 DUP4 ADD DUP5 PUSH2 0x2F41 JUMP JUMPDEST SWAP3 SWAP2 POP POP JUMP JUMPDEST PUSH1 0x0 DUP1 PUSH1 0x0 PUSH1 0x60 DUP5 DUP7 SUB SLT ISZERO PUSH2 0x2F84 JUMPI PUSH2 0x2F83 PUSH2 0x2BA9 JUMP JUMPDEST JUMPDEST PUSH1 0x0 PUSH2 0x2F92 DUP7 DUP3 DUP8 ADD PUSH2 0x2DFF JUMP JUMPDEST SWAP4 POP POP PUSH1 0x20 PUSH2 0x2FA3 DUP7 DUP3 DUP8 ADD PUSH2 0x2DFF JUMP JUMPDEST SWAP3 POP POP PUSH1 0x40 PUSH2 0x2FB4 DUP7 DUP3 DUP8 ADD PUSH2 0x2D4A JUMP JUMPDEST SWAP2 POP POP SWAP3 POP SWAP3 POP SWAP3 JUMP JUMPDEST PUSH1 0x0 DUP1 REVERT JUMPDEST PUSH32 0x4E487B7100000000000000000000000000000000000000000000000000000000 PUSH1 0x0 MSTORE PUSH1 0x41 PUSH1 0x4 MSTORE PUSH1 0x24 PUSH1 0x0 REVERT JUMPDEST PUSH2 0x2FFB DUP3 PUSH2 0x2CBD JUMP JUMPDEST DUP2 ADD DUP2 DUP2 LT PUSH8 0xFFFFFFFFFFFFFFFF DUP3 GT OR ISZERO PUSH2 0x301A JUMPI PUSH2 0x3019 PUSH2 0x2FC3 JUMP JUMPDEST JUMPDEST DUP1 PUSH1 0x40 MSTORE POP POP POP JUMP JUMPDEST PUSH1 0x0 PUSH2 0x302D PUSH2 0x2B9F JUMP JUMPDEST SWAP1 POP PUSH2 0x3039 DUP3 DUP3 PUSH2 0x2FF2 JUMP JUMPDEST SWAP2 SWAP1 POP JUMP JUMPDEST PUSH1 0x0 PUSH8 0xFFFFFFFFFFFFFFFF DUP3 GT ISZERO PUSH2 0x3059 JUMPI PUSH2 0x3058 PUSH2 0x2FC3 JUMP JUMPDEST JUMPDEST PUSH2 0x3062 DUP3 PUSH2 0x2CBD JUMP JUMPDEST SWAP1 POP PUSH1 0x20 DUP2 ADD SWAP1 POP SWAP2 SWAP1 POP JUMP JUMPDEST DUP3 DUP2 DUP4 CALLDATACOPY PUSH1 0x0 DUP4 DUP4 ADD MSTORE POP POP POP JUMP JUMPDEST PUSH1 0x0 PUSH2 0x3091 PUSH2 0x308C DUP5 PUSH2 0x303E JUMP JUMPDEST PUSH2 0x3023 JUMP JUMPDEST SWAP1 POP DUP3 DUP2 MSTORE PUSH1 0x20 DUP2 ADD DUP5 DUP5 DUP5 ADD GT ISZERO PUSH2 0x30AD JUMPI PUSH2 0x30AC PUSH2 0x2FBE JUMP JUMPDEST JUMPDEST PUSH2 0x30B8 DUP5 DUP3 DUP6 PUSH2 0x306F JUMP JUMPDEST POP SWAP4 SWAP3 POP POP POP JUMP JUMPDEST PUSH1 0x0 DUP3 PUSH1 0x1F DUP4 ADD SLT PUSH2 0x30D5 JUMPI PUSH2 0x30D4 PUSH2 0x2E54 JUMP JUMPDEST JUMPDEST DUP2 CALLDATALOAD PUSH2 0x30E5 DUP5 DUP3 PUSH1 0x20 DUP7 ADD PUSH2 0x307E JUMP JUMPDEST SWAP2 POP POP SWAP3 SWAP2 POP POP JUMP JUMPDEST PUSH1 0x0 PUSH1 0x20 DUP3 DUP5 SUB SLT ISZERO PUSH2 0x3104 JUMPI PUSH2 0x3103 PUSH2 0x2BA9 JUMP JUMPDEST JUMPDEST PUSH1 0x0 DUP3 ADD CALLDATALOAD PUSH8 0xFFFFFFFFFFFFFFFF DUP2 GT ISZERO PUSH2 0x3122 JUMPI PUSH2 0x3121 PUSH2 0x2BAE JUMP JUMPDEST JUMPDEST PUSH2 0x312E DUP5 DUP3 DUP6 ADD PUSH2 0x30C0 JUMP JUMPDEST SWAP2 POP POP SWAP3 SWAP2 POP POP JUMP JUMPDEST PUSH1 0x0 PUSH1 0x20 DUP3 DUP5 SUB SLT ISZERO PUSH2 0x314D JUMPI PUSH2 0x314C PUSH2 0x2BA9 JUMP JUMPDEST JUMPDEST PUSH1 0x0 PUSH2 0x315B DUP5 DUP3 DUP6 ADD PUSH2 0x2DFF JUMP JUMPDEST SWAP2 POP POP SWAP3 SWAP2 POP POP JUMP JUMPDEST PUSH2 0x316D DUP2 PUSH2 0x2D29 JUMP JUMPDEST DUP3 MSTORE POP POP JUMP JUMPDEST PUSH1 0x0 PUSH1 0x20 DUP3 ADD SWAP1 POP PUSH2 0x3188 PUSH1 0x0 DUP4 ADD DUP5 PUSH2 0x3164 JUMP JUMPDEST SWAP3 SWAP2 POP POP JUMP JUMPDEST PUSH2 0x3197 DUP2 PUSH2 0x2C38 JUMP JUMPDEST DUP2 EQ PUSH2 0x31A2 JUMPI PUSH1 0x0 DUP1 REVERT JUMPDEST POP JUMP JUMPDEST PUSH1 0x0 DUP2 CALLDATALOAD SWAP1 POP PUSH2 0x31B4 DUP2 PUSH2 0x318E JUMP JUMPDEST SWAP3 SWAP2 POP POP JUMP JUMPDEST PUSH1 0x0 DUP1 PUSH1 0x40 DUP4 DUP6 SUB SLT ISZERO PUSH2 0x31D1 JUMPI PUSH2 0x31D0 PUSH2 0x2BA9 JUMP JUMPDEST JUMPDEST PUSH1 0x0 PUSH2 0x31DF DUP6 DUP3 DUP7 ADD PUSH2 0x2D4A JUMP JUMPDEST SWAP3 POP POP PUSH1 0x20 PUSH2 0x31F0 DUP6 DUP3 DUP7 ADD PUSH2 0x31A5 JUMP JUMPDEST SWAP2 POP POP SWAP3 POP SWAP3 SWAP1 POP JUMP JUMPDEST PUSH1 0x0 DUP1 PUSH1 0x40 DUP4 DUP6 SUB SLT ISZERO PUSH2 0x3211 JUMPI PUSH2 0x3210 PUSH2 0x2BA9 JUMP JUMPDEST JUMPDEST PUSH1 0x0 PUSH2 0x321F DUP6 DUP3 DUP7 ADD PUSH2 0x2DFF JUMP JUMPDEST SWAP3 POP POP PUSH1 0x20 PUSH2 0x3230 DUP6 DUP3 DUP7 ADD PUSH2 0x31A5 JUMP JUMPDEST SWAP2 POP POP SWAP3 POP SWAP3 SWAP1 POP JUMP JUMPDEST PUSH1 0x0 PUSH8 0xFFFFFFFFFFFFFFFF DUP3 GT ISZERO PUSH2 0x3255 JUMPI PUSH2 0x3254 PUSH2 0x2FC3 JUMP JUMPDEST JUMPDEST PUSH2 0x325E DUP3 PUSH2 0x2CBD JUMP JUMPDEST SWAP1 POP PUSH1 0x20 DUP2 ADD SWAP1 POP SWAP2 SWAP1 POP JUMP JUMPDEST PUSH1 0x0 PUSH2 0x327E PUSH2 0x3279 DUP5 PUSH2 0x323A JUMP JUMPDEST PUSH2 0x3023 JUMP JUMPDEST SWAP1 POP DUP3 DUP2 MSTORE PUSH1 0x20 DUP2 ADD DUP5 DUP5 DUP5 ADD GT ISZERO PUSH2 0x329A JUMPI PUSH2 0x3299 PUSH2 0x2FBE JUMP JUMPDEST JUMPDEST PUSH2 0x32A5 DUP5 DUP3 DUP6 PUSH2 0x306F JUMP JUMPDEST POP SWAP4 SWAP3 POP POP POP JUMP JUMPDEST PUSH1 0x0 DUP3 PUSH1 0x1F DUP4 ADD SLT PUSH2 0x32C2 JUMPI PUSH2 0x32C1 PUSH2 0x2E54 JUMP JUMPDEST JUMPDEST DUP2 CALLDATALOAD PUSH2 0x32D2 DUP5 DUP3 PUSH1 0x20 DUP7 ADD PUSH2 0x326B JUMP JUMPDEST SWAP2 POP POP SWAP3 SWAP2 POP POP JUMP JUMPDEST PUSH1 0x0 DUP1 PUSH1 0x0 DUP1 PUSH1 0x80 DUP6 DUP8 SUB SLT ISZERO PUSH2 0x32F5 JUMPI PUSH2 0x32F4 PUSH2 0x2BA9 JUMP JUMPDEST JUMPDEST PUSH1 0x0 PUSH2 0x3303 DUP8 DUP3 DUP9 ADD PUSH2 0x2DFF JUMP JUMPDEST SWAP5 POP POP PUSH1 0x20 PUSH2 0x3314 DUP8 DUP3 DUP9 ADD PUSH2 0x2DFF JUMP JUMPDEST SWAP4 POP POP PUSH1 0x40 PUSH2 0x3325 DUP8 DUP3 DUP9 ADD PUSH2 0x2D4A JUMP JUMPDEST SWAP3 POP POP PUSH1 0x60 DUP6 ADD CALLDATALOAD PUSH8 0xFFFFFFFFFFFFFFFF DUP2 GT ISZERO PUSH2 0x3346 JUMPI PUSH2 0x3345 PUSH2 0x2BAE JUMP JUMPDEST JUMPDEST PUSH2 0x3352 DUP8 DUP3 DUP9 ADD PUSH2 0x32AD JUMP JUMPDEST SWAP2 POP POP SWAP3 SWAP6 SWAP2 SWAP5 POP SWAP3 POP JUMP JUMPDEST PUSH1 0x0 DUP1 PUSH1 0x0 DUP1 PUSH1 0x80 DUP6 DUP8 SUB SLT ISZERO PUSH2 0x3378 JUMPI PUSH2 0x3377 PUSH2 0x2BA9 JUMP JUMPDEST JUMPDEST PUSH1 0x0 PUSH2 0x3386 DUP8 DUP3 DUP9 ADD PUSH2 0x2DFF JUMP JUMPDEST SWAP5 POP POP PUSH1 0x20 PUSH2 0x3397 DUP8 DUP3 DUP9 ADD PUSH2 0x2D4A JUMP JUMPDEST SWAP4 POP POP PUSH1 0x40 DUP6 ADD CALLDATALOAD PUSH8 0xFFFFFFFFFFFFFFFF DUP2 GT ISZERO PUSH2 0x33B8 JUMPI PUSH2 0x33B7 PUSH2 0x2BAE JUMP JUMPDEST JUMPDEST PUSH2 0x33C4 DUP8 DUP3 DUP9 ADD PUSH2 0x30C0 JUMP JUMPDEST SWAP3 POP POP PUSH1 0x60 PUSH2 0x33D5 DUP8 DUP3 DUP9 ADD PUSH2 0x31A5 JUMP JUMPDEST SWAP2 POP POP SWAP3 SWAP6 SWAP2 SWAP5 POP SWAP3 POP JUMP JUMPDEST PUSH1 0x0 DUP1 PUSH1 0x40 DUP4 DUP6 SUB SLT ISZERO PUSH2 0x33F8 JUMPI PUSH2 0x33F7 PUSH2 0x2BA9 JUMP JUMPDEST JUMPDEST PUSH1 0x0 PUSH2 0x3406 DUP6 DUP3 DUP7 ADD PUSH2 0x2DFF JUMP JUMPDEST SWAP3 POP POP PUSH1 0x20 PUSH2 0x3417 DUP6 DUP3 DUP7 ADD PUSH2 0x2DFF JUMP JUMPDEST SWAP2 POP POP SWAP3 POP SWAP3 SWAP1 POP JUMP JUMPDEST PUSH32 0x4E487B7100000000000000000000000000000000000000000000000000000000 PUSH1 0x0 MSTORE PUSH1 0x22 PUSH1 0x4 MSTORE PUSH1 0x24 PUSH1 0x0 REVERT JUMPDEST PUSH1 0x0 PUSH1 0x2 DUP3 DIV SWAP1 POP PUSH1 0x1 DUP3 AND DUP1 PUSH2 0x3468 JUMPI PUSH1 0x7F DUP3 AND SWAP2 POP JUMPDEST PUSH1 0x20 DUP3 LT DUP2 EQ ISZERO PUSH2 0x347C JUMPI PUSH2 0x347B PUSH2 0x3421 JUMP JUMPDEST JUMPDEST POP SWAP2 SWAP1 POP JUMP JUMPDEST PUSH32 0x4552433732313A20617070726F76656420717565727920666F72206E6F6E6578 PUSH1 0x0 DUP3 ADD MSTORE PUSH32 0x697374656E7420746F6B656E0000000000000000000000000000000000000000 PUSH1 0x20 DUP3 ADD MSTORE POP JUMP JUMPDEST PUSH1 0x0 PUSH2 0x34DE PUSH1 0x2C DUP4 PUSH2 0x2C79 JUMP JUMPDEST SWAP2 POP PUSH2 0x34E9 DUP3 PUSH2 0x3482 JUMP JUMPDEST PUSH1 0x40 DUP3 ADD SWAP1 POP SWAP2 SWAP1 POP JUMP JUMPDEST PUSH1 0x0 PUSH1 0x20 DUP3 ADD SWAP1 POP DUP2 DUP2 SUB PUSH1 0x0 DUP4 ADD MSTORE PUSH2 0x350D DUP2 PUSH2 0x34D1 JUMP JUMPDEST SWAP1 POP SWAP2 SWAP1 POP JUMP JUMPDEST PUSH32 0x4552433732313A20617070726F76616C20746F2063757272656E74206F776E65 PUSH1 0x0 DUP3 ADD MSTORE PUSH32 0x7200000000000000000000000000000000000000000000000000000000000000 PUSH1 0x20 DUP3 ADD MSTORE POP JUMP JUMPDEST PUSH1 0x0 PUSH2 0x3570 PUSH1 0x21 DUP4 PUSH2 0x2C79 JUMP JUMPDEST SWAP2 POP PUSH2 0x357B DUP3 PUSH2 0x3514 JUMP JUMPDEST PUSH1 0x40 DUP3 ADD SWAP1 POP SWAP2 SWAP1 POP JUMP JUMPDEST PUSH1 0x0 PUSH1 0x20 DUP3 ADD SWAP1 POP DUP2 DUP2 SUB PUSH1 0x0 DUP4 ADD MSTORE PUSH2 0x359F DUP2 PUSH2 0x3563 JUMP JUMPDEST SWAP1 POP SWAP2 SWAP1 POP JUMP JUMPDEST PUSH32 0x4552433732313A20617070726F76652063616C6C6572206973206E6F74206F77 PUSH1 0x0 DUP3 ADD MSTORE PUSH32 0x6E6572206E6F7220617070726F76656420666F7220616C6C0000000000000000 PUSH1 0x20 DUP3 ADD MSTORE POP JUMP JUMPDEST PUSH1 0x0 PUSH2 0x3602 PUSH1 0x38 DUP4 PUSH2 0x2C79 JUMP JUMPDEST SWAP2 POP PUSH2 0x360D DUP3 PUSH2 0x35A6 JUMP JUMPDEST PUSH1 0x40 DUP3 ADD SWAP1 POP SWAP2 SWAP1 POP JUMP JUMPDEST PUSH1 0x0 PUSH1 0x20 DUP3 ADD SWAP1 POP DUP2 DUP2 SUB PUSH1 0x0 DUP4 ADD MSTORE PUSH2 0x3631 DUP2 PUSH2 0x35F5 JUMP JUMPDEST SWAP1 POP SWAP2 SWAP1 POP JUMP JUMPDEST PUSH32 0x4552433732313A207472616E736665722063616C6C6572206973206E6F74206F PUSH1 0x0 DUP3 ADD MSTORE PUSH32 0x70657261746F7200000000000000000000000000000000000000000000000000 PUSH1 0x20 DUP3 ADD MSTORE POP JUMP JUMPDEST PUSH1 0x0 PUSH2 0x3694 PUSH1 0x27 DUP4 PUSH2 0x2C79 JUMP JUMPDEST SWAP2 POP PUSH2 0x369F DUP3 PUSH2 0x3638 JUMP JUMPDEST PUSH1 0x40 DUP3 ADD SWAP1 POP SWAP2 SWAP1 POP JUMP JUMPDEST PUSH1 0x0 PUSH1 0x20 DUP3 ADD SWAP1 POP DUP2 DUP2 SUB PUSH1 0x0 DUP4 ADD MSTORE PUSH2 0x36C3 DUP2 PUSH2 0x3687 JUMP JUMPDEST SWAP1 POP SWAP2 SWAP1 POP JUMP JUMPDEST PUSH32 0x4552433732313A207472616E736665722063616C6C6572206973206E6F74206F PUSH1 0x0 DUP3 ADD MSTORE PUSH32 0x776E6572206E6F7220617070726F766564000000000000000000000000000000 PUSH1 0x20 DUP3 ADD MSTORE POP JUMP JUMPDEST PUSH1 0x0 PUSH2 0x3726 PUSH1 0x31 DUP4 PUSH2 0x2C79 JUMP JUMPDEST SWAP2 POP PUSH2 0x3731 DUP3 PUSH2 0x36CA JUMP JUMPDEST PUSH1 0x40 DUP3 ADD SWAP1 POP SWAP2 SWAP1 POP JUMP JUMPDEST PUSH1 0x0 PUSH1 0x20 DUP3 ADD SWAP1 POP DUP2 DUP2 SUB PUSH1 0x0 DUP4 ADD MSTORE PUSH2 0x3755 DUP2 PUSH2 0x3719 JUMP JUMPDEST SWAP1 POP SWAP2 SWAP1 POP JUMP JUMPDEST PUSH32 0x4552433732314275726E61626C653A2063616C6C6572206973206E6F74206F77 PUSH1 0x0 DUP3 ADD MSTORE PUSH32 0x6E6572206E6F7220617070726F76656400000000000000000000000000000000 PUSH1 0x20 DUP3 ADD MSTORE POP JUMP JUMPDEST PUSH1 0x0 PUSH2 0x37B8 PUSH1 0x30 DUP4 PUSH2 0x2C79 JUMP JUMPDEST SWAP2 POP PUSH2 0x37C3 DUP3 PUSH2 0x375C JUMP JUMPDEST PUSH1 0x40 DUP3 ADD SWAP1 POP SWAP2 SWAP1 POP JUMP JUMPDEST PUSH1 0x0 PUSH1 0x20 DUP3 ADD SWAP1 POP DUP2 DUP2 SUB PUSH1 0x0 DUP4 ADD MSTORE PUSH2 0x37E7 DUP2 PUSH2 0x37AB JUMP JUMPDEST SWAP1 POP SWAP2 SWAP1 POP JUMP JUMPDEST PUSH32 0x4F776E61626C653A2063616C6C6572206973206E6F7420746865206F776E6572 PUSH1 0x0 DUP3 ADD MSTORE POP JUMP JUMPDEST PUSH1 0x0 PUSH2 0x3824 PUSH1 0x20 DUP4 PUSH2 0x2C79 JUMP JUMPDEST SWAP2 POP PUSH2 0x382F DUP3 PUSH2 0x37EE JUMP JUMPDEST PUSH1 0x20 DUP3 ADD SWAP1 POP SWAP2 SWAP1 POP JUMP JUMPDEST PUSH1 0x0 PUSH1 0x20 DUP3 ADD SWAP1 POP DUP2 DUP2 SUB PUSH1 0x0 DUP4 ADD MSTORE PUSH2 0x3853 DUP2 PUSH2 0x3817 JUMP JUMPDEST SWAP1 POP SWAP2 SWAP1 POP JUMP JUMPDEST PUSH32 0x4552433732313A206F776E657220717565727920666F72206E6F6E6578697374 PUSH1 0x0 DUP3 ADD MSTORE PUSH32 0x656E7420746F6B656E0000000000000000000000000000000000000000000000 PUSH1 0x20 DUP3 ADD MSTORE POP JUMP JUMPDEST PUSH1 0x0 PUSH2 0x38B6 PUSH1 0x29 DUP4 PUSH2 0x2C79 JUMP JUMPDEST SWAP2 POP PUSH2 0x38C1 DUP3 PUSH2 0x385A JUMP JUMPDEST PUSH1 0x40 DUP3 ADD SWAP1 POP SWAP2 SWAP1 POP JUMP JUMPDEST PUSH1 0x0 PUSH1 0x20 DUP3 ADD SWAP1 POP DUP2 DUP2 SUB PUSH1 0x0 DUP4 ADD MSTORE PUSH2 0x38E5 DUP2 PUSH2 0x38A9 JUMP JUMPDEST SWAP1 POP SWAP2 SWAP1 POP JUMP JUMPDEST PUSH32 0x6E6F742D617574686F72697A6564000000000000000000000000000000000000 PUSH1 0x0 DUP3 ADD MSTORE POP JUMP JUMPDEST PUSH1 0x0 PUSH2 0x3922 PUSH1 0xE DUP4 PUSH2 0x2C79 JUMP JUMPDEST SWAP2 POP PUSH2 0x392D DUP3 PUSH2 0x38EC JUMP JUMPDEST PUSH1 0x20 DUP3 ADD SWAP1 POP SWAP2 SWAP1 POP JUMP JUMPDEST PUSH1 0x0 PUSH1 0x20 DUP3 ADD SWAP1 POP DUP2 DUP2 SUB PUSH1 0x0 DUP4 ADD MSTORE PUSH2 0x3951 DUP2 PUSH2 0x3915 JUMP JUMPDEST SWAP1 POP SWAP2 SWAP1 POP JUMP JUMPDEST PUSH32 0x4552433732313A2062616C616E636520717565727920666F7220746865207A65 PUSH1 0x0 DUP3 ADD MSTORE PUSH32 0x726F206164647265737300000000000000000000000000000000000000000000 PUSH1 0x20 DUP3 ADD MSTORE POP JUMP JUMPDEST PUSH1 0x0 PUSH2 0x39B4 PUSH1 0x2A DUP4 PUSH2 0x2C79 JUMP JUMPDEST SWAP2 POP PUSH2 0x39BF DUP3 PUSH2 0x3958 JUMP JUMPDEST PUSH1 0x40 DUP3 ADD SWAP1 POP SWAP2 SWAP1 POP JUMP JUMPDEST PUSH1 0x0 PUSH1 0x20 DUP3 ADD SWAP1 POP DUP2 DUP2 SUB PUSH1 0x0 DUP4 ADD MSTORE PUSH2 0x39E3 DUP2 PUSH2 0x39A7 JUMP JUMPDEST SWAP1 POP SWAP2 SWAP1 POP JUMP JUMPDEST PUSH32 0x496E697469616C697A61626C653A20636F6E747261637420697320616C726561 PUSH1 0x0 DUP3 ADD MSTORE PUSH32 0x647920696E697469616C697A6564000000000000000000000000000000000000 PUSH1 0x20 DUP3 ADD MSTORE POP JUMP JUMPDEST PUSH1 0x0 PUSH2 0x3A46 PUSH1 0x2E DUP4 PUSH2 0x2C79 JUMP JUMPDEST SWAP2 POP PUSH2 0x3A51 DUP3 PUSH2 0x39EA JUMP JUMPDEST PUSH1 0x40 DUP3 ADD SWAP1 POP SWAP2 SWAP1 POP JUMP JUMPDEST PUSH1 0x0 PUSH1 0x20 DUP3 ADD SWAP1 POP DUP2 DUP2 SUB PUSH1 0x0 DUP4 ADD MSTORE PUSH2 0x3A75 DUP2 PUSH2 0x3A39 JUMP JUMPDEST SWAP1 POP SWAP2 SWAP1 POP JUMP JUMPDEST PUSH32 0x45524337323155524953746F726167653A2055524920717565727920666F7220 PUSH1 0x0 DUP3 ADD MSTORE PUSH32 0x6E6F6E6578697374656E7420746F6B656E000000000000000000000000000000 PUSH1 0x20 DUP3 ADD MSTORE POP JUMP JUMPDEST PUSH1 0x0 PUSH2 0x3AD8 PUSH1 0x31 DUP4 PUSH2 0x2C79 JUMP JUMPDEST SWAP2 POP PUSH2 0x3AE3 DUP3 PUSH2 0x3A7C JUMP JUMPDEST PUSH1 0x40 DUP3 ADD SWAP1 POP SWAP2 SWAP1 POP JUMP JUMPDEST PUSH1 0x0 PUSH1 0x20 DUP3 ADD SWAP1 POP DUP2 DUP2 SUB PUSH1 0x0 DUP4 ADD MSTORE PUSH2 0x3B07 DUP2 PUSH2 0x3ACB JUMP JUMPDEST SWAP1 POP SWAP2 SWAP1 POP JUMP JUMPDEST PUSH1 0x0 DUP2 SWAP1 POP SWAP3 SWAP2 POP POP JUMP JUMPDEST PUSH1 0x0 PUSH2 0x3B24 DUP3 PUSH2 0x2C6E JUMP JUMPDEST PUSH2 0x3B2E DUP2 DUP6 PUSH2 0x3B0E JUMP JUMPDEST SWAP4 POP PUSH2 0x3B3E DUP2 DUP6 PUSH1 0x20 DUP7 ADD PUSH2 0x2C8A JUMP JUMPDEST DUP1 DUP5 ADD SWAP2 POP POP SWAP3 SWAP2 POP POP JUMP JUMPDEST PUSH1 0x0 PUSH2 0x3B56 DUP3 DUP6 PUSH2 0x3B19 JUMP JUMPDEST SWAP2 POP PUSH2 0x3B62 DUP3 DUP5 PUSH2 0x3B19 JUMP JUMPDEST SWAP2 POP DUP2 SWAP1 POP SWAP4 SWAP3 POP POP POP JUMP JUMPDEST PUSH32 0x4F776E61626C653A206E6577206F776E657220697320746865207A65726F2061 PUSH1 0x0 DUP3 ADD MSTORE PUSH32 0x6464726573730000000000000000000000000000000000000000000000000000 PUSH1 0x20 DUP3 ADD MSTORE POP JUMP JUMPDEST PUSH1 0x0 PUSH2 0x3BCA PUSH1 0x26 DUP4 PUSH2 0x2C79 JUMP JUMPDEST SWAP2 POP PUSH2 0x3BD5 DUP3 PUSH2 0x3B6E JUMP JUMPDEST PUSH1 0x40 DUP3 ADD SWAP1 POP SWAP2 SWAP1 POP JUMP JUMPDEST PUSH1 0x0 PUSH1 0x20 DUP3 ADD SWAP1 POP DUP2 DUP2 SUB PUSH1 0x0 DUP4 ADD MSTORE PUSH2 0x3BF9 DUP2 PUSH2 0x3BBD JUMP JUMPDEST SWAP1 POP SWAP2 SWAP1 POP JUMP JUMPDEST PUSH32 0x4552433732313A206F70657261746F7220717565727920666F72206E6F6E6578 PUSH1 0x0 DUP3 ADD MSTORE PUSH32 0x697374656E7420746F6B656E0000000000000000000000000000000000000000 PUSH1 0x20 DUP3 ADD MSTORE POP JUMP JUMPDEST PUSH1 0x0 PUSH2 0x3C5C PUSH1 0x2C DUP4 PUSH2 0x2C79 JUMP JUMPDEST SWAP2 POP PUSH2 0x3C67 DUP3 PUSH2 0x3C00 JUMP JUMPDEST PUSH1 0x40 DUP3 ADD SWAP1 POP SWAP2 SWAP1 POP JUMP JUMPDEST PUSH1 0x0 PUSH1 0x20 DUP3 ADD SWAP1 POP DUP2 DUP2 SUB PUSH1 0x0 DUP4 ADD MSTORE PUSH2 0x3C8B DUP2 PUSH2 0x3C4F JUMP JUMPDEST SWAP1 POP SWAP2 SWAP1 POP JUMP JUMPDEST PUSH32 0x4552433732313A207472616E736665722066726F6D20696E636F727265637420 PUSH1 0x0 DUP3 ADD MSTORE PUSH32 0x6F776E6572000000000000000000000000000000000000000000000000000000 PUSH1 0x20 DUP3 ADD MSTORE POP JUMP JUMPDEST PUSH1 0x0 PUSH2 0x3CEE PUSH1 0x25 DUP4 PUSH2 0x2C79 JUMP JUMPDEST SWAP2 POP PUSH2 0x3CF9 DUP3 PUSH2 0x3C92 JUMP JUMPDEST PUSH1 0x40 DUP3 ADD SWAP1 POP SWAP2 SWAP1 POP JUMP JUMPDEST PUSH1 0x0 PUSH1 0x20 DUP3 ADD SWAP1 POP DUP2 DUP2 SUB PUSH1 0x0 DUP4 ADD MSTORE PUSH2 0x3D1D DUP2 PUSH2 0x3CE1 JUMP JUMPDEST SWAP1 POP SWAP2 SWAP1 POP JUMP JUMPDEST PUSH32 0x4552433732313A207472616E7366657220746F20746865207A65726F20616464 PUSH1 0x0 DUP3 ADD MSTORE PUSH32 0x7265737300000000000000000000000000000000000000000000000000000000 PUSH1 0x20 DUP3 ADD MSTORE POP JUMP JUMPDEST PUSH1 0x0 PUSH2 0x3D80 PUSH1 0x24 DUP4 PUSH2 0x2C79 JUMP JUMPDEST SWAP2 POP PUSH2 0x3D8B DUP3 PUSH2 0x3D24 JUMP JUMPDEST PUSH1 0x40 DUP3 ADD SWAP1 POP SWAP2 SWAP1 POP JUMP JUMPDEST PUSH1 0x0 PUSH1 0x20 DUP3 ADD SWAP1 POP DUP2 DUP2 SUB PUSH1 0x0 DUP4 ADD MSTORE PUSH2 0x3DAF DUP2 PUSH2 0x3D73 JUMP JUMPDEST SWAP1 POP SWAP2 SWAP1 POP JUMP JUMPDEST PUSH32 0x4E487B7100000000000000000000000000000000000000000000000000000000 PUSH1 0x0 MSTORE PUSH1 0x11 PUSH1 0x4 MSTORE PUSH1 0x24 PUSH1 0x0 REVERT JUMPDEST PUSH1 0x0 PUSH2 0x3DF0 DUP3 PUSH2 0x2D29 JUMP JUMPDEST SWAP2 POP PUSH2 0x3DFB DUP4 PUSH2 0x2D29 JUMP JUMPDEST SWAP3 POP DUP3 DUP3 LT ISZERO PUSH2 0x3E0E JUMPI PUSH2 0x3E0D PUSH2 0x3DB6 JUMP JUMPDEST JUMPDEST DUP3 DUP3 SUB SWAP1 POP SWAP3 SWAP2 POP POP JUMP JUMPDEST PUSH1 0x0 PUSH2 0x3E24 DUP3 PUSH2 0x2D29 JUMP JUMPDEST SWAP2 POP PUSH2 0x3E2F DUP4 PUSH2 0x2D29 JUMP JUMPDEST SWAP3 POP DUP3 PUSH32 0xFFFFFFFFFFFFFFFFFFFFFFFFFFFFFFFFFFFFFFFFFFFFFFFFFFFFFFFFFFFFFFFF SUB DUP3 GT ISZERO PUSH2 0x3E64 JUMPI PUSH2 0x3E63 PUSH2 0x3DB6 JUMP JUMPDEST JUMPDEST DUP3 DUP3 ADD SWAP1 POP SWAP3 SWAP2 POP POP JUMP JUMPDEST PUSH1 0x0 PUSH1 0x40 DUP3 ADD SWAP1 POP PUSH2 0x3E84 PUSH1 0x0 DUP4 ADD DUP6 PUSH2 0x3164 JUMP JUMPDEST PUSH2 0x3E91 PUSH1 0x20 DUP4 ADD DUP5 PUSH2 0x2C44 JUMP JUMPDEST SWAP4 SWAP3 POP POP POP JUMP JUMPDEST PUSH32 0x496E697469616C697A61626C653A20636F6E7472616374206973206E6F742069 PUSH1 0x0 DUP3 ADD MSTORE PUSH32 0x6E697469616C697A696E67000000000000000000000000000000000000000000 PUSH1 0x20 DUP3 ADD MSTORE POP JUMP JUMPDEST PUSH1 0x0 PUSH2 0x3EF4 PUSH1 0x2B DUP4 PUSH2 0x2C79 JUMP JUMPDEST SWAP2 POP PUSH2 0x3EFF DUP3 PUSH2 0x3E98 JUMP JUMPDEST PUSH1 0x40 DUP3 ADD SWAP1 POP SWAP2 SWAP1 POP JUMP JUMPDEST PUSH1 0x0 PUSH1 0x20 DUP3 ADD SWAP1 POP DUP2 DUP2 SUB PUSH1 0x0 DUP4 ADD MSTORE PUSH2 0x3F23 DUP2 PUSH2 0x3EE7 JUMP JUMPDEST SWAP1 POP SWAP2 SWAP1 POP JUMP JUMPDEST PUSH32 0x4552433732313A20617070726F766520746F2063616C6C657200000000000000 PUSH1 0x0 DUP3 ADD MSTORE POP JUMP JUMPDEST PUSH1 0x0 PUSH2 0x3F60 PUSH1 0x19 DUP4 PUSH2 0x2C79 JUMP JUMPDEST SWAP2 POP PUSH2 0x3F6B DUP3 PUSH2 0x3F2A JUMP JUMPDEST PUSH1 0x20 DUP3 ADD SWAP1 POP SWAP2 SWAP1 POP JUMP JUMPDEST PUSH1 0x0 PUSH1 0x20 DUP3 ADD SWAP1 POP DUP2 DUP2 SUB PUSH1 0x0 DUP4 ADD MSTORE PUSH2 0x3F8F DUP2 PUSH2 0x3F53 JUMP JUMPDEST SWAP1 POP SWAP2 SWAP1 POP JUMP JUMPDEST PUSH32 0x4552433732313A207472616E7366657220746F206E6F6E204552433732315265 PUSH1 0x0 DUP3 ADD MSTORE PUSH32 0x63656976657220696D706C656D656E7465720000000000000000000000000000 PUSH1 0x20 DUP3 ADD MSTORE POP JUMP JUMPDEST PUSH1 0x0 PUSH2 0x3FF2 PUSH1 0x32 DUP4 PUSH2 0x2C79 JUMP JUMPDEST SWAP2 POP PUSH2 0x3FFD DUP3 PUSH2 0x3F96 JUMP JUMPDEST PUSH1 0x40 DUP3 ADD SWAP1 POP SWAP2 SWAP1 POP JUMP JUMPDEST PUSH1 0x0 PUSH1 0x20 DUP3 ADD SWAP1 POP DUP2 DUP2 SUB PUSH1 0x0 DUP4 ADD MSTORE PUSH2 0x4021 DUP2 PUSH2 0x3FE5 JUMP JUMPDEST SWAP1 POP SWAP2 SWAP1 POP JUMP JUMPDEST PUSH32 0x4552433732313A206D696E7420746F20746865207A65726F2061646472657373 PUSH1 0x0 DUP3 ADD MSTORE POP JUMP JUMPDEST PUSH1 0x0 PUSH2 0x405E PUSH1 0x20 DUP4 PUSH2 0x2C79 JUMP JUMPDEST SWAP2 POP PUSH2 0x4069 DUP3 PUSH2 0x4028 JUMP JUMPDEST PUSH1 0x20 DUP3 ADD SWAP1 POP SWAP2 SWAP1 POP JUMP JUMPDEST PUSH1 0x0 PUSH1 0x20 DUP3 ADD SWAP1 POP DUP2 DUP2 SUB PUSH1 0x0 DUP4 ADD MSTORE PUSH2 0x408D DUP2 PUSH2 0x4051 JUMP JUMPDEST SWAP1 POP SWAP2 SWAP1 POP JUMP JUMPDEST PUSH32 0x4552433732313A20746F6B656E20616C7265616479206D696E74656400000000 PUSH1 0x0 DUP3 ADD MSTORE POP JUMP JUMPDEST PUSH1 0x0 PUSH2 0x40CA PUSH1 0x1C DUP4 PUSH2 0x2C79 JUMP JUMPDEST SWAP2 POP PUSH2 0x40D5 DUP3 PUSH2 0x4094 JUMP JUMPDEST PUSH1 0x20 DUP3 ADD SWAP1 POP SWAP2 SWAP1 POP JUMP JUMPDEST PUSH1 0x0 PUSH1 0x20 DUP3 ADD SWAP1 POP DUP2 DUP2 SUB PUSH1 0x0 DUP4 ADD MSTORE PUSH2 0x40F9 DUP2 PUSH2 0x40BD JUMP JUMPDEST SWAP1 POP SWAP2 SWAP1 POP JUMP JUMPDEST PUSH32 0x45524337323155524953746F726167653A2055524920736574206F66206E6F6E PUSH1 0x0 DUP3 ADD MSTORE PUSH32 0x6578697374656E7420746F6B656E000000000000000000000000000000000000 PUSH1 0x20 DUP3 ADD MSTORE POP JUMP JUMPDEST PUSH1 0x0 PUSH2 0x415C PUSH1 0x2E DUP4 PUSH2 0x2C79 JUMP JUMPDEST SWAP2 POP PUSH2 0x4167 DUP3 PUSH2 0x4100 JUMP JUMPDEST PUSH1 0x40 DUP3 ADD SWAP1 POP SWAP2 SWAP1 POP JUMP JUMPDEST PUSH1 0x0 PUSH1 0x20 DUP3 ADD SWAP1 POP DUP2 DUP2 SUB PUSH1 0x0 DUP4 ADD MSTORE PUSH2 0x418B DUP2 PUSH2 0x414F JUMP JUMPDEST SWAP1 POP SWAP2 SWAP1 POP JUMP JUMPDEST PUSH32 0x4552433732314D657461646174613A2055524920717565727920666F72206E6F PUSH1 0x0 DUP3 ADD MSTORE PUSH32 0x6E6578697374656E7420746F6B656E0000000000000000000000000000000000 PUSH1 0x20 DUP3 ADD MSTORE POP JUMP JUMPDEST PUSH1 0x0 PUSH2 0x41EE PUSH1 0x2F DUP4 PUSH2 0x2C79 JUMP JUMPDEST SWAP2 POP PUSH2 0x41F9 DUP3 PUSH2 0x4192 JUMP JUMPDEST PUSH1 0x40 DUP3 ADD SWAP1 POP SWAP2 SWAP1 POP JUMP JUMPDEST PUSH1 0x0 PUSH1 0x20 DUP3 ADD SWAP1 POP DUP2 DUP2 SUB PUSH1 0x0 DUP4 ADD MSTORE PUSH2 0x421D DUP2 PUSH2 0x41E1 JUMP JUMPDEST SWAP1 POP SWAP2 SWAP1 POP JUMP JUMPDEST PUSH1 0x0 DUP2 MLOAD SWAP1 POP SWAP2 SWAP1 POP JUMP JUMPDEST PUSH1 0x0 DUP3 DUP3 MSTORE PUSH1 0x20 DUP3 ADD SWAP1 POP SWAP3 SWAP2 POP POP JUMP JUMPDEST PUSH1 0x0 PUSH2 0x424B DUP3 PUSH2 0x4224 JUMP JUMPDEST PUSH2 0x4255 DUP2 DUP6 PUSH2 0x422F JUMP JUMPDEST SWAP4 POP PUSH2 0x4265 DUP2 DUP6 PUSH1 0x20 DUP7 ADD PUSH2 0x2C8A JUMP JUMPDEST PUSH2 0x426E DUP2 PUSH2 0x2CBD JUMP JUMPDEST DUP5 ADD SWAP2 POP POP SWAP3 SWAP2 POP POP JUMP JUMPDEST PUSH1 0x0 PUSH1 0x80 DUP3 ADD SWAP1 POP PUSH2 0x428E PUSH1 0x0 DUP4 ADD DUP8 PUSH2 0x2DBE JUMP JUMPDEST PUSH2 0x429B PUSH1 0x20 DUP4 ADD DUP7 PUSH2 0x2DBE JUMP JUMPDEST PUSH2 0x42A8 PUSH1 0x40 DUP4 ADD DUP6 PUSH2 0x3164 JUMP JUMPDEST DUP2 DUP2 SUB PUSH1 0x60 DUP4 ADD MSTORE PUSH2 0x42BA DUP2 DUP5 PUSH2 0x4240 JUMP JUMPDEST SWAP1 POP SWAP6 SWAP5 POP POP POP POP POP JUMP JUMPDEST PUSH1 0x0 DUP2 MLOAD SWAP1 POP PUSH2 0x42D4 DUP2 PUSH2 0x2BDF JUMP JUMPDEST SWAP3 SWAP2 POP POP JUMP JUMPDEST PUSH1 0x0 PUSH1 0x20 DUP3 DUP5 SUB SLT ISZERO PUSH2 0x42F0 JUMPI PUSH2 0x42EF PUSH2 0x2BA9 JUMP JUMPDEST JUMPDEST PUSH1 0x0 PUSH2 0x42FE DUP5 DUP3 DUP6 ADD PUSH2 0x42C5 JUMP JUMPDEST SWAP2 POP POP SWAP3 SWAP2 POP POP JUMP JUMPDEST PUSH1 0x0 PUSH2 0x4312 DUP3 PUSH2 0x2D29 JUMP JUMPDEST SWAP2 POP PUSH32 0xFFFFFFFFFFFFFFFFFFFFFFFFFFFFFFFFFFFFFFFFFFFFFFFFFFFFFFFFFFFFFFFF DUP3 EQ ISZERO PUSH2 0x4345 JUMPI PUSH2 0x4344 PUSH2 0x3DB6 JUMP JUMPDEST JUMPDEST PUSH1 0x1 DUP3 ADD SWAP1 POP SWAP2 SWAP1 POP JUMP JUMPDEST PUSH32 0x4E487B7100000000000000000000000000000000000000000000000000000000 PUSH1 0x0 MSTORE PUSH1 0x12 PUSH1 0x4 MSTORE PUSH1 0x24 PUSH1 0x0 REVERT JUMPDEST PUSH1 0x0 PUSH2 0x438A DUP3 PUSH2 0x2D29 JUMP JUMPDEST SWAP2 POP PUSH2 0x4395 DUP4 PUSH2 0x2D29 JUMP JUMPDEST SWAP3 POP DUP3 PUSH2 0x43A5 JUMPI PUSH2 0x43A4 PUSH2 0x4350 JUMP JUMPDEST JUMPDEST DUP3 DUP3 DIV SWAP1 POP SWAP3 SWAP2 POP POP JUMP JUMPDEST PUSH1 0x0 PUSH2 0x43BB DUP3 PUSH2 0x2D29 JUMP JUMPDEST SWAP2 POP PUSH2 0x43C6 DUP4 PUSH2 0x2D29 JUMP JUMPDEST SWAP3 POP DUP3 PUSH2 0x43D6 JUMPI PUSH2 0x43D5 PUSH2 0x4350 JUMP JUMPDEST JUMPDEST DUP3 DUP3 MOD SWAP1 POP SWAP3 SWAP2 POP POP JUMP JUMPDEST PUSH32 0x4E487B7100000000000000000000000000000000000000000000000000000000 PUSH1 0x0 MSTORE PUSH1 0x32 PUSH1 0x4 MSTORE PUSH1 0x24 PUSH1 0x0 REVERT INVALID LOG2 PUSH5 0x6970667358 0x22 SLT KECCAK256 SWAP15 GASLIMIT 0xDC 0x2A PUSH20 0xB8B0FE2F187BEFFF8AF05EE1351179A1A4B38F8F 0xCB RETURNDATACOPY PUSH24 0x2ABFA4D564736F6C634300080C0033000000000000000000 "
		},
		"gasEstimates": {
			"creation": {
				"codeDepositCost": "3495600",
				"executionCost": "3917",
				"totalCost": "3499517"
			},
			"external": {
				"approve(address,uint256)": "infinite",
				"balanceOf(address)": "2968",
				"burn(uint256)": "infinite",
				"deny(address)": "7860",
				"denyOper(address)": "7816",
				"getApproved(uint256)": "5251",
				"initialize()": "infinite",
				"isApprovedForAll(address,address)": "infinite",
				"mintUniqueTokenTo(address,uint256,string,bool)": "infinite",
				"name()": "infinite",
				"onERC721Received(address,address,uint256,bytes)": "infinite",
				"owner()": "2612",
				"ownerOf(uint256)": "3067",
				"rely(address)": "24916",
				"relyOper(address)": "24938",
				"renounceOwnership()": "30485",
				"safeTransferFrom(address,address,uint256)": "infinite",
				"safeTransferFrom(address,address,uint256,bytes)": "infinite",
				"setAdmin(address)": "24966",
				"setApprovalForAll(address,bool)": "infinite",
				"setBaseURI(string)": "infinite",
				"setTest(string)": "infinite",
				"setTokenIdType(uint256,bool)": "infinite",
				"supportsInterface(bytes4)": "820",
				"symbol()": "infinite",
				"test()": "infinite",
				"tokenURI(uint256)": "infinite",
				"transferFrom(address,address,uint256)": "infinite",
				"transferOwnership(address)": "30811"
			},
			"internal": {
				"_baseURI()": "infinite",
				"_mint(address,uint256,bool)": "infinite",
				"_safeMint(address,uint256,bool)": "infinite",
				"_safeMint(address,uint256,bool,bytes memory)": "infinite",
				"_setTokenIdType(uint256,bool)": "infinite"
			}
		},
		"methodIdentifiers": {
			"approve(address,uint256)": "095ea7b3",
			"balanceOf(address)": "70a08231",
			"burn(uint256)": "42966c68",
			"deny(address)": "9c52a7f1",
			"denyOper(address)": "8f47012e",
			"getApproved(uint256)": "081812fc",
			"initialize()": "8129fc1c",
			"isApprovedForAll(address,address)": "e985e9c5",
			"mintUniqueTokenTo(address,uint256,string,bool)": "c327325d",
			"name()": "06fdde03",
			"onERC721Received(address,address,uint256,bytes)": "150b7a02",
			"owner()": "8da5cb5b",
			"ownerOf(uint256)": "6352211e",
			"rely(address)": "65fae35e",
			"relyOper(address)": "bde5a6aa",
			"renounceOwnership()": "715018a6",
			"safeTransferFrom(address,address,uint256)": "42842e0e",
			"safeTransferFrom(address,address,uint256,bytes)": "b88d4fde",
			"setAdmin(address)": "704b6c02",
			"setApprovalForAll(address,bool)": "a22cb465",
			"setBaseURI(string)": "55f804b3",
			"setTest(string)": "c196f2de",
			"setTokenIdType(uint256,bool)": "7b4fca3d",
			"supportsInterface(bytes4)": "01ffc9a7",
			"symbol()": "95d89b41",
			"test()": "f8a8fd6d",
			"tokenURI(uint256)": "c87b56dd",
			"transferFrom(address,address,uint256)": "23b872dd",
			"transferOwnership(address)": "f2fde38b"
		}
	},
	"abi": [
		{
			"anonymous": false,
			"inputs": [
				{
					"indexed": true,
					"internalType": "address",
					"name": "owner",
					"type": "address"
				},
				{
					"indexed": true,
					"internalType": "address",
					"name": "approved",
					"type": "address"
				},
				{
					"indexed": true,
					"internalType": "uint256",
					"name": "tokenId",
					"type": "uint256"
				}
			],
			"name": "Approval",
			"type": "event"
		},
		{
			"anonymous": false,
			"inputs": [
				{
					"indexed": true,
					"internalType": "address",
					"name": "owner",
					"type": "address"
				},
				{
					"indexed": true,
					"internalType": "address",
					"name": "operator",
					"type": "address"
				},
				{
					"indexed": false,
					"internalType": "bool",
					"name": "approved",
					"type": "bool"
				}
			],
			"name": "ApprovalForAll",
			"type": "event"
		},
		{
			"anonymous": false,
			"inputs": [
				{
					"indexed": true,
					"internalType": "address",
					"name": "previousOwner",
					"type": "address"
				},
				{
					"indexed": true,
					"internalType": "address",
					"name": "newOwner",
					"type": "address"
				}
			],
			"name": "OwnershipTransferred",
			"type": "event"
		},
		{
			"anonymous": false,
			"inputs": [
				{
					"indexed": false,
					"internalType": "uint256",
					"name": "",
					"type": "uint256"
				},
				{
					"indexed": false,
					"internalType": "bool",
					"name": "",
					"type": "bool"
				}
			],
			"name": "SetTokenIdType",
			"type": "event"
		},
		{
			"anonymous": false,
			"inputs": [
				{
					"indexed": true,
					"internalType": "address",
					"name": "from",
					"type": "address"
				},
				{
					"indexed": true,
					"internalType": "address",
					"name": "to",
					"type": "address"
				},
				{
					"indexed": true,
					"internalType": "uint256",
					"name": "tokenId",
					"type": "uint256"
				}
			],
			"name": "Transfer",
			"type": "event"
		},
		{
			"inputs": [
				{
					"internalType": "address",
					"name": "to",
					"type": "address"
				},
				{
					"internalType": "uint256",
					"name": "tokenId",
					"type": "uint256"
				}
			],
			"name": "approve",
			"outputs": [],
			"stateMutability": "nonpayable",
			"type": "function"
		},
		{
			"inputs": [
				{
					"internalType": "address",
					"name": "owner",
					"type": "address"
				}
			],
			"name": "balanceOf",
			"outputs": [
				{
					"internalType": "uint256",
					"name": "",
					"type": "uint256"
				}
			],
			"stateMutability": "view",
			"type": "function"
		},
		{
			"inputs": [
				{
					"internalType": "uint256",
					"name": "tokenId",
					"type": "uint256"
				}
			],
			"name": "burn",
			"outputs": [],
			"stateMutability": "nonpayable",
			"type": "function"
		},
		{
			"inputs": [
				{
					"internalType": "address",
					"name": "guy",
					"type": "address"
				}
			],
			"name": "deny",
			"outputs": [],
			"stateMutability": "nonpayable",
			"type": "function"
		},
		{
			"inputs": [
				{
					"internalType": "address",
					"name": "oper",
					"type": "address"
				}
			],
			"name": "denyOper",
			"outputs": [],
			"stateMutability": "nonpayable",
			"type": "function"
		},
		{
			"inputs": [
				{
					"internalType": "uint256",
					"name": "tokenId",
					"type": "uint256"
				}
			],
			"name": "getApproved",
			"outputs": [
				{
					"internalType": "address",
					"name": "",
					"type": "address"
				}
			],
			"stateMutability": "view",
			"type": "function"
		},
		{
			"inputs": [],
			"name": "initialize",
			"outputs": [],
			"stateMutability": "nonpayable",
			"type": "function"
		},
		{
			"inputs": [
				{
					"internalType": "address",
					"name": "owner",
					"type": "address"
				},
				{
					"internalType": "address",
					"name": "operator",
					"type": "address"
				}
			],
			"name": "isApprovedForAll",
			"outputs": [
				{
					"internalType": "bool",
					"name": "",
					"type": "bool"
				}
			],
			"stateMutability": "view",
			"type": "function"
		},
		{
			"inputs": [
				{
					"internalType": "address",
					"name": "to",
					"type": "address"
				},
				{
					"internalType": "uint256",
					"name": "tokenId",
					"type": "uint256"
				},
				{
					"internalType": "string",
					"name": "uri",
					"type": "string"
				},
				{
					"internalType": "bool",
					"name": "idType",
					"type": "bool"
				}
			],
			"name": "mintUniqueTokenTo",
			"outputs": [],
			"stateMutability": "nonpayable",
			"type": "function"
		},
		{
			"inputs": [],
			"name": "name",
			"outputs": [
				{
					"internalType": "string",
					"name": "",
					"type": "string"
				}
			],
			"stateMutability": "view",
			"type": "function"
		},
		{
			"inputs": [
				{
					"internalType": "address",
					"name": "operator",
					"type": "address"
				},
				{
					"internalType": "address",
					"name": "from",
					"type": "address"
				},
				{
					"internalType": "uint256",
					"name": "tokenId",
					"type": "uint256"
				},
				{
					"internalType": "bytes",
					"name": "data",
					"type": "bytes"
				}
			],
			"name": "onERC721Received",
			"outputs": [
				{
					"internalType": "bytes4",
					"name": "",
					"type": "bytes4"
				}
			],
			"stateMutability": "nonpayable",
			"type": "function"
		},
		{
			"inputs": [],
			"name": "owner",
			"outputs": [
				{
					"internalType": "address",
					"name": "",
					"type": "address"
				}
			],
			"stateMutability": "view",
			"type": "function"
		},
		{
			"inputs": [
				{
					"internalType": "uint256",
					"name": "tokenId",
					"type": "uint256"
				}
			],
			"name": "ownerOf",
			"outputs": [
				{
					"internalType": "address",
					"name": "",
					"type": "address"
				}
			],
			"stateMutability": "view",
			"type": "function"
		},
		{
			"inputs": [
				{
					"internalType": "address",
					"name": "guy",
					"type": "address"
				}
			],
			"name": "rely",
			"outputs": [],
			"stateMutability": "nonpayable",
			"type": "function"
		},
		{
			"inputs": [
				{
					"internalType": "address",
					"name": "oper",
					"type": "address"
				}
			],
			"name": "relyOper",
			"outputs": [],
			"stateMutability": "nonpayable",
			"type": "function"
		},
		{
			"inputs": [],
			"name": "renounceOwnership",
			"outputs": [],
			"stateMutability": "nonpayable",
			"type": "function"
		},
		{
			"inputs": [
				{
					"internalType": "address",
					"name": "from",
					"type": "address"
				},
				{
					"internalType": "address",
					"name": "to",
					"type": "address"
				},
				{
					"internalType": "uint256",
					"name": "tokenId",
					"type": "uint256"
				}
			],
			"name": "safeTransferFrom",
			"outputs": [],
			"stateMutability": "nonpayable",
			"type": "function"
		},
		{
			"inputs": [
				{
					"internalType": "address",
					"name": "from",
					"type": "address"
				},
				{
					"internalType": "address",
					"name": "to",
					"type": "address"
				},
				{
					"internalType": "uint256",
					"name": "tokenId",
					"type": "uint256"
				},
				{
					"internalType": "bytes",
					"name": "_data",
					"type": "bytes"
				}
			],
			"name": "safeTransferFrom",
			"outputs": [],
			"stateMutability": "nonpayable",
			"type": "function"
		},
		{
			"inputs": [
				{
					"internalType": "address",
					"name": "admin_",
					"type": "address"
				}
			],
			"name": "setAdmin",
			"outputs": [],
			"stateMutability": "nonpayable",
			"type": "function"
		},
		{
			"inputs": [
				{
					"internalType": "address",
					"name": "operator",
					"type": "address"
				},
				{
					"internalType": "bool",
					"name": "approved",
					"type": "bool"
				}
			],
			"name": "setApprovalForAll",
			"outputs": [],
			"stateMutability": "nonpayable",
			"type": "function"
		},
		{
			"inputs": [
				{
					"internalType": "string",
					"name": "baseUri_",
					"type": "string"
				}
			],
			"name": "setBaseURI",
			"outputs": [],
			"stateMutability": "nonpayable",
			"type": "function"
		},
		{
			"inputs": [
				{
					"internalType": "string",
					"name": "_test",
					"type": "string"
				}
			],
			"name": "setTest",
			"outputs": [],
			"stateMutability": "nonpayable",
			"type": "function"
		},
		{
			"inputs": [
				{
					"internalType": "uint256",
					"name": "tokenId",
					"type": "uint256"
				},
				{
					"internalType": "bool",
					"name": "idType",
					"type": "bool"
				}
			],
			"name": "setTokenIdType",
			"outputs": [],
			"stateMutability": "nonpayable",
			"type": "function"
		},
		{
			"inputs": [
				{
					"internalType": "bytes4",
					"name": "interfaceId",
					"type": "bytes4"
				}
			],
			"name": "supportsInterface",
			"outputs": [
				{
					"internalType": "bool",
					"name": "",
					"type": "bool"
				}
			],
			"stateMutability": "view",
			"type": "function"
		},
		{
			"inputs": [],
			"name": "symbol",
			"outputs": [
				{
					"internalType": "string",
					"name": "",
					"type": "string"
				}
			],
			"stateMutability": "view",
			"type": "function"
		},
		{
			"inputs": [],
			"name": "test",
			"outputs": [
				{
					"internalType": "string",
					"name": "",
					"type": "string"
				}
			],
			"stateMutability": "view",
			"type": "function"
		},
		{
			"inputs": [
				{
					"internalType": "uint256",
					"name": "tokenId",
					"type": "uint256"
				}
			],
			"name": "tokenURI",
			"outputs": [
				{
					"internalType": "string",
					"name": "",
					"type": "string"
				}
			],
			"stateMutability": "view",
			"type": "function"
		},
		{
			"inputs": [
				{
					"internalType": "address",
					"name": "from",
					"type": "address"
				},
				{
					"internalType": "address",
					"name": "to",
					"type": "address"
				},
				{
					"internalType": "uint256",
					"name": "tokenId",
					"type": "uint256"
				}
			],
			"name": "transferFrom",
			"outputs": [],
			"stateMutability": "nonpayable",
			"type": "function"
		},
		{
			"inputs": [
				{
					"internalType": "address",
					"name": "newOwner",
					"type": "address"
				}
			],
			"name": "transferOwnership",
			"outputs": [],
			"stateMutability": "nonpayable",
			"type": "function"
		}
	]
}