{
	"data": {
		"bytecode": {
			"linkReferences": {},
			"object": "608060405234801561001057600080fd5b506141ac806100206000396000f3fe608060405234801561001057600080fd5b506004361061018e5760003560e01c80637b4fca3d116100de578063a22cb46511610097578063c327325d11610071578063c327325d14610441578063c87b56dd1461045d578063e985e9c51461048d578063f2fde38b146104bd5761018e565b8063a22cb465146103ed578063b88d4fde14610409578063bde5a6aa146104255761018e565b80637b4fca3d146103535780638129fc1c1461036f5780638da5cb5b146103795780638f47012e1461039757806395d89b41146103b35780639c52a7f1146103d15761018e565b806342842e0e1161014b57806365fae35e1161012557806365fae35e146102e1578063704b6c02146102fd57806370a0823114610319578063715018a6146103495761018e565b806342842e0e1461027957806342966c68146102955780636352211e146102b15761018e565b806301ffc9a71461019357806306fdde03146101c3578063081812fc146101e1578063095ea7b314610211578063150b7a021461022d57806323b872dd1461025d575b600080fd5b6101ad60048036038101906101a891906129ba565b6104d9565b6040516101ba9190612a02565b60405180910390f35b6101cb6105bb565b6040516101d89190612ab6565b60405180910390f35b6101fb60048036038101906101f69190612b0e565b61064d565b6040516102089190612b7c565b60405180910390f35b61022b60048036038101906102269190612bc3565b6106d2565b005b61024760048036038101906102429190612c68565b6107ea565b6040516102549190612cff565b60405180910390f35b61027760048036038101906102729190612d1a565b6107ff565b005b610293600480360381019061028e9190612d1a565b61091b565b005b6102af60048036038101906102aa9190612b0e565b61093b565b005b6102cb60048036038101906102c69190612b0e565b610997565b6040516102d89190612b7c565b60405180910390f35b6102fb60048036038101906102f69190612d6d565b610a49565b005b61031760048036038101906103129190612d6d565b610b13565b005b610333600480360381019061032e9190612d6d565b610bd7565b6040516103409190612da9565b60405180910390f35b610351610c8f565b005b61036d60048036038101906103689190612df0565b610d17565b005b610377610da7565b005b610381610f54565b60405161038e9190612b7c565b60405180910390f35b6103b160048036038101906103ac9190612d6d565b610f7e565b005b6103bb611048565b6040516103c89190612ab6565b60405180910390f35b6103eb60048036038101906103e69190612d6d565b6110da565b005b61040760048036038101906104029190612e30565b6111a4565b005b610423600480360381019061041e9190612fa0565b6111ba565b005b61043f600480360381019061043a9190612d6d565b6112a2565b005b61045b600480360381019061045691906130c4565b61136c565b005b61047760048036038101906104729190612b0e565b611387565b6040516104849190612ab6565b60405180910390f35b6104a760048036038101906104a29190613147565b6114d9565b6040516104b49190612a02565b60405180910390f35b6104d760048036038101906104d29190612d6d565b61156d565b005b60007f80ac58cd000000000000000000000000000000000000000000000000000000007bffffffffffffffffffffffffffffffffffffffffffffffffffffffff1916827bffffffffffffffffffffffffffffffffffffffffffffffffffffffff191614806105a457507f5b5e139f000000000000000000000000000000000000000000000000000000007bffffffffffffffffffffffffffffffffffffffffffffffffffffffff1916827bffffffffffffffffffffffffffffffffffffffffffffffffffffffff1916145b806105b457506105b382611665565b5b9050919050565b6060609780546105ca906131b6565b80601f01602080910402602001604051908101604052809291908181526020018280546105f6906131b6565b80156106435780601f1061061857610100808354040283529160200191610643565b820191906000526020600020905b81548152906001019060200180831161062657829003601f168201915b5050505050905090565b6000610658826116cf565b610697576040517f08c379a000000000000000000000000000000000000000000000000000000000815260040161068e9061325a565b60405180910390fd5b609b600083815260200190815260200160002060009054906101000a900473ffffffffffffffffffffffffffffffffffffffff169050919050565b60006106dd82610997565b90508073ffffffffffffffffffffffffffffffffffffffff168373ffffffffffffffffffffffffffffffffffffffff16141561074e576040517f08c379a0000000000000000000000000000000000000000000000000000000008152600401610745906132ec565b60405180910390fd5b8073ffffffffffffffffffffffffffffffffffffffff1661076d61173b565b73ffffffffffffffffffffffffffffffffffffffff16148061079c575061079b8161079661173b565b6114d9565b5b6107db576040517f08c379a00000000000000000000000000000000000000000000000000000000081526004016107d29061337e565b60405180910390fd5b6107e58383611743565b505050565b600063150b7a0260e01b905095945050505050565b6001151560fd600083815260200190815260200160002060009054906101000a900460ff16151514156108ba57600160fe600061083a61173b565b73ffffffffffffffffffffffffffffffffffffffff1673ffffffffffffffffffffffffffffffffffffffff16815260200190815260200160002054146108b5576040517f08c379a00000000000000000000000000000000000000000000000000000000081526004016108ac90613410565b60405180910390fd5b61090b565b6108cb6108c561173b565b826117fc565b61090a576040517f08c379a0000000000000000000000000000000000000000000000000000000008152600401610901906134a2565b60405180910390fd5b5b6109168383836118da565b505050565b610936838383604051806020016040528060008152506111ba565b505050565b61094c61094661173b565b826117fc565b61098b576040517f08c379a000000000000000000000000000000000000000000000000000000000815260040161098290613534565b60405180910390fd5b61099481611b41565b50565b6000806099600084815260200190815260200160002060009054906101000a900473ffffffffffffffffffffffffffffffffffffffff169050600073ffffffffffffffffffffffffffffffffffffffff168173ffffffffffffffffffffffffffffffffffffffff161415610a40576040517f08c379a0000000000000000000000000000000000000000000000000000000008152600401610a37906135c6565b60405180910390fd5b80915050919050565b600160fc60003373ffffffffffffffffffffffffffffffffffffffff1673ffffffffffffffffffffffffffffffffffffffff1681526020019081526020016000205414610acb576040517f08c379a0000000000000000000000000000000000000000000000000000000008152600401610ac290613632565b60405180910390fd5b600160fc60008373ffffffffffffffffffffffffffffffffffffffff1673ffffffffffffffffffffffffffffffffffffffff1681526020019081526020016000208190555050565b610b1b61173b565b73ffffffffffffffffffffffffffffffffffffffff16610b39610f54565b73ffffffffffffffffffffffffffffffffffffffff1614610b8f576040517f08c379a0000000000000000000000000000000000000000000000000000000008152600401610b869061369e565b60405180910390fd5b600160fc60008373ffffffffffffffffffffffffffffffffffffffff1673ffffffffffffffffffffffffffffffffffffffff1681526020019081526020016000208190555050565b60008073ffffffffffffffffffffffffffffffffffffffff168273ffffffffffffffffffffffffffffffffffffffff161415610c48576040517f08c379a0000000000000000000000000000000000000000000000000000000008152600401610c3f90613730565b60405180910390fd5b609a60008373ffffffffffffffffffffffffffffffffffffffff1673ffffffffffffffffffffffffffffffffffffffff168152602001908152602001600020549050919050565b610c9761173b565b73ffffffffffffffffffffffffffffffffffffffff16610cb5610f54565b73ffffffffffffffffffffffffffffffffffffffff1614610d0b576040517f08c379a0000000000000000000000000000000000000000000000000000000008152600401610d029061369e565b60405180910390fd5b610d156000611b94565b565b600160fc60003373ffffffffffffffffffffffffffffffffffffffff1673ffffffffffffffffffffffffffffffffffffffff1681526020019081526020016000205414610d99576040517f08c379a0000000000000000000000000000000000000000000000000000000008152600401610d9090613632565b60405180910390fd5b610da38282611c5a565b5050565b600060019054906101000a900460ff16610dcf5760008054906101000a900460ff1615610dd8565b610dd7611cc2565b5b610e17576040517f08c379a0000000000000000000000000000000000000000000000000000000008152600401610e0e906137c2565b60405180910390fd5b60008060019054906101000a900460ff161590508015610e67576001600060016101000a81548160ff02191690831515021790555060016000806101000a81548160ff0219169083151502179055505b600160fc60003373ffffffffffffffffffffffffffffffffffffffff1673ffffffffffffffffffffffffffffffffffffffff16815260200190815260200160002081905550610f206040518060400160405280600981526020017f746f70686f6c64657200000000000000000000000000000000000000000000008152506040518060400160405280600281526020017f5450000000000000000000000000000000000000000000000000000000000000815250611cd3565b610f28611d30565b610f30611d81565b8015610f515760008060016101000a81548160ff0219169083151502179055505b50565b6000603360009054906101000a900473ffffffffffffffffffffffffffffffffffffffff16905090565b600160fc60003373ffffffffffffffffffffffffffffffffffffffff1673ffffffffffffffffffffffffffffffffffffffff1681526020019081526020016000205414611000576040517f08c379a0000000000000000000000000000000000000000000000000000000008152600401610ff790613632565b60405180910390fd5b600060fe60008373ffffffffffffffffffffffffffffffffffffffff1673ffffffffffffffffffffffffffffffffffffffff1681526020019081526020016000208190555050565b606060988054611057906131b6565b80601f0160208091040260200160405190810160405280929190818152602001828054611083906131b6565b80156110d05780601f106110a5576101008083540402835291602001916110d0565b820191906000526020600020905b8154815290600101906020018083116110b357829003601f168201915b5050505050905090565b600160fc60003373ffffffffffffffffffffffffffffffffffffffff1673ffffffffffffffffffffffffffffffffffffffff168152602001908152602001600020541461115c576040517f08c379a000000000000000000000000000000000000000000000000000000000815260040161115390613632565b60405180910390fd5b600060fc60008373ffffffffffffffffffffffffffffffffffffffff1673ffffffffffffffffffffffffffffffffffffffff1681526020019081526020016000208190555050565b6111b66111af61173b565b8383611dda565b5050565b6001151560fd600084815260200190815260200160002060009054906101000a900460ff161515141561123f57600160fe60006111f561173b565b73ffffffffffffffffffffffffffffffffffffffff1673ffffffffffffffffffffffffffffffffffffffff168152602001908152602001600020541461123a57600080fd5b611290565b61125061124a61173b565b836117fc565b61128f576040517f08c379a0000000000000000000000000000000000000000000000000000000008152600401611286906134a2565b60405180910390fd5b5b61129c84848484611f47565b50505050565b600160fc60003373ffffffffffffffffffffffffffffffffffffffff1673ffffffffffffffffffffffffffffffffffffffff1681526020019081526020016000205414611324576040517f08c379a000000000000000000000000000000000000000000000000000000000815260040161131b90613632565b60405180910390fd5b600160fe60008373ffffffffffffffffffffffffffffffffffffffff1673ffffffffffffffffffffffffffffffffffffffff1681526020019081526020016000208190555050565b611377848483611fa3565b61138183836121a9565b50505050565b6060611392826116cf565b6113d1576040517f08c379a00000000000000000000000000000000000000000000000000000000081526004016113c890613854565b60405180910390fd5b600060c9600084815260200190815260200160002080546113f1906131b6565b80601f016020809104026020016040519081016040528092919081815260200182805461141d906131b6565b801561146a5780601f1061143f5761010080835404028352916020019161146a565b820191906000526020600020905b81548152906001019060200180831161144d57829003601f168201915b50505050509050600061147b61221d565b90506000815114156114915781925050506114d4565b6000825111156114c65780826040516020016114ae9291906138b0565b604051602081830303815290604052925050506114d4565b6114cf846122af565b925050505b919050565b6000609c60008473ffffffffffffffffffffffffffffffffffffffff1673ffffffffffffffffffffffffffffffffffffffff16815260200190815260200160002060008373ffffffffffffffffffffffffffffffffffffffff1673ffffffffffffffffffffffffffffffffffffffff16815260200190815260200160002060009054906101000a900460ff16905092915050565b61157561173b565b73ffffffffffffffffffffffffffffffffffffffff16611593610f54565b73ffffffffffffffffffffffffffffffffffffffff16146115e9576040517f08c379a00000000000000000000000000000000000000000000000000000000081526004016115e09061369e565b60405180910390fd5b600073ffffffffffffffffffffffffffffffffffffffff168173ffffffffffffffffffffffffffffffffffffffff161415611659576040517f08c379a000000000000000000000000000000000000000000000000000000000815260040161165090613946565b60405180910390fd5b61166281611b94565b50565b60007f01ffc9a7000000000000000000000000000000000000000000000000000000007bffffffffffffffffffffffffffffffffffffffffffffffffffffffff1916827bffffffffffffffffffffffffffffffffffffffffffffffffffffffff1916149050919050565b60008073ffffffffffffffffffffffffffffffffffffffff166099600084815260200190815260200160002060009054906101000a900473ffffffffffffffffffffffffffffffffffffffff1673ffffffffffffffffffffffffffffffffffffffff1614159050919050565b600033905090565b81609b600083815260200190815260200160002060006101000a81548173ffffffffffffffffffffffffffffffffffffffff021916908373ffffffffffffffffffffffffffffffffffffffff160217905550808273ffffffffffffffffffffffffffffffffffffffff166117b683610997565b73ffffffffffffffffffffffffffffffffffffffff167f8c5be1e5ebec7d5bd14f71427d1e84f3dd0314c0f7b2291e5b200ac8c7c3b92560405160405180910390a45050565b6000611807826116cf565b611846576040517f08c379a000000000000000000000000000000000000000000000000000000000815260040161183d906139d8565b60405180910390fd5b600061185183610997565b90508073ffffffffffffffffffffffffffffffffffffffff168473ffffffffffffffffffffffffffffffffffffffff1614806118c057508373ffffffffffffffffffffffffffffffffffffffff166118a88461064d565b73ffffffffffffffffffffffffffffffffffffffff16145b806118d157506118d081856114d9565b5b91505092915050565b8273ffffffffffffffffffffffffffffffffffffffff166118fa82610997565b73ffffffffffffffffffffffffffffffffffffffff1614611950576040517f08c379a000000000000000000000000000000000000000000000000000000000815260040161194790613a6a565b60405180910390fd5b600073ffffffffffffffffffffffffffffffffffffffff168273ffffffffffffffffffffffffffffffffffffffff1614156119c0576040517f08c379a00000000000000000000000000000000000000000000000000000000081526004016119b790613afc565b60405180910390fd5b6119cb838383612356565b6119d6600082611743565b6001609a60008573ffffffffffffffffffffffffffffffffffffffff1673ffffffffffffffffffffffffffffffffffffffff1681526020019081526020016000206000828254611a269190613b4b565b925050819055506001609a60008473ffffffffffffffffffffffffffffffffffffffff1673ffffffffffffffffffffffffffffffffffffffff1681526020019081526020016000206000828254611a7d9190613b7f565b92505081905550816099600083815260200190815260200160002060006101000a81548173ffffffffffffffffffffffffffffffffffffffff021916908373ffffffffffffffffffffffffffffffffffffffff160217905550808273ffffffffffffffffffffffffffffffffffffffff168473ffffffffffffffffffffffffffffffffffffffff167fddf252ad1be2c89b69c2b068fc378daa952ba7f163c4a11628f55a4df523b3ef60405160405180910390a4611b3c83838361235b565b505050565b611b4a81612360565b600060c960008381526020019081526020016000208054611b6a906131b6565b905014611b915760c960008281526020019081526020016000206000611b90919061286b565b5b50565b6000603360009054906101000a900473ffffffffffffffffffffffffffffffffffffffff16905081603360006101000a81548173ffffffffffffffffffffffffffffffffffffffff021916908373ffffffffffffffffffffffffffffffffffffffff1602179055508173ffffffffffffffffffffffffffffffffffffffff168173ffffffffffffffffffffffffffffffffffffffff167f8be0079c531659141344cd1fd0a4f28419497f9722a3daafe3b4186f6b6457e060405160405180910390a35050565b8060fd600084815260200190815260200160002060006101000a81548160ff0219169083151502179055507f771f1d1daa3cca46394b02d1373b06948f241b5b7e948a11cbbf6a2a90dbcb2b8282604051611cb6929190613bd5565b60405180910390a15050565b6000611ccd3061247d565b15905090565b600060019054906101000a900460ff16611d22576040517f08c379a0000000000000000000000000000000000000000000000000000000008152600401611d1990613c70565b60405180910390fd5b611d2c82826124a0565b5050565b600060019054906101000a900460ff16611d7f576040517f08c379a0000000000000000000000000000000000000000000000000000000008152600401611d7690613c70565b60405180910390fd5b565b600060019054906101000a900460ff16611dd0576040517f08c379a0000000000000000000000000000000000000000000000000000000008152600401611dc790613c70565b60405180910390fd5b611dd8612521565b565b8173ffffffffffffffffffffffffffffffffffffffff168373ffffffffffffffffffffffffffffffffffffffff161415611e49576040517f08c379a0000000000000000000000000000000000000000000000000000000008152600401611e4090613cdc565b60405180910390fd5b80609c60008573ffffffffffffffffffffffffffffffffffffffff1673ffffffffffffffffffffffffffffffffffffffff16815260200190815260200160002060008473ffffffffffffffffffffffffffffffffffffffff1673ffffffffffffffffffffffffffffffffffffffff16815260200190815260200160002060006101000a81548160ff0219169083151502179055508173ffffffffffffffffffffffffffffffffffffffff168373ffffffffffffffffffffffffffffffffffffffff167f17307eab39ab6107e8899845ad3d59bd9653f200f220920489ca2b5937696c3183604051611f3a9190612a02565b60405180910390a3505050565b611f528484846118da565b611f5e84848484612582565b611f9d576040517f08c379a0000000000000000000000000000000000000000000000000000000008152600401611f9490613d6e565b60405180910390fd5b50505050565b600073ffffffffffffffffffffffffffffffffffffffff168373ffffffffffffffffffffffffffffffffffffffff161415612013576040517f08c379a000000000000000000000000000000000000000000000000000000000815260040161200a90613dda565b60405180910390fd5b61201c826116cf565b1561205c576040517f08c379a000000000000000000000000000000000000000000000000000000000815260040161205390613e46565b60405180910390fd5b61206860008484612356565b6001609a60008573ffffffffffffffffffffffffffffffffffffffff1673ffffffffffffffffffffffffffffffffffffffff16815260200190815260200160002060008282546120b89190613b7f565b92505081905550826099600084815260200190815260200160002060006101000a81548173ffffffffffffffffffffffffffffffffffffffff021916908373ffffffffffffffffffffffffffffffffffffffff1602179055508060fd600084815260200190815260200160002060006101000a81548160ff021916908315150217905550818373ffffffffffffffffffffffffffffffffffffffff16600073ffffffffffffffffffffffffffffffffffffffff167fddf252ad1be2c89b69c2b068fc378daa952ba7f163c4a11628f55a4df523b3ef60405160405180910390a46121a46000848461235b565b505050565b6121b2826116cf565b6121f1576040517f08c379a00000000000000000000000000000000000000000000000000000000081526004016121e890613ed8565b60405180910390fd5b8060c9600084815260200190815260200160002090805190602001906122189291906128ab565b505050565b606060fb805461222c906131b6565b80601f0160208091040260200160405190810160405280929190818152602001828054612258906131b6565b80156122a55780601f1061227a576101008083540402835291602001916122a5565b820191906000526020600020905b81548152906001019060200180831161228857829003601f168201915b5050505050905090565b60606122ba826116cf565b6122f9576040517f08c379a00000000000000000000000000000000000000000000000000000000081526004016122f090613f6a565b60405180910390fd5b600061230361221d565b90506000815111612323576040518060200160405280600081525061234e565b8061232d8461270a565b60405160200161233e9291906138b0565b6040516020818303038152906040525b915050919050565b505050565b505050565b600061236b82610997565b905061237981600084612356565b612384600083611743565b6001609a60008373ffffffffffffffffffffffffffffffffffffffff1673ffffffffffffffffffffffffffffffffffffffff16815260200190815260200160002060008282546123d49190613b4b565b925050819055506099600083815260200190815260200160002060006101000a81549073ffffffffffffffffffffffffffffffffffffffff021916905581600073ffffffffffffffffffffffffffffffffffffffff168273ffffffffffffffffffffffffffffffffffffffff167fddf252ad1be2c89b69c2b068fc378daa952ba7f163c4a11628f55a4df523b3ef60405160405180910390a46124798160008461235b565b5050565b6000808273ffffffffffffffffffffffffffffffffffffffff163b119050919050565b600060019054906101000a900460ff166124ef576040517f08c379a00000000000000000000000000000000000000000000000000000000081526004016124e690613c70565b60405180910390fd5b81609790805190602001906125059291906128ab565b50806098908051906020019061251c9291906128ab565b505050565b600060019054906101000a900460ff16612570576040517f08c379a000000000000000000000000000000000000000000000000000000000815260040161256790613c70565b60405180910390fd5b61258061257b61173b565b611b94565b565b60006125a38473ffffffffffffffffffffffffffffffffffffffff1661247d565b156126fd578373ffffffffffffffffffffffffffffffffffffffff1663150b7a026125cc61173b565b8786866040518563ffffffff1660e01b81526004016125ee9493929190613fdf565b6020604051808303816000875af192505050801561262a57506040513d601f19601f820116820180604052508101906126279190614040565b60015b6126ad573d806000811461265a576040519150601f19603f3d011682016040523d82523d6000602084013e61265f565b606091505b506000815114156126a5576040517f08c379a000000000000000000000000000000000000000000000000000000000815260040161269c90613d6e565b60405180910390fd5b805181602001fd5b63150b7a0260e01b7bffffffffffffffffffffffffffffffffffffffffffffffffffffffff1916817bffffffffffffffffffffffffffffffffffffffffffffffffffffffff191614915050612702565b600190505b949350505050565b60606000821415612752576040518060400160405280600181526020017f30000000000000000000000000000000000000000000000000000000000000008152509050612866565b600082905060005b6000821461278457808061276d9061406d565b915050600a8261277d91906140e5565b915061275a565b60008167ffffffffffffffff8111156127a05761279f612e75565b5b6040519080825280601f01601f1916602001820160405280156127d25781602001600182028036833780820191505090505b5090505b6000851461285f576001826127eb9190613b4b565b9150600a856127fa9190614116565b60306128069190613b7f565b60f81b81838151811061281c5761281b614147565b5b60200101907effffffffffffffffffffffffffffffffffffffffffffffffffffffffffffff1916908160001a905350600a8561285891906140e5565b94506127d6565b8093505050505b919050565b508054612877906131b6565b6000825580601f1061288957506128a8565b601f0160209004906000526020600020908101906128a79190612931565b5b50565b8280546128b7906131b6565b90600052602060002090601f0160209004810192826128d95760008555612920565b82601f106128f257805160ff1916838001178555612920565b82800160010185558215612920579182015b8281111561291f578251825591602001919060010190612904565b5b50905061292d9190612931565b5090565b5b8082111561294a576000816000905550600101612932565b5090565b6000604051905090565b600080fd5b600080fd5b60007fffffffff0000000000000000000000000000000000000000000000000000000082169050919050565b61299781612962565b81146129a257600080fd5b50565b6000813590506129b48161298e565b92915050565b6000602082840312156129d0576129cf612958565b5b60006129de848285016129a5565b91505092915050565b60008115159050919050565b6129fc816129e7565b82525050565b6000602082019050612a1760008301846129f3565b92915050565b600081519050919050565b600082825260208201905092915050565b60005b83811015612a57578082015181840152602081019050612a3c565b83811115612a66576000848401525b50505050565b6000601f19601f8301169050919050565b6000612a8882612a1d565b612a928185612a28565b9350612aa2818560208601612a39565b612aab81612a6c565b840191505092915050565b60006020820190508181036000830152612ad08184612a7d565b905092915050565b6000819050919050565b612aeb81612ad8565b8114612af657600080fd5b50565b600081359050612b0881612ae2565b92915050565b600060208284031215612b2457612b23612958565b5b6000612b3284828501612af9565b91505092915050565b600073ffffffffffffffffffffffffffffffffffffffff82169050919050565b6000612b6682612b3b565b9050919050565b612b7681612b5b565b82525050565b6000602082019050612b916000830184612b6d565b92915050565b612ba081612b5b565b8114612bab57600080fd5b50565b600081359050612bbd81612b97565b92915050565b60008060408385031215612bda57612bd9612958565b5b6000612be885828601612bae565b9250506020612bf985828601612af9565b9150509250929050565b600080fd5b600080fd5b600080fd5b60008083601f840112612c2857612c27612c03565b5b8235905067ffffffffffffffff811115612c4557612c44612c08565b5b602083019150836001820283011115612c6157612c60612c0d565b5b9250929050565b600080600080600060808688031215612c8457612c83612958565b5b6000612c9288828901612bae565b9550506020612ca388828901612bae565b9450506040612cb488828901612af9565b935050606086013567ffffffffffffffff811115612cd557612cd461295d565b5b612ce188828901612c12565b92509250509295509295909350565b612cf981612962565b82525050565b6000602082019050612d146000830184612cf0565b92915050565b600080600060608486031215612d3357612d32612958565b5b6000612d4186828701612bae565b9350506020612d5286828701612bae565b9250506040612d6386828701612af9565b9150509250925092565b600060208284031215612d8357612d82612958565b5b6000612d9184828501612bae565b91505092915050565b612da381612ad8565b82525050565b6000602082019050612dbe6000830184612d9a565b92915050565b612dcd816129e7565b8114612dd857600080fd5b50565b600081359050612dea81612dc4565b92915050565b60008060408385031215612e0757612e06612958565b5b6000612e1585828601612af9565b9250506020612e2685828601612ddb565b9150509250929050565b60008060408385031215612e4757612e46612958565b5b6000612e5585828601612bae565b9250506020612e6685828601612ddb565b9150509250929050565b600080fd5b7f4e487b7100000000000000000000000000000000000000000000000000000000600052604160045260246000fd5b612ead82612a6c565b810181811067ffffffffffffffff82111715612ecc57612ecb612e75565b5b80604052505050565b6000612edf61294e565b9050612eeb8282612ea4565b919050565b600067ffffffffffffffff821115612f0b57612f0a612e75565b5b612f1482612a6c565b9050602081019050919050565b82818337600083830152505050565b6000612f43612f3e84612ef0565b612ed5565b905082815260208101848484011115612f5f57612f5e612e70565b5b612f6a848285612f21565b509392505050565b600082601f830112612f8757612f86612c03565b5b8135612f97848260208601612f30565b91505092915050565b60008060008060808587031215612fba57612fb9612958565b5b6000612fc887828801612bae565b9450506020612fd987828801612bae565b9350506040612fea87828801612af9565b925050606085013567ffffffffffffffff81111561300b5761300a61295d565b5b61301787828801612f72565b91505092959194509250565b600067ffffffffffffffff82111561303e5761303d612e75565b5b61304782612a6c565b9050602081019050919050565b600061306761306284613023565b612ed5565b90508281526020810184848401111561308357613082612e70565b5b61308e848285612f21565b509392505050565b600082601f8301126130ab576130aa612c03565b5b81356130bb848260208601613054565b91505092915050565b600080600080608085870312156130de576130dd612958565b5b60006130ec87828801612bae565b94505060206130fd87828801612af9565b935050604085013567ffffffffffffffff81111561311e5761311d61295d565b5b61312a87828801613096565b925050606061313b87828801612ddb565b91505092959194509250565b6000806040838503121561315e5761315d612958565b5b600061316c85828601612bae565b925050602061317d85828601612bae565b9150509250929050565b7f4e487b7100000000000000000000000000000000000000000000000000000000600052602260045260246000fd5b600060028204905060018216806131ce57607f821691505b602082108114156131e2576131e1613187565b5b50919050565b7f4552433732313a20617070726f76656420717565727920666f72206e6f6e657860008201527f697374656e7420746f6b656e0000000000000000000000000000000000000000602082015250565b6000613244602c83612a28565b915061324f826131e8565b604082019050919050565b6000602082019050818103600083015261327381613237565b9050919050565b7f4552433732313a20617070726f76616c20746f2063757272656e74206f776e6560008201527f7200000000000000000000000000000000000000000000000000000000000000602082015250565b60006132d6602183612a28565b91506132e18261327a565b604082019050919050565b60006020820190508181036000830152613305816132c9565b9050919050565b7f4552433732313a20617070726f76652063616c6c6572206973206e6f74206f7760008201527f6e6572206e6f7220617070726f76656420666f7220616c6c0000000000000000602082015250565b6000613368603883612a28565b91506133738261330c565b604082019050919050565b600060208201905081810360008301526133978161335b565b9050919050565b7f4552433732313a207472616e736665722063616c6c6572206973206e6f74206f60008201527f70657261746f7200000000000000000000000000000000000000000000000000602082015250565b60006133fa602783612a28565b91506134058261339e565b604082019050919050565b60006020820190508181036000830152613429816133ed565b9050919050565b7f4552433732313a207472616e736665722063616c6c6572206973206e6f74206f60008201527f776e6572206e6f7220617070726f766564000000000000000000000000000000602082015250565b600061348c603183612a28565b915061349782613430565b604082019050919050565b600060208201905081810360008301526134bb8161347f565b9050919050565b7f4552433732314275726e61626c653a2063616c6c6572206973206e6f74206f7760008201527f6e6572206e6f7220617070726f76656400000000000000000000000000000000602082015250565b600061351e603083612a28565b9150613529826134c2565b604082019050919050565b6000602082019050818103600083015261354d81613511565b9050919050565b7f4552433732313a206f776e657220717565727920666f72206e6f6e657869737460008201527f656e7420746f6b656e0000000000000000000000000000000000000000000000602082015250565b60006135b0602983612a28565b91506135bb82613554565b604082019050919050565b600060208201905081810360008301526135df816135a3565b9050919050565b7f6e6f742d617574686f72697a6564000000000000000000000000000000000000600082015250565b600061361c600e83612a28565b9150613627826135e6565b602082019050919050565b6000602082019050818103600083015261364b8161360f565b9050919050565b7f4f776e61626c653a2063616c6c6572206973206e6f7420746865206f776e6572600082015250565b6000613688602083612a28565b915061369382613652565b602082019050919050565b600060208201905081810360008301526136b78161367b565b9050919050565b7f4552433732313a2062616c616e636520717565727920666f7220746865207a6560008201527f726f206164647265737300000000000000000000000000000000000000000000602082015250565b600061371a602a83612a28565b9150613725826136be565b604082019050919050565b600060208201905081810360008301526137498161370d565b9050919050565b7f496e697469616c697a61626c653a20636f6e747261637420697320616c72656160008201527f647920696e697469616c697a6564000000000000000000000000000000000000602082015250565b60006137ac602e83612a28565b91506137b782613750565b604082019050919050565b600060208201905081810360008301526137db8161379f565b9050919050565b7f45524337323155524953746f726167653a2055524920717565727920666f722060008201527f6e6f6e6578697374656e7420746f6b656e000000000000000000000000000000602082015250565b600061383e603183612a28565b9150613849826137e2565b604082019050919050565b6000602082019050818103600083015261386d81613831565b9050919050565b600081905092915050565b600061388a82612a1d565b6138948185613874565b93506138a4818560208601612a39565b80840191505092915050565b60006138bc828561387f565b91506138c8828461387f565b91508190509392505050565b7f4f776e61626c653a206e6577206f776e657220697320746865207a65726f206160008201527f6464726573730000000000000000000000000000000000000000000000000000602082015250565b6000613930602683612a28565b915061393b826138d4565b604082019050919050565b6000602082019050818103600083015261395f81613923565b9050919050565b7f4552433732313a206f70657261746f7220717565727920666f72206e6f6e657860008201527f697374656e7420746f6b656e0000000000000000000000000000000000000000602082015250565b60006139c2602c83612a28565b91506139cd82613966565b604082019050919050565b600060208201905081810360008301526139f1816139b5565b9050919050565b7f4552433732313a207472616e736665722066726f6d20696e636f72726563742060008201527f6f776e6572000000000000000000000000000000000000000000000000000000602082015250565b6000613a54602583612a28565b9150613a5f826139f8565b604082019050919050565b60006020820190508181036000830152613a8381613a47565b9050919050565b7f4552433732313a207472616e7366657220746f20746865207a65726f2061646460008201527f7265737300000000000000000000000000000000000000000000000000000000602082015250565b6000613ae6602483612a28565b9150613af182613a8a565b604082019050919050565b60006020820190508181036000830152613b1581613ad9565b9050919050565b7f4e487b7100000000000000000000000000000000000000000000000000000000600052601160045260246000fd5b6000613b5682612ad8565b9150613b6183612ad8565b925082821015613b7457613b73613b1c565b5b828203905092915050565b6000613b8a82612ad8565b9150613b9583612ad8565b9250827fffffffffffffffffffffffffffffffffffffffffffffffffffffffffffffffff03821115613bca57613bc9613b1c565b5b828201905092915050565b6000604082019050613bea6000830185612d9a565b613bf760208301846129f3565b9392505050565b7f496e697469616c697a61626c653a20636f6e7472616374206973206e6f74206960008201527f6e697469616c697a696e67000000000000000000000000000000000000000000602082015250565b6000613c5a602b83612a28565b9150613c6582613bfe565b604082019050919050565b60006020820190508181036000830152613c8981613c4d565b9050919050565b7f4552433732313a20617070726f766520746f2063616c6c657200000000000000600082015250565b6000613cc6601983612a28565b9150613cd182613c90565b602082019050919050565b60006020820190508181036000830152613cf581613cb9565b9050919050565b7f4552433732313a207472616e7366657220746f206e6f6e20455243373231526560008201527f63656976657220696d706c656d656e7465720000000000000000000000000000602082015250565b6000613d58603283612a28565b9150613d6382613cfc565b604082019050919050565b60006020820190508181036000830152613d8781613d4b565b9050919050565b7f4552433732313a206d696e7420746f20746865207a65726f2061646472657373600082015250565b6000613dc4602083612a28565b9150613dcf82613d8e565b602082019050919050565b60006020820190508181036000830152613df381613db7565b9050919050565b7f4552433732313a20746f6b656e20616c7265616479206d696e74656400000000600082015250565b6000613e30601c83612a28565b9150613e3b82613dfa565b602082019050919050565b60006020820190508181036000830152613e5f81613e23565b9050919050565b7f45524337323155524953746f726167653a2055524920736574206f66206e6f6e60008201527f6578697374656e7420746f6b656e000000000000000000000000000000000000602082015250565b6000613ec2602e83612a28565b9150613ecd82613e66565b604082019050919050565b60006020820190508181036000830152613ef181613eb5565b9050919050565b7f4552433732314d657461646174613a2055524920717565727920666f72206e6f60008201527f6e6578697374656e7420746f6b656e0000000000000000000000000000000000602082015250565b6000613f54602f83612a28565b9150613f5f82613ef8565b604082019050919050565b60006020820190508181036000830152613f8381613f47565b9050919050565b600081519050919050565b600082825260208201905092915050565b6000613fb182613f8a565b613fbb8185613f95565b9350613fcb818560208601612a39565b613fd481612a6c565b840191505092915050565b6000608082019050613ff46000830187612b6d565b6140016020830186612b6d565b61400e6040830185612d9a565b81810360608301526140208184613fa6565b905095945050505050565b60008151905061403a8161298e565b92915050565b60006020828403121561405657614055612958565b5b60006140648482850161402b565b91505092915050565b600061407882612ad8565b91507fffffffffffffffffffffffffffffffffffffffffffffffffffffffffffffffff8214156140ab576140aa613b1c565b5b600182019050919050565b7f4e487b7100000000000000000000000000000000000000000000000000000000600052601260045260246000fd5b60006140f082612ad8565b91506140fb83612ad8565b92508261410b5761410a6140b6565b5b828204905092915050565b600061412182612ad8565b915061412c83612ad8565b92508261413c5761413b6140b6565b5b828206905092915050565b7f4e487b7100000000000000000000000000000000000000000000000000000000600052603260045260246000fdfea26469706673582212204a52bdb7b250410faa94ef60f03935c4788ffb1aa499f528b17fb00eb39b278764736f6c634300080c0033",
			"opcodes": "PUSH1 0x80 PUSH1 0x40 MSTORE CALLVALUE DUP1 ISZERO PUSH2 0x10 JUMPI PUSH1 0x0 DUP1 REVERT JUMPDEST POP PUSH2 0x41AC DUP1 PUSH2 0x20 PUSH1 0x0 CODECOPY PUSH1 0x0 RETURN INVALID PUSH1 0x80 PUSH1 0x40 MSTORE CALLVALUE DUP1 ISZERO PUSH2 0x10 JUMPI PUSH1 0x0 DUP1 REVERT JUMPDEST POP PUSH1 0x4 CALLDATASIZE LT PUSH2 0x18E JUMPI PUSH1 0x0 CALLDATALOAD PUSH1 0xE0 SHR DUP1 PUSH4 0x7B4FCA3D GT PUSH2 0xDE JUMPI DUP1 PUSH4 0xA22CB465 GT PUSH2 0x97 JUMPI DUP1 PUSH4 0xC327325D GT PUSH2 0x71 JUMPI DUP1 PUSH4 0xC327325D EQ PUSH2 0x441 JUMPI DUP1 PUSH4 0xC87B56DD EQ PUSH2 0x45D JUMPI DUP1 PUSH4 0xE985E9C5 EQ PUSH2 0x48D JUMPI DUP1 PUSH4 0xF2FDE38B EQ PUSH2 0x4BD JUMPI PUSH2 0x18E JUMP JUMPDEST DUP1 PUSH4 0xA22CB465 EQ PUSH2 0x3ED JUMPI DUP1 PUSH4 0xB88D4FDE EQ PUSH2 0x409 JUMPI DUP1 PUSH4 0xBDE5A6AA EQ PUSH2 0x425 JUMPI PUSH2 0x18E JUMP JUMPDEST DUP1 PUSH4 0x7B4FCA3D EQ PUSH2 0x353 JUMPI DUP1 PUSH4 0x8129FC1C EQ PUSH2 0x36F JUMPI DUP1 PUSH4 0x8DA5CB5B EQ PUSH2 0x379 JUMPI DUP1 PUSH4 0x8F47012E EQ PUSH2 0x397 JUMPI DUP1 PUSH4 0x95D89B41 EQ PUSH2 0x3B3 JUMPI DUP1 PUSH4 0x9C52A7F1 EQ PUSH2 0x3D1 JUMPI PUSH2 0x18E JUMP JUMPDEST DUP1 PUSH4 0x42842E0E GT PUSH2 0x14B JUMPI DUP1 PUSH4 0x65FAE35E GT PUSH2 0x125 JUMPI DUP1 PUSH4 0x65FAE35E EQ PUSH2 0x2E1 JUMPI DUP1 PUSH4 0x704B6C02 EQ PUSH2 0x2FD JUMPI DUP1 PUSH4 0x70A08231 EQ PUSH2 0x319 JUMPI DUP1 PUSH4 0x715018A6 EQ PUSH2 0x349 JUMPI PUSH2 0x18E JUMP JUMPDEST DUP1 PUSH4 0x42842E0E EQ PUSH2 0x279 JUMPI DUP1 PUSH4 0x42966C68 EQ PUSH2 0x295 JUMPI DUP1 PUSH4 0x6352211E EQ PUSH2 0x2B1 JUMPI PUSH2 0x18E JUMP JUMPDEST DUP1 PUSH4 0x1FFC9A7 EQ PUSH2 0x193 JUMPI DUP1 PUSH4 0x6FDDE03 EQ PUSH2 0x1C3 JUMPI DUP1 PUSH4 0x81812FC EQ PUSH2 0x1E1 JUMPI DUP1 PUSH4 0x95EA7B3 EQ PUSH2 0x211 JUMPI DUP1 PUSH4 0x150B7A02 EQ PUSH2 0x22D JUMPI DUP1 PUSH4 0x23B872DD EQ PUSH2 0x25D JUMPI JUMPDEST PUSH1 0x0 DUP1 REVERT JUMPDEST PUSH2 0x1AD PUSH1 0x4 DUP1 CALLDATASIZE SUB DUP2 ADD SWAP1 PUSH2 0x1A8 SWAP2 SWAP1 PUSH2 0x29BA JUMP JUMPDEST PUSH2 0x4D9 JUMP JUMPDEST PUSH1 0x40 MLOAD PUSH2 0x1BA SWAP2 SWAP1 PUSH2 0x2A02 JUMP JUMPDEST PUSH1 0x40 MLOAD DUP1 SWAP2 SUB SWAP1 RETURN JUMPDEST PUSH2 0x1CB PUSH2 0x5BB JUMP JUMPDEST PUSH1 0x40 MLOAD PUSH2 0x1D8 SWAP2 SWAP1 PUSH2 0x2AB6 JUMP JUMPDEST PUSH1 0x40 MLOAD DUP1 SWAP2 SUB SWAP1 RETURN JUMPDEST PUSH2 0x1FB PUSH1 0x4 DUP1 CALLDATASIZE SUB DUP2 ADD SWAP1 PUSH2 0x1F6 SWAP2 SWAP1 PUSH2 0x2B0E JUMP JUMPDEST PUSH2 0x64D JUMP JUMPDEST PUSH1 0x40 MLOAD PUSH2 0x208 SWAP2 SWAP1 PUSH2 0x2B7C JUMP JUMPDEST PUSH1 0x40 MLOAD DUP1 SWAP2 SUB SWAP1 RETURN JUMPDEST PUSH2 0x22B PUSH1 0x4 DUP1 CALLDATASIZE SUB DUP2 ADD SWAP1 PUSH2 0x226 SWAP2 SWAP1 PUSH2 0x2BC3 JUMP JUMPDEST PUSH2 0x6D2 JUMP JUMPDEST STOP JUMPDEST PUSH2 0x247 PUSH1 0x4 DUP1 CALLDATASIZE SUB DUP2 ADD SWAP1 PUSH2 0x242 SWAP2 SWAP1 PUSH2 0x2C68 JUMP JUMPDEST PUSH2 0x7EA JUMP JUMPDEST PUSH1 0x40 MLOAD PUSH2 0x254 SWAP2 SWAP1 PUSH2 0x2CFF JUMP JUMPDEST PUSH1 0x40 MLOAD DUP1 SWAP2 SUB SWAP1 RETURN JUMPDEST PUSH2 0x277 PUSH1 0x4 DUP1 CALLDATASIZE SUB DUP2 ADD SWAP1 PUSH2 0x272 SWAP2 SWAP1 PUSH2 0x2D1A JUMP JUMPDEST PUSH2 0x7FF JUMP JUMPDEST STOP JUMPDEST PUSH2 0x293 PUSH1 0x4 DUP1 CALLDATASIZE SUB DUP2 ADD SWAP1 PUSH2 0x28E SWAP2 SWAP1 PUSH2 0x2D1A JUMP JUMPDEST PUSH2 0x91B JUMP JUMPDEST STOP JUMPDEST PUSH2 0x2AF PUSH1 0x4 DUP1 CALLDATASIZE SUB DUP2 ADD SWAP1 PUSH2 0x2AA SWAP2 SWAP1 PUSH2 0x2B0E JUMP JUMPDEST PUSH2 0x93B JUMP JUMPDEST STOP JUMPDEST PUSH2 0x2CB PUSH1 0x4 DUP1 CALLDATASIZE SUB DUP2 ADD SWAP1 PUSH2 0x2C6 SWAP2 SWAP1 PUSH2 0x2B0E JUMP JUMPDEST PUSH2 0x997 JUMP JUMPDEST PUSH1 0x40 MLOAD PUSH2 0x2D8 SWAP2 SWAP1 PUSH2 0x2B7C JUMP JUMPDEST PUSH1 0x40 MLOAD DUP1 SWAP2 SUB SWAP1 RETURN JUMPDEST PUSH2 0x2FB PUSH1 0x4 DUP1 CALLDATASIZE SUB DUP2 ADD SWAP1 PUSH2 0x2F6 SWAP2 SWAP1 PUSH2 0x2D6D JUMP JUMPDEST PUSH2 0xA49 JUMP JUMPDEST STOP JUMPDEST PUSH2 0x317 PUSH1 0x4 DUP1 CALLDATASIZE SUB DUP2 ADD SWAP1 PUSH2 0x312 SWAP2 SWAP1 PUSH2 0x2D6D JUMP JUMPDEST PUSH2 0xB13 JUMP JUMPDEST STOP JUMPDEST PUSH2 0x333 PUSH1 0x4 DUP1 CALLDATASIZE SUB DUP2 ADD SWAP1 PUSH2 0x32E SWAP2 SWAP1 PUSH2 0x2D6D JUMP JUMPDEST PUSH2 0xBD7 JUMP JUMPDEST PUSH1 0x40 MLOAD PUSH2 0x340 SWAP2 SWAP1 PUSH2 0x2DA9 JUMP JUMPDEST PUSH1 0x40 MLOAD DUP1 SWAP2 SUB SWAP1 RETURN JUMPDEST PUSH2 0x351 PUSH2 0xC8F JUMP JUMPDEST STOP JUMPDEST PUSH2 0x36D PUSH1 0x4 DUP1 CALLDATASIZE SUB DUP2 ADD SWAP1 PUSH2 0x368 SWAP2 SWAP1 PUSH2 0x2DF0 JUMP JUMPDEST PUSH2 0xD17 JUMP JUMPDEST STOP JUMPDEST PUSH2 0x377 PUSH2 0xDA7 JUMP JUMPDEST STOP JUMPDEST PUSH2 0x381 PUSH2 0xF54 JUMP JUMPDEST PUSH1 0x40 MLOAD PUSH2 0x38E SWAP2 SWAP1 PUSH2 0x2B7C JUMP JUMPDEST PUSH1 0x40 MLOAD DUP1 SWAP2 SUB SWAP1 RETURN JUMPDEST PUSH2 0x3B1 PUSH1 0x4 DUP1 CALLDATASIZE SUB DUP2 ADD SWAP1 PUSH2 0x3AC SWAP2 SWAP1 PUSH2 0x2D6D JUMP JUMPDEST PUSH2 0xF7E JUMP JUMPDEST STOP JUMPDEST PUSH2 0x3BB PUSH2 0x1048 JUMP JUMPDEST PUSH1 0x40 MLOAD PUSH2 0x3C8 SWAP2 SWAP1 PUSH2 0x2AB6 JUMP JUMPDEST PUSH1 0x40 MLOAD DUP1 SWAP2 SUB SWAP1 RETURN JUMPDEST PUSH2 0x3EB PUSH1 0x4 DUP1 CALLDATASIZE SUB DUP2 ADD SWAP1 PUSH2 0x3E6 SWAP2 SWAP1 PUSH2 0x2D6D JUMP JUMPDEST PUSH2 0x10DA JUMP JUMPDEST STOP JUMPDEST PUSH2 0x407 PUSH1 0x4 DUP1 CALLDATASIZE SUB DUP2 ADD SWAP1 PUSH2 0x402 SWAP2 SWAP1 PUSH2 0x2E30 JUMP JUMPDEST PUSH2 0x11A4 JUMP JUMPDEST STOP JUMPDEST PUSH2 0x423 PUSH1 0x4 DUP1 CALLDATASIZE SUB DUP2 ADD SWAP1 PUSH2 0x41E SWAP2 SWAP1 PUSH2 0x2FA0 JUMP JUMPDEST PUSH2 0x11BA JUMP JUMPDEST STOP JUMPDEST PUSH2 0x43F PUSH1 0x4 DUP1 CALLDATASIZE SUB DUP2 ADD SWAP1 PUSH2 0x43A SWAP2 SWAP1 PUSH2 0x2D6D JUMP JUMPDEST PUSH2 0x12A2 JUMP JUMPDEST STOP JUMPDEST PUSH2 0x45B PUSH1 0x4 DUP1 CALLDATASIZE SUB DUP2 ADD SWAP1 PUSH2 0x456 SWAP2 SWAP1 PUSH2 0x30C4 JUMP JUMPDEST PUSH2 0x136C JUMP JUMPDEST STOP JUMPDEST PUSH2 0x477 PUSH1 0x4 DUP1 CALLDATASIZE SUB DUP2 ADD SWAP1 PUSH2 0x472 SWAP2 SWAP1 PUSH2 0x2B0E JUMP JUMPDEST PUSH2 0x1387 JUMP JUMPDEST PUSH1 0x40 MLOAD PUSH2 0x484 SWAP2 SWAP1 PUSH2 0x2AB6 JUMP JUMPDEST PUSH1 0x40 MLOAD DUP1 SWAP2 SUB SWAP1 RETURN JUMPDEST PUSH2 0x4A7 PUSH1 0x4 DUP1 CALLDATASIZE SUB DUP2 ADD SWAP1 PUSH2 0x4A2 SWAP2 SWAP1 PUSH2 0x3147 JUMP JUMPDEST PUSH2 0x14D9 JUMP JUMPDEST PUSH1 0x40 MLOAD PUSH2 0x4B4 SWAP2 SWAP1 PUSH2 0x2A02 JUMP JUMPDEST PUSH1 0x40 MLOAD DUP1 SWAP2 SUB SWAP1 RETURN JUMPDEST PUSH2 0x4D7 PUSH1 0x4 DUP1 CALLDATASIZE SUB DUP2 ADD SWAP1 PUSH2 0x4D2 SWAP2 SWAP1 PUSH2 0x2D6D JUMP JUMPDEST PUSH2 0x156D JUMP JUMPDEST STOP JUMPDEST PUSH1 0x0 PUSH32 0x80AC58CD00000000000000000000000000000000000000000000000000000000 PUSH28 0xFFFFFFFFFFFFFFFFFFFFFFFFFFFFFFFFFFFFFFFFFFFFFFFFFFFFFFFF NOT AND DUP3 PUSH28 0xFFFFFFFFFFFFFFFFFFFFFFFFFFFFFFFFFFFFFFFFFFFFFFFFFFFFFFFF NOT AND EQ DUP1 PUSH2 0x5A4 JUMPI POP PUSH32 0x5B5E139F00000000000000000000000000000000000000000000000000000000 PUSH28 0xFFFFFFFFFFFFFFFFFFFFFFFFFFFFFFFFFFFFFFFFFFFFFFFFFFFFFFFF NOT AND DUP3 PUSH28 0xFFFFFFFFFFFFFFFFFFFFFFFFFFFFFFFFFFFFFFFFFFFFFFFFFFFFFFFF NOT AND EQ JUMPDEST DUP1 PUSH2 0x5B4 JUMPI POP PUSH2 0x5B3 DUP3 PUSH2 0x1665 JUMP JUMPDEST JUMPDEST SWAP1 POP SWAP2 SWAP1 POP JUMP JUMPDEST PUSH1 0x60 PUSH1 0x97 DUP1 SLOAD PUSH2 0x5CA SWAP1 PUSH2 0x31B6 JUMP JUMPDEST DUP1 PUSH1 0x1F ADD PUSH1 0x20 DUP1 SWAP2 DIV MUL PUSH1 0x20 ADD PUSH1 0x40 MLOAD SWAP1 DUP2 ADD PUSH1 0x40 MSTORE DUP1 SWAP3 SWAP2 SWAP1 DUP2 DUP2 MSTORE PUSH1 0x20 ADD DUP3 DUP1 SLOAD PUSH2 0x5F6 SWAP1 PUSH2 0x31B6 JUMP JUMPDEST DUP1 ISZERO PUSH2 0x643 JUMPI DUP1 PUSH1 0x1F LT PUSH2 0x618 JUMPI PUSH2 0x100 DUP1 DUP4 SLOAD DIV MUL DUP4 MSTORE SWAP2 PUSH1 0x20 ADD SWAP2 PUSH2 0x643 JUMP JUMPDEST DUP3 ADD SWAP2 SWAP1 PUSH1 0x0 MSTORE PUSH1 0x20 PUSH1 0x0 KECCAK256 SWAP1 JUMPDEST DUP2 SLOAD DUP2 MSTORE SWAP1 PUSH1 0x1 ADD SWAP1 PUSH1 0x20 ADD DUP1 DUP4 GT PUSH2 0x626 JUMPI DUP3 SWAP1 SUB PUSH1 0x1F AND DUP3 ADD SWAP2 JUMPDEST POP POP POP POP POP SWAP1 POP SWAP1 JUMP JUMPDEST PUSH1 0x0 PUSH2 0x658 DUP3 PUSH2 0x16CF JUMP JUMPDEST PUSH2 0x697 JUMPI PUSH1 0x40 MLOAD PUSH32 0x8C379A000000000000000000000000000000000000000000000000000000000 DUP2 MSTORE PUSH1 0x4 ADD PUSH2 0x68E SWAP1 PUSH2 0x325A JUMP JUMPDEST PUSH1 0x40 MLOAD DUP1 SWAP2 SUB SWAP1 REVERT JUMPDEST PUSH1 0x9B PUSH1 0x0 DUP4 DUP2 MSTORE PUSH1 0x20 ADD SWAP1 DUP2 MSTORE PUSH1 0x20 ADD PUSH1 0x0 KECCAK256 PUSH1 0x0 SWAP1 SLOAD SWAP1 PUSH2 0x100 EXP SWAP1 DIV PUSH20 0xFFFFFFFFFFFFFFFFFFFFFFFFFFFFFFFFFFFFFFFF AND SWAP1 POP SWAP2 SWAP1 POP JUMP JUMPDEST PUSH1 0x0 PUSH2 0x6DD DUP3 PUSH2 0x997 JUMP JUMPDEST SWAP1 POP DUP1 PUSH20 0xFFFFFFFFFFFFFFFFFFFFFFFFFFFFFFFFFFFFFFFF AND DUP4 PUSH20 0xFFFFFFFFFFFFFFFFFFFFFFFFFFFFFFFFFFFFFFFF AND EQ ISZERO PUSH2 0x74E JUMPI PUSH1 0x40 MLOAD PUSH32 0x8C379A000000000000000000000000000000000000000000000000000000000 DUP2 MSTORE PUSH1 0x4 ADD PUSH2 0x745 SWAP1 PUSH2 0x32EC JUMP JUMPDEST PUSH1 0x40 MLOAD DUP1 SWAP2 SUB SWAP1 REVERT JUMPDEST DUP1 PUSH20 0xFFFFFFFFFFFFFFFFFFFFFFFFFFFFFFFFFFFFFFFF AND PUSH2 0x76D PUSH2 0x173B JUMP JUMPDEST PUSH20 0xFFFFFFFFFFFFFFFFFFFFFFFFFFFFFFFFFFFFFFFF AND EQ DUP1 PUSH2 0x79C JUMPI POP PUSH2 0x79B DUP2 PUSH2 0x796 PUSH2 0x173B JUMP JUMPDEST PUSH2 0x14D9 JUMP JUMPDEST JUMPDEST PUSH2 0x7DB JUMPI PUSH1 0x40 MLOAD PUSH32 0x8C379A000000000000000000000000000000000000000000000000000000000 DUP2 MSTORE PUSH1 0x4 ADD PUSH2 0x7D2 SWAP1 PUSH2 0x337E JUMP JUMPDEST PUSH1 0x40 MLOAD DUP1 SWAP2 SUB SWAP1 REVERT JUMPDEST PUSH2 0x7E5 DUP4 DUP4 PUSH2 0x1743 JUMP JUMPDEST POP POP POP JUMP JUMPDEST PUSH1 0x0 PUSH4 0x150B7A02 PUSH1 0xE0 SHL SWAP1 POP SWAP6 SWAP5 POP POP POP POP POP JUMP JUMPDEST PUSH1 0x1 ISZERO ISZERO PUSH1 0xFD PUSH1 0x0 DUP4 DUP2 MSTORE PUSH1 0x20 ADD SWAP1 DUP2 MSTORE PUSH1 0x20 ADD PUSH1 0x0 KECCAK256 PUSH1 0x0 SWAP1 SLOAD SWAP1 PUSH2 0x100 EXP SWAP1 DIV PUSH1 0xFF AND ISZERO ISZERO EQ ISZERO PUSH2 0x8BA JUMPI PUSH1 0x1 PUSH1 0xFE PUSH1 0x0 PUSH2 0x83A PUSH2 0x173B JUMP JUMPDEST PUSH20 0xFFFFFFFFFFFFFFFFFFFFFFFFFFFFFFFFFFFFFFFF AND PUSH20 0xFFFFFFFFFFFFFFFFFFFFFFFFFFFFFFFFFFFFFFFF AND DUP2 MSTORE PUSH1 0x20 ADD SWAP1 DUP2 MSTORE PUSH1 0x20 ADD PUSH1 0x0 KECCAK256 SLOAD EQ PUSH2 0x8B5 JUMPI PUSH1 0x40 MLOAD PUSH32 0x8C379A000000000000000000000000000000000000000000000000000000000 DUP2 MSTORE PUSH1 0x4 ADD PUSH2 0x8AC SWAP1 PUSH2 0x3410 JUMP JUMPDEST PUSH1 0x40 MLOAD DUP1 SWAP2 SUB SWAP1 REVERT JUMPDEST PUSH2 0x90B JUMP JUMPDEST PUSH2 0x8CB PUSH2 0x8C5 PUSH2 0x173B JUMP JUMPDEST DUP3 PUSH2 0x17FC JUMP JUMPDEST PUSH2 0x90A JUMPI PUSH1 0x40 MLOAD PUSH32 0x8C379A000000000000000000000000000000000000000000000000000000000 DUP2 MSTORE PUSH1 0x4 ADD PUSH2 0x901 SWAP1 PUSH2 0x34A2 JUMP JUMPDEST PUSH1 0x40 MLOAD DUP1 SWAP2 SUB SWAP1 REVERT JUMPDEST JUMPDEST PUSH2 0x916 DUP4 DUP4 DUP4 PUSH2 0x18DA JUMP JUMPDEST POP POP POP JUMP JUMPDEST PUSH2 0x936 DUP4 DUP4 DUP4 PUSH1 0x40 MLOAD DUP1 PUSH1 0x20 ADD PUSH1 0x40 MSTORE DUP1 PUSH1 0x0 DUP2 MSTORE POP PUSH2 0x11BA JUMP JUMPDEST POP POP POP JUMP JUMPDEST PUSH2 0x94C PUSH2 0x946 PUSH2 0x173B JUMP JUMPDEST DUP3 PUSH2 0x17FC JUMP JUMPDEST PUSH2 0x98B JUMPI PUSH1 0x40 MLOAD PUSH32 0x8C379A000000000000000000000000000000000000000000000000000000000 DUP2 MSTORE PUSH1 0x4 ADD PUSH2 0x982 SWAP1 PUSH2 0x3534 JUMP JUMPDEST PUSH1 0x40 MLOAD DUP1 SWAP2 SUB SWAP1 REVERT JUMPDEST PUSH2 0x994 DUP2 PUSH2 0x1B41 JUMP JUMPDEST POP JUMP JUMPDEST PUSH1 0x0 DUP1 PUSH1 0x99 PUSH1 0x0 DUP5 DUP2 MSTORE PUSH1 0x20 ADD SWAP1 DUP2 MSTORE PUSH1 0x20 ADD PUSH1 0x0 KECCAK256 PUSH1 0x0 SWAP1 SLOAD SWAP1 PUSH2 0x100 EXP SWAP1 DIV PUSH20 0xFFFFFFFFFFFFFFFFFFFFFFFFFFFFFFFFFFFFFFFF AND SWAP1 POP PUSH1 0x0 PUSH20 0xFFFFFFFFFFFFFFFFFFFFFFFFFFFFFFFFFFFFFFFF AND DUP2 PUSH20 0xFFFFFFFFFFFFFFFFFFFFFFFFFFFFFFFFFFFFFFFF AND EQ ISZERO PUSH2 0xA40 JUMPI PUSH1 0x40 MLOAD PUSH32 0x8C379A000000000000000000000000000000000000000000000000000000000 DUP2 MSTORE PUSH1 0x4 ADD PUSH2 0xA37 SWAP1 PUSH2 0x35C6 JUMP JUMPDEST PUSH1 0x40 MLOAD DUP1 SWAP2 SUB SWAP1 REVERT JUMPDEST DUP1 SWAP2 POP POP SWAP2 SWAP1 POP JUMP JUMPDEST PUSH1 0x1 PUSH1 0xFC PUSH1 0x0 CALLER PUSH20 0xFFFFFFFFFFFFFFFFFFFFFFFFFFFFFFFFFFFFFFFF AND PUSH20 0xFFFFFFFFFFFFFFFFFFFFFFFFFFFFFFFFFFFFFFFF AND DUP2 MSTORE PUSH1 0x20 ADD SWAP1 DUP2 MSTORE PUSH1 0x20 ADD PUSH1 0x0 KECCAK256 SLOAD EQ PUSH2 0xACB JUMPI PUSH1 0x40 MLOAD PUSH32 0x8C379A000000000000000000000000000000000000000000000000000000000 DUP2 MSTORE PUSH1 0x4 ADD PUSH2 0xAC2 SWAP1 PUSH2 0x3632 JUMP JUMPDEST PUSH1 0x40 MLOAD DUP1 SWAP2 SUB SWAP1 REVERT JUMPDEST PUSH1 0x1 PUSH1 0xFC PUSH1 0x0 DUP4 PUSH20 0xFFFFFFFFFFFFFFFFFFFFFFFFFFFFFFFFFFFFFFFF AND PUSH20 0xFFFFFFFFFFFFFFFFFFFFFFFFFFFFFFFFFFFFFFFF AND DUP2 MSTORE PUSH1 0x20 ADD SWAP1 DUP2 MSTORE PUSH1 0x20 ADD PUSH1 0x0 KECCAK256 DUP2 SWAP1 SSTORE POP POP JUMP JUMPDEST PUSH2 0xB1B PUSH2 0x173B JUMP JUMPDEST PUSH20 0xFFFFFFFFFFFFFFFFFFFFFFFFFFFFFFFFFFFFFFFF AND PUSH2 0xB39 PUSH2 0xF54 JUMP JUMPDEST PUSH20 0xFFFFFFFFFFFFFFFFFFFFFFFFFFFFFFFFFFFFFFFF AND EQ PUSH2 0xB8F JUMPI PUSH1 0x40 MLOAD PUSH32 0x8C379A000000000000000000000000000000000000000000000000000000000 DUP2 MSTORE PUSH1 0x4 ADD PUSH2 0xB86 SWAP1 PUSH2 0x369E JUMP JUMPDEST PUSH1 0x40 MLOAD DUP1 SWAP2 SUB SWAP1 REVERT JUMPDEST PUSH1 0x1 PUSH1 0xFC PUSH1 0x0 DUP4 PUSH20 0xFFFFFFFFFFFFFFFFFFFFFFFFFFFFFFFFFFFFFFFF AND PUSH20 0xFFFFFFFFFFFFFFFFFFFFFFFFFFFFFFFFFFFFFFFF AND DUP2 MSTORE PUSH1 0x20 ADD SWAP1 DUP2 MSTORE PUSH1 0x20 ADD PUSH1 0x0 KECCAK256 DUP2 SWAP1 SSTORE POP POP JUMP JUMPDEST PUSH1 0x0 DUP1 PUSH20 0xFFFFFFFFFFFFFFFFFFFFFFFFFFFFFFFFFFFFFFFF AND DUP3 PUSH20 0xFFFFFFFFFFFFFFFFFFFFFFFFFFFFFFFFFFFFFFFF AND EQ ISZERO PUSH2 0xC48 JUMPI PUSH1 0x40 MLOAD PUSH32 0x8C379A000000000000000000000000000000000000000000000000000000000 DUP2 MSTORE PUSH1 0x4 ADD PUSH2 0xC3F SWAP1 PUSH2 0x3730 JUMP JUMPDEST PUSH1 0x40 MLOAD DUP1 SWAP2 SUB SWAP1 REVERT JUMPDEST PUSH1 0x9A PUSH1 0x0 DUP4 PUSH20 0xFFFFFFFFFFFFFFFFFFFFFFFFFFFFFFFFFFFFFFFF AND PUSH20 0xFFFFFFFFFFFFFFFFFFFFFFFFFFFFFFFFFFFFFFFF AND DUP2 MSTORE PUSH1 0x20 ADD SWAP1 DUP2 MSTORE PUSH1 0x20 ADD PUSH1 0x0 KECCAK256 SLOAD SWAP1 POP SWAP2 SWAP1 POP JUMP JUMPDEST PUSH2 0xC97 PUSH2 0x173B JUMP JUMPDEST PUSH20 0xFFFFFFFFFFFFFFFFFFFFFFFFFFFFFFFFFFFFFFFF AND PUSH2 0xCB5 PUSH2 0xF54 JUMP JUMPDEST PUSH20 0xFFFFFFFFFFFFFFFFFFFFFFFFFFFFFFFFFFFFFFFF AND EQ PUSH2 0xD0B JUMPI PUSH1 0x40 MLOAD PUSH32 0x8C379A000000000000000000000000000000000000000000000000000000000 DUP2 MSTORE PUSH1 0x4 ADD PUSH2 0xD02 SWAP1 PUSH2 0x369E JUMP JUMPDEST PUSH1 0x40 MLOAD DUP1 SWAP2 SUB SWAP1 REVERT JUMPDEST PUSH2 0xD15 PUSH1 0x0 PUSH2 0x1B94 JUMP JUMPDEST JUMP JUMPDEST PUSH1 0x1 PUSH1 0xFC PUSH1 0x0 CALLER PUSH20 0xFFFFFFFFFFFFFFFFFFFFFFFFFFFFFFFFFFFFFFFF AND PUSH20 0xFFFFFFFFFFFFFFFFFFFFFFFFFFFFFFFFFFFFFFFF AND DUP2 MSTORE PUSH1 0x20 ADD SWAP1 DUP2 MSTORE PUSH1 0x20 ADD PUSH1 0x0 KECCAK256 SLOAD EQ PUSH2 0xD99 JUMPI PUSH1 0x40 MLOAD PUSH32 0x8C379A000000000000000000000000000000000000000000000000000000000 DUP2 MSTORE PUSH1 0x4 ADD PUSH2 0xD90 SWAP1 PUSH2 0x3632 JUMP JUMPDEST PUSH1 0x40 MLOAD DUP1 SWAP2 SUB SWAP1 REVERT JUMPDEST PUSH2 0xDA3 DUP3 DUP3 PUSH2 0x1C5A JUMP JUMPDEST POP POP JUMP JUMPDEST PUSH1 0x0 PUSH1 0x1 SWAP1 SLOAD SWAP1 PUSH2 0x100 EXP SWAP1 DIV PUSH1 0xFF AND PUSH2 0xDCF JUMPI PUSH1 0x0 DUP1 SLOAD SWAP1 PUSH2 0x100 EXP SWAP1 DIV PUSH1 0xFF AND ISZERO PUSH2 0xDD8 JUMP JUMPDEST PUSH2 0xDD7 PUSH2 0x1CC2 JUMP JUMPDEST JUMPDEST PUSH2 0xE17 JUMPI PUSH1 0x40 MLOAD PUSH32 0x8C379A000000000000000000000000000000000000000000000000000000000 DUP2 MSTORE PUSH1 0x4 ADD PUSH2 0xE0E SWAP1 PUSH2 0x37C2 JUMP JUMPDEST PUSH1 0x40 MLOAD DUP1 SWAP2 SUB SWAP1 REVERT JUMPDEST PUSH1 0x0 DUP1 PUSH1 0x1 SWAP1 SLOAD SWAP1 PUSH2 0x100 EXP SWAP1 DIV PUSH1 0xFF AND ISZERO SWAP1 POP DUP1 ISZERO PUSH2 0xE67 JUMPI PUSH1 0x1 PUSH1 0x0 PUSH1 0x1 PUSH2 0x100 EXP DUP2 SLOAD DUP2 PUSH1 0xFF MUL NOT AND SWAP1 DUP4 ISZERO ISZERO MUL OR SWAP1 SSTORE POP PUSH1 0x1 PUSH1 0x0 DUP1 PUSH2 0x100 EXP DUP2 SLOAD DUP2 PUSH1 0xFF MUL NOT AND SWAP1 DUP4 ISZERO ISZERO MUL OR SWAP1 SSTORE POP JUMPDEST PUSH1 0x1 PUSH1 0xFC PUSH1 0x0 CALLER PUSH20 0xFFFFFFFFFFFFFFFFFFFFFFFFFFFFFFFFFFFFFFFF AND PUSH20 0xFFFFFFFFFFFFFFFFFFFFFFFFFFFFFFFFFFFFFFFF AND DUP2 MSTORE PUSH1 0x20 ADD SWAP1 DUP2 MSTORE PUSH1 0x20 ADD PUSH1 0x0 KECCAK256 DUP2 SWAP1 SSTORE POP PUSH2 0xF20 PUSH1 0x40 MLOAD DUP1 PUSH1 0x40 ADD PUSH1 0x40 MSTORE DUP1 PUSH1 0x9 DUP2 MSTORE PUSH1 0x20 ADD PUSH32 0x746F70686F6C6465720000000000000000000000000000000000000000000000 DUP2 MSTORE POP PUSH1 0x40 MLOAD DUP1 PUSH1 0x40 ADD PUSH1 0x40 MSTORE DUP1 PUSH1 0x2 DUP2 MSTORE PUSH1 0x20 ADD PUSH32 0x5450000000000000000000000000000000000000000000000000000000000000 DUP2 MSTORE POP PUSH2 0x1CD3 JUMP JUMPDEST PUSH2 0xF28 PUSH2 0x1D30 JUMP JUMPDEST PUSH2 0xF30 PUSH2 0x1D81 JUMP JUMPDEST DUP1 ISZERO PUSH2 0xF51 JUMPI PUSH1 0x0 DUP1 PUSH1 0x1 PUSH2 0x100 EXP DUP2 SLOAD DUP2 PUSH1 0xFF MUL NOT AND SWAP1 DUP4 ISZERO ISZERO MUL OR SWAP1 SSTORE POP JUMPDEST POP JUMP JUMPDEST PUSH1 0x0 PUSH1 0x33 PUSH1 0x0 SWAP1 SLOAD SWAP1 PUSH2 0x100 EXP SWAP1 DIV PUSH20 0xFFFFFFFFFFFFFFFFFFFFFFFFFFFFFFFFFFFFFFFF AND SWAP1 POP SWAP1 JUMP JUMPDEST PUSH1 0x1 PUSH1 0xFC PUSH1 0x0 CALLER PUSH20 0xFFFFFFFFFFFFFFFFFFFFFFFFFFFFFFFFFFFFFFFF AND PUSH20 0xFFFFFFFFFFFFFFFFFFFFFFFFFFFFFFFFFFFFFFFF AND DUP2 MSTORE PUSH1 0x20 ADD SWAP1 DUP2 MSTORE PUSH1 0x20 ADD PUSH1 0x0 KECCAK256 SLOAD EQ PUSH2 0x1000 JUMPI PUSH1 0x40 MLOAD PUSH32 0x8C379A000000000000000000000000000000000000000000000000000000000 DUP2 MSTORE PUSH1 0x4 ADD PUSH2 0xFF7 SWAP1 PUSH2 0x3632 JUMP JUMPDEST PUSH1 0x40 MLOAD DUP1 SWAP2 SUB SWAP1 REVERT JUMPDEST PUSH1 0x0 PUSH1 0xFE PUSH1 0x0 DUP4 PUSH20 0xFFFFFFFFFFFFFFFFFFFFFFFFFFFFFFFFFFFFFFFF AND PUSH20 0xFFFFFFFFFFFFFFFFFFFFFFFFFFFFFFFFFFFFFFFF AND DUP2 MSTORE PUSH1 0x20 ADD SWAP1 DUP2 MSTORE PUSH1 0x20 ADD PUSH1 0x0 KECCAK256 DUP2 SWAP1 SSTORE POP POP JUMP JUMPDEST PUSH1 0x60 PUSH1 0x98 DUP1 SLOAD PUSH2 0x1057 SWAP1 PUSH2 0x31B6 JUMP JUMPDEST DUP1 PUSH1 0x1F ADD PUSH1 0x20 DUP1 SWAP2 DIV MUL PUSH1 0x20 ADD PUSH1 0x40 MLOAD SWAP1 DUP2 ADD PUSH1 0x40 MSTORE DUP1 SWAP3 SWAP2 SWAP1 DUP2 DUP2 MSTORE PUSH1 0x20 ADD DUP3 DUP1 SLOAD PUSH2 0x1083 SWAP1 PUSH2 0x31B6 JUMP JUMPDEST DUP1 ISZERO PUSH2 0x10D0 JUMPI DUP1 PUSH1 0x1F LT PUSH2 0x10A5 JUMPI PUSH2 0x100 DUP1 DUP4 SLOAD DIV MUL DUP4 MSTORE SWAP2 PUSH1 0x20 ADD SWAP2 PUSH2 0x10D0 JUMP JUMPDEST DUP3 ADD SWAP2 SWAP1 PUSH1 0x0 MSTORE PUSH1 0x20 PUSH1 0x0 KECCAK256 SWAP1 JUMPDEST DUP2 SLOAD DUP2 MSTORE SWAP1 PUSH1 0x1 ADD SWAP1 PUSH1 0x20 ADD DUP1 DUP4 GT PUSH2 0x10B3 JUMPI DUP3 SWAP1 SUB PUSH1 0x1F AND DUP3 ADD SWAP2 JUMPDEST POP POP POP POP POP SWAP1 POP SWAP1 JUMP JUMPDEST PUSH1 0x1 PUSH1 0xFC PUSH1 0x0 CALLER PUSH20 0xFFFFFFFFFFFFFFFFFFFFFFFFFFFFFFFFFFFFFFFF AND PUSH20 0xFFFFFFFFFFFFFFFFFFFFFFFFFFFFFFFFFFFFFFFF AND DUP2 MSTORE PUSH1 0x20 ADD SWAP1 DUP2 MSTORE PUSH1 0x20 ADD PUSH1 0x0 KECCAK256 SLOAD EQ PUSH2 0x115C JUMPI PUSH1 0x40 MLOAD PUSH32 0x8C379A000000000000000000000000000000000000000000000000000000000 DUP2 MSTORE PUSH1 0x4 ADD PUSH2 0x1153 SWAP1 PUSH2 0x3632 JUMP JUMPDEST PUSH1 0x40 MLOAD DUP1 SWAP2 SUB SWAP1 REVERT JUMPDEST PUSH1 0x0 PUSH1 0xFC PUSH1 0x0 DUP4 PUSH20 0xFFFFFFFFFFFFFFFFFFFFFFFFFFFFFFFFFFFFFFFF AND PUSH20 0xFFFFFFFFFFFFFFFFFFFFFFFFFFFFFFFFFFFFFFFF AND DUP2 MSTORE PUSH1 0x20 ADD SWAP1 DUP2 MSTORE PUSH1 0x20 ADD PUSH1 0x0 KECCAK256 DUP2 SWAP1 SSTORE POP POP JUMP JUMPDEST PUSH2 0x11B6 PUSH2 0x11AF PUSH2 0x173B JUMP JUMPDEST DUP4 DUP4 PUSH2 0x1DDA JUMP JUMPDEST POP POP JUMP JUMPDEST PUSH1 0x1 ISZERO ISZERO PUSH1 0xFD PUSH1 0x0 DUP5 DUP2 MSTORE PUSH1 0x20 ADD SWAP1 DUP2 MSTORE PUSH1 0x20 ADD PUSH1 0x0 KECCAK256 PUSH1 0x0 SWAP1 SLOAD SWAP1 PUSH2 0x100 EXP SWAP1 DIV PUSH1 0xFF AND ISZERO ISZERO EQ ISZERO PUSH2 0x123F JUMPI PUSH1 0x1 PUSH1 0xFE PUSH1 0x0 PUSH2 0x11F5 PUSH2 0x173B JUMP JUMPDEST PUSH20 0xFFFFFFFFFFFFFFFFFFFFFFFFFFFFFFFFFFFFFFFF AND PUSH20 0xFFFFFFFFFFFFFFFFFFFFFFFFFFFFFFFFFFFFFFFF AND DUP2 MSTORE PUSH1 0x20 ADD SWAP1 DUP2 MSTORE PUSH1 0x20 ADD PUSH1 0x0 KECCAK256 SLOAD EQ PUSH2 0x123A JUMPI PUSH1 0x0 DUP1 REVERT JUMPDEST PUSH2 0x1290 JUMP JUMPDEST PUSH2 0x1250 PUSH2 0x124A PUSH2 0x173B JUMP JUMPDEST DUP4 PUSH2 0x17FC JUMP JUMPDEST PUSH2 0x128F JUMPI PUSH1 0x40 MLOAD PUSH32 0x8C379A000000000000000000000000000000000000000000000000000000000 DUP2 MSTORE PUSH1 0x4 ADD PUSH2 0x1286 SWAP1 PUSH2 0x34A2 JUMP JUMPDEST PUSH1 0x40 MLOAD DUP1 SWAP2 SUB SWAP1 REVERT JUMPDEST JUMPDEST PUSH2 0x129C DUP5 DUP5 DUP5 DUP5 PUSH2 0x1F47 JUMP JUMPDEST POP POP POP POP JUMP JUMPDEST PUSH1 0x1 PUSH1 0xFC PUSH1 0x0 CALLER PUSH20 0xFFFFFFFFFFFFFFFFFFFFFFFFFFFFFFFFFFFFFFFF AND PUSH20 0xFFFFFFFFFFFFFFFFFFFFFFFFFFFFFFFFFFFFFFFF AND DUP2 MSTORE PUSH1 0x20 ADD SWAP1 DUP2 MSTORE PUSH1 0x20 ADD PUSH1 0x0 KECCAK256 SLOAD EQ PUSH2 0x1324 JUMPI PUSH1 0x40 MLOAD PUSH32 0x8C379A000000000000000000000000000000000000000000000000000000000 DUP2 MSTORE PUSH1 0x4 ADD PUSH2 0x131B SWAP1 PUSH2 0x3632 JUMP JUMPDEST PUSH1 0x40 MLOAD DUP1 SWAP2 SUB SWAP1 REVERT JUMPDEST PUSH1 0x1 PUSH1 0xFE PUSH1 0x0 DUP4 PUSH20 0xFFFFFFFFFFFFFFFFFFFFFFFFFFFFFFFFFFFFFFFF AND PUSH20 0xFFFFFFFFFFFFFFFFFFFFFFFFFFFFFFFFFFFFFFFF AND DUP2 MSTORE PUSH1 0x20 ADD SWAP1 DUP2 MSTORE PUSH1 0x20 ADD PUSH1 0x0 KECCAK256 DUP2 SWAP1 SSTORE POP POP JUMP JUMPDEST PUSH2 0x1377 DUP5 DUP5 DUP4 PUSH2 0x1FA3 JUMP JUMPDEST PUSH2 0x1381 DUP4 DUP4 PUSH2 0x21A9 JUMP JUMPDEST POP POP POP POP JUMP JUMPDEST PUSH1 0x60 PUSH2 0x1392 DUP3 PUSH2 0x16CF JUMP JUMPDEST PUSH2 0x13D1 JUMPI PUSH1 0x40 MLOAD PUSH32 0x8C379A000000000000000000000000000000000000000000000000000000000 DUP2 MSTORE PUSH1 0x4 ADD PUSH2 0x13C8 SWAP1 PUSH2 0x3854 JUMP JUMPDEST PUSH1 0x40 MLOAD DUP1 SWAP2 SUB SWAP1 REVERT JUMPDEST PUSH1 0x0 PUSH1 0xC9 PUSH1 0x0 DUP5 DUP2 MSTORE PUSH1 0x20 ADD SWAP1 DUP2 MSTORE PUSH1 0x20 ADD PUSH1 0x0 KECCAK256 DUP1 SLOAD PUSH2 0x13F1 SWAP1 PUSH2 0x31B6 JUMP JUMPDEST DUP1 PUSH1 0x1F ADD PUSH1 0x20 DUP1 SWAP2 DIV MUL PUSH1 0x20 ADD PUSH1 0x40 MLOAD SWAP1 DUP2 ADD PUSH1 0x40 MSTORE DUP1 SWAP3 SWAP2 SWAP1 DUP2 DUP2 MSTORE PUSH1 0x20 ADD DUP3 DUP1 SLOAD PUSH2 0x141D SWAP1 PUSH2 0x31B6 JUMP JUMPDEST DUP1 ISZERO PUSH2 0x146A JUMPI DUP1 PUSH1 0x1F LT PUSH2 0x143F JUMPI PUSH2 0x100 DUP1 DUP4 SLOAD DIV MUL DUP4 MSTORE SWAP2 PUSH1 0x20 ADD SWAP2 PUSH2 0x146A JUMP JUMPDEST DUP3 ADD SWAP2 SWAP1 PUSH1 0x0 MSTORE PUSH1 0x20 PUSH1 0x0 KECCAK256 SWAP1 JUMPDEST DUP2 SLOAD DUP2 MSTORE SWAP1 PUSH1 0x1 ADD SWAP1 PUSH1 0x20 ADD DUP1 DUP4 GT PUSH2 0x144D JUMPI DUP3 SWAP1 SUB PUSH1 0x1F AND DUP3 ADD SWAP2 JUMPDEST POP POP POP POP POP SWAP1 POP PUSH1 0x0 PUSH2 0x147B PUSH2 0x221D JUMP JUMPDEST SWAP1 POP PUSH1 0x0 DUP2 MLOAD EQ ISZERO PUSH2 0x1491 JUMPI DUP2 SWAP3 POP POP POP PUSH2 0x14D4 JUMP JUMPDEST PUSH1 0x0 DUP3 MLOAD GT ISZERO PUSH2 0x14C6 JUMPI DUP1 DUP3 PUSH1 0x40 MLOAD PUSH1 0x20 ADD PUSH2 0x14AE SWAP3 SWAP2 SWAP1 PUSH2 0x38B0 JUMP JUMPDEST PUSH1 0x40 MLOAD PUSH1 0x20 DUP2 DUP4 SUB SUB DUP2 MSTORE SWAP1 PUSH1 0x40 MSTORE SWAP3 POP POP POP PUSH2 0x14D4 JUMP JUMPDEST PUSH2 0x14CF DUP5 PUSH2 0x22AF JUMP JUMPDEST SWAP3 POP POP POP JUMPDEST SWAP2 SWAP1 POP JUMP JUMPDEST PUSH1 0x0 PUSH1 0x9C PUSH1 0x0 DUP5 PUSH20 0xFFFFFFFFFFFFFFFFFFFFFFFFFFFFFFFFFFFFFFFF AND PUSH20 0xFFFFFFFFFFFFFFFFFFFFFFFFFFFFFFFFFFFFFFFF AND DUP2 MSTORE PUSH1 0x20 ADD SWAP1 DUP2 MSTORE PUSH1 0x20 ADD PUSH1 0x0 KECCAK256 PUSH1 0x0 DUP4 PUSH20 0xFFFFFFFFFFFFFFFFFFFFFFFFFFFFFFFFFFFFFFFF AND PUSH20 0xFFFFFFFFFFFFFFFFFFFFFFFFFFFFFFFFFFFFFFFF AND DUP2 MSTORE PUSH1 0x20 ADD SWAP1 DUP2 MSTORE PUSH1 0x20 ADD PUSH1 0x0 KECCAK256 PUSH1 0x0 SWAP1 SLOAD SWAP1 PUSH2 0x100 EXP SWAP1 DIV PUSH1 0xFF AND SWAP1 POP SWAP3 SWAP2 POP POP JUMP JUMPDEST PUSH2 0x1575 PUSH2 0x173B JUMP JUMPDEST PUSH20 0xFFFFFFFFFFFFFFFFFFFFFFFFFFFFFFFFFFFFFFFF AND PUSH2 0x1593 PUSH2 0xF54 JUMP JUMPDEST PUSH20 0xFFFFFFFFFFFFFFFFFFFFFFFFFFFFFFFFFFFFFFFF AND EQ PUSH2 0x15E9 JUMPI PUSH1 0x40 MLOAD PUSH32 0x8C379A000000000000000000000000000000000000000000000000000000000 DUP2 MSTORE PUSH1 0x4 ADD PUSH2 0x15E0 SWAP1 PUSH2 0x369E JUMP JUMPDEST PUSH1 0x40 MLOAD DUP1 SWAP2 SUB SWAP1 REVERT JUMPDEST PUSH1 0x0 PUSH20 0xFFFFFFFFFFFFFFFFFFFFFFFFFFFFFFFFFFFFFFFF AND DUP2 PUSH20 0xFFFFFFFFFFFFFFFFFFFFFFFFFFFFFFFFFFFFFFFF AND EQ ISZERO PUSH2 0x1659 JUMPI PUSH1 0x40 MLOAD PUSH32 0x8C379A000000000000000000000000000000000000000000000000000000000 DUP2 MSTORE PUSH1 0x4 ADD PUSH2 0x1650 SWAP1 PUSH2 0x3946 JUMP JUMPDEST PUSH1 0x40 MLOAD DUP1 SWAP2 SUB SWAP1 REVERT JUMPDEST PUSH2 0x1662 DUP2 PUSH2 0x1B94 JUMP JUMPDEST POP JUMP JUMPDEST PUSH1 0x0 PUSH32 0x1FFC9A700000000000000000000000000000000000000000000000000000000 PUSH28 0xFFFFFFFFFFFFFFFFFFFFFFFFFFFFFFFFFFFFFFFFFFFFFFFFFFFFFFFF NOT AND DUP3 PUSH28 0xFFFFFFFFFFFFFFFFFFFFFFFFFFFFFFFFFFFFFFFFFFFFFFFFFFFFFFFF NOT AND EQ SWAP1 POP SWAP2 SWAP1 POP JUMP JUMPDEST PUSH1 0x0 DUP1 PUSH20 0xFFFFFFFFFFFFFFFFFFFFFFFFFFFFFFFFFFFFFFFF AND PUSH1 0x99 PUSH1 0x0 DUP5 DUP2 MSTORE PUSH1 0x20 ADD SWAP1 DUP2 MSTORE PUSH1 0x20 ADD PUSH1 0x0 KECCAK256 PUSH1 0x0 SWAP1 SLOAD SWAP1 PUSH2 0x100 EXP SWAP1 DIV PUSH20 0xFFFFFFFFFFFFFFFFFFFFFFFFFFFFFFFFFFFFFFFF AND PUSH20 0xFFFFFFFFFFFFFFFFFFFFFFFFFFFFFFFFFFFFFFFF AND EQ ISZERO SWAP1 POP SWAP2 SWAP1 POP JUMP JUMPDEST PUSH1 0x0 CALLER SWAP1 POP SWAP1 JUMP JUMPDEST DUP2 PUSH1 0x9B PUSH1 0x0 DUP4 DUP2 MSTORE PUSH1 0x20 ADD SWAP1 DUP2 MSTORE PUSH1 0x20 ADD PUSH1 0x0 KECCAK256 PUSH1 0x0 PUSH2 0x100 EXP DUP2 SLOAD DUP2 PUSH20 0xFFFFFFFFFFFFFFFFFFFFFFFFFFFFFFFFFFFFFFFF MUL NOT AND SWAP1 DUP4 PUSH20 0xFFFFFFFFFFFFFFFFFFFFFFFFFFFFFFFFFFFFFFFF AND MUL OR SWAP1 SSTORE POP DUP1 DUP3 PUSH20 0xFFFFFFFFFFFFFFFFFFFFFFFFFFFFFFFFFFFFFFFF AND PUSH2 0x17B6 DUP4 PUSH2 0x997 JUMP JUMPDEST PUSH20 0xFFFFFFFFFFFFFFFFFFFFFFFFFFFFFFFFFFFFFFFF AND PUSH32 0x8C5BE1E5EBEC7D5BD14F71427D1E84F3DD0314C0F7B2291E5B200AC8C7C3B925 PUSH1 0x40 MLOAD PUSH1 0x40 MLOAD DUP1 SWAP2 SUB SWAP1 LOG4 POP POP JUMP JUMPDEST PUSH1 0x0 PUSH2 0x1807 DUP3 PUSH2 0x16CF JUMP JUMPDEST PUSH2 0x1846 JUMPI PUSH1 0x40 MLOAD PUSH32 0x8C379A000000000000000000000000000000000000000000000000000000000 DUP2 MSTORE PUSH1 0x4 ADD PUSH2 0x183D SWAP1 PUSH2 0x39D8 JUMP JUMPDEST PUSH1 0x40 MLOAD DUP1 SWAP2 SUB SWAP1 REVERT JUMPDEST PUSH1 0x0 PUSH2 0x1851 DUP4 PUSH2 0x997 JUMP JUMPDEST SWAP1 POP DUP1 PUSH20 0xFFFFFFFFFFFFFFFFFFFFFFFFFFFFFFFFFFFFFFFF AND DUP5 PUSH20 0xFFFFFFFFFFFFFFFFFFFFFFFFFFFFFFFFFFFFFFFF AND EQ DUP1 PUSH2 0x18C0 JUMPI POP DUP4 PUSH20 0xFFFFFFFFFFFFFFFFFFFFFFFFFFFFFFFFFFFFFFFF AND PUSH2 0x18A8 DUP5 PUSH2 0x64D JUMP JUMPDEST PUSH20 0xFFFFFFFFFFFFFFFFFFFFFFFFFFFFFFFFFFFFFFFF AND EQ JUMPDEST DUP1 PUSH2 0x18D1 JUMPI POP PUSH2 0x18D0 DUP2 DUP6 PUSH2 0x14D9 JUMP JUMPDEST JUMPDEST SWAP2 POP POP SWAP3 SWAP2 POP POP JUMP JUMPDEST DUP3 PUSH20 0xFFFFFFFFFFFFFFFFFFFFFFFFFFFFFFFFFFFFFFFF AND PUSH2 0x18FA DUP3 PUSH2 0x997 JUMP JUMPDEST PUSH20 0xFFFFFFFFFFFFFFFFFFFFFFFFFFFFFFFFFFFFFFFF AND EQ PUSH2 0x1950 JUMPI PUSH1 0x40 MLOAD PUSH32 0x8C379A000000000000000000000000000000000000000000000000000000000 DUP2 MSTORE PUSH1 0x4 ADD PUSH2 0x1947 SWAP1 PUSH2 0x3A6A JUMP JUMPDEST PUSH1 0x40 MLOAD DUP1 SWAP2 SUB SWAP1 REVERT JUMPDEST PUSH1 0x0 PUSH20 0xFFFFFFFFFFFFFFFFFFFFFFFFFFFFFFFFFFFFFFFF AND DUP3 PUSH20 0xFFFFFFFFFFFFFFFFFFFFFFFFFFFFFFFFFFFFFFFF AND EQ ISZERO PUSH2 0x19C0 JUMPI PUSH1 0x40 MLOAD PUSH32 0x8C379A000000000000000000000000000000000000000000000000000000000 DUP2 MSTORE PUSH1 0x4 ADD PUSH2 0x19B7 SWAP1 PUSH2 0x3AFC JUMP JUMPDEST PUSH1 0x40 MLOAD DUP1 SWAP2 SUB SWAP1 REVERT JUMPDEST PUSH2 0x19CB DUP4 DUP4 DUP4 PUSH2 0x2356 JUMP JUMPDEST PUSH2 0x19D6 PUSH1 0x0 DUP3 PUSH2 0x1743 JUMP JUMPDEST PUSH1 0x1 PUSH1 0x9A PUSH1 0x0 DUP6 PUSH20 0xFFFFFFFFFFFFFFFFFFFFFFFFFFFFFFFFFFFFFFFF AND PUSH20 0xFFFFFFFFFFFFFFFFFFFFFFFFFFFFFFFFFFFFFFFF AND DUP2 MSTORE PUSH1 0x20 ADD SWAP1 DUP2 MSTORE PUSH1 0x20 ADD PUSH1 0x0 KECCAK256 PUSH1 0x0 DUP3 DUP3 SLOAD PUSH2 0x1A26 SWAP2 SWAP1 PUSH2 0x3B4B JUMP JUMPDEST SWAP3 POP POP DUP2 SWAP1 SSTORE POP PUSH1 0x1 PUSH1 0x9A PUSH1 0x0 DUP5 PUSH20 0xFFFFFFFFFFFFFFFFFFFFFFFFFFFFFFFFFFFFFFFF AND PUSH20 0xFFFFFFFFFFFFFFFFFFFFFFFFFFFFFFFFFFFFFFFF AND DUP2 MSTORE PUSH1 0x20 ADD SWAP1 DUP2 MSTORE PUSH1 0x20 ADD PUSH1 0x0 KECCAK256 PUSH1 0x0 DUP3 DUP3 SLOAD PUSH2 0x1A7D SWAP2 SWAP1 PUSH2 0x3B7F JUMP JUMPDEST SWAP3 POP POP DUP2 SWAP1 SSTORE POP DUP2 PUSH1 0x99 PUSH1 0x0 DUP4 DUP2 MSTORE PUSH1 0x20 ADD SWAP1 DUP2 MSTORE PUSH1 0x20 ADD PUSH1 0x0 KECCAK256 PUSH1 0x0 PUSH2 0x100 EXP DUP2 SLOAD DUP2 PUSH20 0xFFFFFFFFFFFFFFFFFFFFFFFFFFFFFFFFFFFFFFFF MUL NOT AND SWAP1 DUP4 PUSH20 0xFFFFFFFFFFFFFFFFFFFFFFFFFFFFFFFFFFFFFFFF AND MUL OR SWAP1 SSTORE POP DUP1 DUP3 PUSH20 0xFFFFFFFFFFFFFFFFFFFFFFFFFFFFFFFFFFFFFFFF AND DUP5 PUSH20 0xFFFFFFFFFFFFFFFFFFFFFFFFFFFFFFFFFFFFFFFF AND PUSH32 0xDDF252AD1BE2C89B69C2B068FC378DAA952BA7F163C4A11628F55A4DF523B3EF PUSH1 0x40 MLOAD PUSH1 0x40 MLOAD DUP1 SWAP2 SUB SWAP1 LOG4 PUSH2 0x1B3C DUP4 DUP4 DUP4 PUSH2 0x235B JUMP JUMPDEST POP POP POP JUMP JUMPDEST PUSH2 0x1B4A DUP2 PUSH2 0x2360 JUMP JUMPDEST PUSH1 0x0 PUSH1 0xC9 PUSH1 0x0 DUP4 DUP2 MSTORE PUSH1 0x20 ADD SWAP1 DUP2 MSTORE PUSH1 0x20 ADD PUSH1 0x0 KECCAK256 DUP1 SLOAD PUSH2 0x1B6A SWAP1 PUSH2 0x31B6 JUMP JUMPDEST SWAP1 POP EQ PUSH2 0x1B91 JUMPI PUSH1 0xC9 PUSH1 0x0 DUP3 DUP2 MSTORE PUSH1 0x20 ADD SWAP1 DUP2 MSTORE PUSH1 0x20 ADD PUSH1 0x0 KECCAK256 PUSH1 0x0 PUSH2 0x1B90 SWAP2 SWAP1 PUSH2 0x286B JUMP JUMPDEST JUMPDEST POP JUMP JUMPDEST PUSH1 0x0 PUSH1 0x33 PUSH1 0x0 SWAP1 SLOAD SWAP1 PUSH2 0x100 EXP SWAP1 DIV PUSH20 0xFFFFFFFFFFFFFFFFFFFFFFFFFFFFFFFFFFFFFFFF AND SWAP1 POP DUP2 PUSH1 0x33 PUSH1 0x0 PUSH2 0x100 EXP DUP2 SLOAD DUP2 PUSH20 0xFFFFFFFFFFFFFFFFFFFFFFFFFFFFFFFFFFFFFFFF MUL NOT AND SWAP1 DUP4 PUSH20 0xFFFFFFFFFFFFFFFFFFFFFFFFFFFFFFFFFFFFFFFF AND MUL OR SWAP1 SSTORE POP DUP2 PUSH20 0xFFFFFFFFFFFFFFFFFFFFFFFFFFFFFFFFFFFFFFFF AND DUP2 PUSH20 0xFFFFFFFFFFFFFFFFFFFFFFFFFFFFFFFFFFFFFFFF AND PUSH32 0x8BE0079C531659141344CD1FD0A4F28419497F9722A3DAAFE3B4186F6B6457E0 PUSH1 0x40 MLOAD PUSH1 0x40 MLOAD DUP1 SWAP2 SUB SWAP1 LOG3 POP POP JUMP JUMPDEST DUP1 PUSH1 0xFD PUSH1 0x0 DUP5 DUP2 MSTORE PUSH1 0x20 ADD SWAP1 DUP2 MSTORE PUSH1 0x20 ADD PUSH1 0x0 KECCAK256 PUSH1 0x0 PUSH2 0x100 EXP DUP2 SLOAD DUP2 PUSH1 0xFF MUL NOT AND SWAP1 DUP4 ISZERO ISZERO MUL OR SWAP1 SSTORE POP PUSH32 0x771F1D1DAA3CCA46394B02D1373B06948F241B5B7E948A11CBBF6A2A90DBCB2B DUP3 DUP3 PUSH1 0x40 MLOAD PUSH2 0x1CB6 SWAP3 SWAP2 SWAP1 PUSH2 0x3BD5 JUMP JUMPDEST PUSH1 0x40 MLOAD DUP1 SWAP2 SUB SWAP1 LOG1 POP POP JUMP JUMPDEST PUSH1 0x0 PUSH2 0x1CCD ADDRESS PUSH2 0x247D JUMP JUMPDEST ISZERO SWAP1 POP SWAP1 JUMP JUMPDEST PUSH1 0x0 PUSH1 0x1 SWAP1 SLOAD SWAP1 PUSH2 0x100 EXP SWAP1 DIV PUSH1 0xFF AND PUSH2 0x1D22 JUMPI PUSH1 0x40 MLOAD PUSH32 0x8C379A000000000000000000000000000000000000000000000000000000000 DUP2 MSTORE PUSH1 0x4 ADD PUSH2 0x1D19 SWAP1 PUSH2 0x3C70 JUMP JUMPDEST PUSH1 0x40 MLOAD DUP1 SWAP2 SUB SWAP1 REVERT JUMPDEST PUSH2 0x1D2C DUP3 DUP3 PUSH2 0x24A0 JUMP JUMPDEST POP POP JUMP JUMPDEST PUSH1 0x0 PUSH1 0x1 SWAP1 SLOAD SWAP1 PUSH2 0x100 EXP SWAP1 DIV PUSH1 0xFF AND PUSH2 0x1D7F JUMPI PUSH1 0x40 MLOAD PUSH32 0x8C379A000000000000000000000000000000000000000000000000000000000 DUP2 MSTORE PUSH1 0x4 ADD PUSH2 0x1D76 SWAP1 PUSH2 0x3C70 JUMP JUMPDEST PUSH1 0x40 MLOAD DUP1 SWAP2 SUB SWAP1 REVERT JUMPDEST JUMP JUMPDEST PUSH1 0x0 PUSH1 0x1 SWAP1 SLOAD SWAP1 PUSH2 0x100 EXP SWAP1 DIV PUSH1 0xFF AND PUSH2 0x1DD0 JUMPI PUSH1 0x40 MLOAD PUSH32 0x8C379A000000000000000000000000000000000000000000000000000000000 DUP2 MSTORE PUSH1 0x4 ADD PUSH2 0x1DC7 SWAP1 PUSH2 0x3C70 JUMP JUMPDEST PUSH1 0x40 MLOAD DUP1 SWAP2 SUB SWAP1 REVERT JUMPDEST PUSH2 0x1DD8 PUSH2 0x2521 JUMP JUMPDEST JUMP JUMPDEST DUP2 PUSH20 0xFFFFFFFFFFFFFFFFFFFFFFFFFFFFFFFFFFFFFFFF AND DUP4 PUSH20 0xFFFFFFFFFFFFFFFFFFFFFFFFFFFFFFFFFFFFFFFF AND EQ ISZERO PUSH2 0x1E49 JUMPI PUSH1 0x40 MLOAD PUSH32 0x8C379A000000000000000000000000000000000000000000000000000000000 DUP2 MSTORE PUSH1 0x4 ADD PUSH2 0x1E40 SWAP1 PUSH2 0x3CDC JUMP JUMPDEST PUSH1 0x40 MLOAD DUP1 SWAP2 SUB SWAP1 REVERT JUMPDEST DUP1 PUSH1 0x9C PUSH1 0x0 DUP6 PUSH20 0xFFFFFFFFFFFFFFFFFFFFFFFFFFFFFFFFFFFFFFFF AND PUSH20 0xFFFFFFFFFFFFFFFFFFFFFFFFFFFFFFFFFFFFFFFF AND DUP2 MSTORE PUSH1 0x20 ADD SWAP1 DUP2 MSTORE PUSH1 0x20 ADD PUSH1 0x0 KECCAK256 PUSH1 0x0 DUP5 PUSH20 0xFFFFFFFFFFFFFFFFFFFFFFFFFFFFFFFFFFFFFFFF AND PUSH20 0xFFFFFFFFFFFFFFFFFFFFFFFFFFFFFFFFFFFFFFFF AND DUP2 MSTORE PUSH1 0x20 ADD SWAP1 DUP2 MSTORE PUSH1 0x20 ADD PUSH1 0x0 KECCAK256 PUSH1 0x0 PUSH2 0x100 EXP DUP2 SLOAD DUP2 PUSH1 0xFF MUL NOT AND SWAP1 DUP4 ISZERO ISZERO MUL OR SWAP1 SSTORE POP DUP2 PUSH20 0xFFFFFFFFFFFFFFFFFFFFFFFFFFFFFFFFFFFFFFFF AND DUP4 PUSH20 0xFFFFFFFFFFFFFFFFFFFFFFFFFFFFFFFFFFFFFFFF AND PUSH32 0x17307EAB39AB6107E8899845AD3D59BD9653F200F220920489CA2B5937696C31 DUP4 PUSH1 0x40 MLOAD PUSH2 0x1F3A SWAP2 SWAP1 PUSH2 0x2A02 JUMP JUMPDEST PUSH1 0x40 MLOAD DUP1 SWAP2 SUB SWAP1 LOG3 POP POP POP JUMP JUMPDEST PUSH2 0x1F52 DUP5 DUP5 DUP5 PUSH2 0x18DA JUMP JUMPDEST PUSH2 0x1F5E DUP5 DUP5 DUP5 DUP5 PUSH2 0x2582 JUMP JUMPDEST PUSH2 0x1F9D JUMPI PUSH1 0x40 MLOAD PUSH32 0x8C379A000000000000000000000000000000000000000000000000000000000 DUP2 MSTORE PUSH1 0x4 ADD PUSH2 0x1F94 SWAP1 PUSH2 0x3D6E JUMP JUMPDEST PUSH1 0x40 MLOAD DUP1 SWAP2 SUB SWAP1 REVERT JUMPDEST POP POP POP POP JUMP JUMPDEST PUSH1 0x0 PUSH20 0xFFFFFFFFFFFFFFFFFFFFFFFFFFFFFFFFFFFFFFFF AND DUP4 PUSH20 0xFFFFFFFFFFFFFFFFFFFFFFFFFFFFFFFFFFFFFFFF AND EQ ISZERO PUSH2 0x2013 JUMPI PUSH1 0x40 MLOAD PUSH32 0x8C379A000000000000000000000000000000000000000000000000000000000 DUP2 MSTORE PUSH1 0x4 ADD PUSH2 0x200A SWAP1 PUSH2 0x3DDA JUMP JUMPDEST PUSH1 0x40 MLOAD DUP1 SWAP2 SUB SWAP1 REVERT JUMPDEST PUSH2 0x201C DUP3 PUSH2 0x16CF JUMP JUMPDEST ISZERO PUSH2 0x205C JUMPI PUSH1 0x40 MLOAD PUSH32 0x8C379A000000000000000000000000000000000000000000000000000000000 DUP2 MSTORE PUSH1 0x4 ADD PUSH2 0x2053 SWAP1 PUSH2 0x3E46 JUMP JUMPDEST PUSH1 0x40 MLOAD DUP1 SWAP2 SUB SWAP1 REVERT JUMPDEST PUSH2 0x2068 PUSH1 0x0 DUP5 DUP5 PUSH2 0x2356 JUMP JUMPDEST PUSH1 0x1 PUSH1 0x9A PUSH1 0x0 DUP6 PUSH20 0xFFFFFFFFFFFFFFFFFFFFFFFFFFFFFFFFFFFFFFFF AND PUSH20 0xFFFFFFFFFFFFFFFFFFFFFFFFFFFFFFFFFFFFFFFF AND DUP2 MSTORE PUSH1 0x20 ADD SWAP1 DUP2 MSTORE PUSH1 0x20 ADD PUSH1 0x0 KECCAK256 PUSH1 0x0 DUP3 DUP3 SLOAD PUSH2 0x20B8 SWAP2 SWAP1 PUSH2 0x3B7F JUMP JUMPDEST SWAP3 POP POP DUP2 SWAP1 SSTORE POP DUP3 PUSH1 0x99 PUSH1 0x0 DUP5 DUP2 MSTORE PUSH1 0x20 ADD SWAP1 DUP2 MSTORE PUSH1 0x20 ADD PUSH1 0x0 KECCAK256 PUSH1 0x0 PUSH2 0x100 EXP DUP2 SLOAD DUP2 PUSH20 0xFFFFFFFFFFFFFFFFFFFFFFFFFFFFFFFFFFFFFFFF MUL NOT AND SWAP1 DUP4 PUSH20 0xFFFFFFFFFFFFFFFFFFFFFFFFFFFFFFFFFFFFFFFF AND MUL OR SWAP1 SSTORE POP DUP1 PUSH1 0xFD PUSH1 0x0 DUP5 DUP2 MSTORE PUSH1 0x20 ADD SWAP1 DUP2 MSTORE PUSH1 0x20 ADD PUSH1 0x0 KECCAK256 PUSH1 0x0 PUSH2 0x100 EXP DUP2 SLOAD DUP2 PUSH1 0xFF MUL NOT AND SWAP1 DUP4 ISZERO ISZERO MUL OR SWAP1 SSTORE POP DUP2 DUP4 PUSH20 0xFFFFFFFFFFFFFFFFFFFFFFFFFFFFFFFFFFFFFFFF AND PUSH1 0x0 PUSH20 0xFFFFFFFFFFFFFFFFFFFFFFFFFFFFFFFFFFFFFFFF AND PUSH32 0xDDF252AD1BE2C89B69C2B068FC378DAA952BA7F163C4A11628F55A4DF523B3EF PUSH1 0x40 MLOAD PUSH1 0x40 MLOAD DUP1 SWAP2 SUB SWAP1 LOG4 PUSH2 0x21A4 PUSH1 0x0 DUP5 DUP5 PUSH2 0x235B JUMP JUMPDEST POP POP POP JUMP JUMPDEST PUSH2 0x21B2 DUP3 PUSH2 0x16CF JUMP JUMPDEST PUSH2 0x21F1 JUMPI PUSH1 0x40 MLOAD PUSH32 0x8C379A000000000000000000000000000000000000000000000000000000000 DUP2 MSTORE PUSH1 0x4 ADD PUSH2 0x21E8 SWAP1 PUSH2 0x3ED8 JUMP JUMPDEST PUSH1 0x40 MLOAD DUP1 SWAP2 SUB SWAP1 REVERT JUMPDEST DUP1 PUSH1 0xC9 PUSH1 0x0 DUP5 DUP2 MSTORE PUSH1 0x20 ADD SWAP1 DUP2 MSTORE PUSH1 0x20 ADD PUSH1 0x0 KECCAK256 SWAP1 DUP1 MLOAD SWAP1 PUSH1 0x20 ADD SWAP1 PUSH2 0x2218 SWAP3 SWAP2 SWAP1 PUSH2 0x28AB JUMP JUMPDEST POP POP POP JUMP JUMPDEST PUSH1 0x60 PUSH1 0xFB DUP1 SLOAD PUSH2 0x222C SWAP1 PUSH2 0x31B6 JUMP JUMPDEST DUP1 PUSH1 0x1F ADD PUSH1 0x20 DUP1 SWAP2 DIV MUL PUSH1 0x20 ADD PUSH1 0x40 MLOAD SWAP1 DUP2 ADD PUSH1 0x40 MSTORE DUP1 SWAP3 SWAP2 SWAP1 DUP2 DUP2 MSTORE PUSH1 0x20 ADD DUP3 DUP1 SLOAD PUSH2 0x2258 SWAP1 PUSH2 0x31B6 JUMP JUMPDEST DUP1 ISZERO PUSH2 0x22A5 JUMPI DUP1 PUSH1 0x1F LT PUSH2 0x227A JUMPI PUSH2 0x100 DUP1 DUP4 SLOAD DIV MUL DUP4 MSTORE SWAP2 PUSH1 0x20 ADD SWAP2 PUSH2 0x22A5 JUMP JUMPDEST DUP3 ADD SWAP2 SWAP1 PUSH1 0x0 MSTORE PUSH1 0x20 PUSH1 0x0 KECCAK256 SWAP1 JUMPDEST DUP2 SLOAD DUP2 MSTORE SWAP1 PUSH1 0x1 ADD SWAP1 PUSH1 0x20 ADD DUP1 DUP4 GT PUSH2 0x2288 JUMPI DUP3 SWAP1 SUB PUSH1 0x1F AND DUP3 ADD SWAP2 JUMPDEST POP POP POP POP POP SWAP1 POP SWAP1 JUMP JUMPDEST PUSH1 0x60 PUSH2 0x22BA DUP3 PUSH2 0x16CF JUMP JUMPDEST PUSH2 0x22F9 JUMPI PUSH1 0x40 MLOAD PUSH32 0x8C379A000000000000000000000000000000000000000000000000000000000 DUP2 MSTORE PUSH1 0x4 ADD PUSH2 0x22F0 SWAP1 PUSH2 0x3F6A JUMP JUMPDEST PUSH1 0x40 MLOAD DUP1 SWAP2 SUB SWAP1 REVERT JUMPDEST PUSH1 0x0 PUSH2 0x2303 PUSH2 0x221D JUMP JUMPDEST SWAP1 POP PUSH1 0x0 DUP2 MLOAD GT PUSH2 0x2323 JUMPI PUSH1 0x40 MLOAD DUP1 PUSH1 0x20 ADD PUSH1 0x40 MSTORE DUP1 PUSH1 0x0 DUP2 MSTORE POP PUSH2 0x234E JUMP JUMPDEST DUP1 PUSH2 0x232D DUP5 PUSH2 0x270A JUMP JUMPDEST PUSH1 0x40 MLOAD PUSH1 0x20 ADD PUSH2 0x233E SWAP3 SWAP2 SWAP1 PUSH2 0x38B0 JUMP JUMPDEST PUSH1 0x40 MLOAD PUSH1 0x20 DUP2 DUP4 SUB SUB DUP2 MSTORE SWAP1 PUSH1 0x40 MSTORE JUMPDEST SWAP2 POP POP SWAP2 SWAP1 POP JUMP JUMPDEST POP POP POP JUMP JUMPDEST POP POP POP JUMP JUMPDEST PUSH1 0x0 PUSH2 0x236B DUP3 PUSH2 0x997 JUMP JUMPDEST SWAP1 POP PUSH2 0x2379 DUP2 PUSH1 0x0 DUP5 PUSH2 0x2356 JUMP JUMPDEST PUSH2 0x2384 PUSH1 0x0 DUP4 PUSH2 0x1743 JUMP JUMPDEST PUSH1 0x1 PUSH1 0x9A PUSH1 0x0 DUP4 PUSH20 0xFFFFFFFFFFFFFFFFFFFFFFFFFFFFFFFFFFFFFFFF AND PUSH20 0xFFFFFFFFFFFFFFFFFFFFFFFFFFFFFFFFFFFFFFFF AND DUP2 MSTORE PUSH1 0x20 ADD SWAP1 DUP2 MSTORE PUSH1 0x20 ADD PUSH1 0x0 KECCAK256 PUSH1 0x0 DUP3 DUP3 SLOAD PUSH2 0x23D4 SWAP2 SWAP1 PUSH2 0x3B4B JUMP JUMPDEST SWAP3 POP POP DUP2 SWAP1 SSTORE POP PUSH1 0x99 PUSH1 0x0 DUP4 DUP2 MSTORE PUSH1 0x20 ADD SWAP1 DUP2 MSTORE PUSH1 0x20 ADD PUSH1 0x0 KECCAK256 PUSH1 0x0 PUSH2 0x100 EXP DUP2 SLOAD SWAP1 PUSH20 0xFFFFFFFFFFFFFFFFFFFFFFFFFFFFFFFFFFFFFFFF MUL NOT AND SWAP1 SSTORE DUP2 PUSH1 0x0 PUSH20 0xFFFFFFFFFFFFFFFFFFFFFFFFFFFFFFFFFFFFFFFF AND DUP3 PUSH20 0xFFFFFFFFFFFFFFFFFFFFFFFFFFFFFFFFFFFFFFFF AND PUSH32 0xDDF252AD1BE2C89B69C2B068FC378DAA952BA7F163C4A11628F55A4DF523B3EF PUSH1 0x40 MLOAD PUSH1 0x40 MLOAD DUP1 SWAP2 SUB SWAP1 LOG4 PUSH2 0x2479 DUP2 PUSH1 0x0 DUP5 PUSH2 0x235B JUMP JUMPDEST POP POP JUMP JUMPDEST PUSH1 0x0 DUP1 DUP3 PUSH20 0xFFFFFFFFFFFFFFFFFFFFFFFFFFFFFFFFFFFFFFFF AND EXTCODESIZE GT SWAP1 POP SWAP2 SWAP1 POP JUMP JUMPDEST PUSH1 0x0 PUSH1 0x1 SWAP1 SLOAD SWAP1 PUSH2 0x100 EXP SWAP1 DIV PUSH1 0xFF AND PUSH2 0x24EF JUMPI PUSH1 0x40 MLOAD PUSH32 0x8C379A000000000000000000000000000000000000000000000000000000000 DUP2 MSTORE PUSH1 0x4 ADD PUSH2 0x24E6 SWAP1 PUSH2 0x3C70 JUMP JUMPDEST PUSH1 0x40 MLOAD DUP1 SWAP2 SUB SWAP1 REVERT JUMPDEST DUP2 PUSH1 0x97 SWAP1 DUP1 MLOAD SWAP1 PUSH1 0x20 ADD SWAP1 PUSH2 0x2505 SWAP3 SWAP2 SWAP1 PUSH2 0x28AB JUMP JUMPDEST POP DUP1 PUSH1 0x98 SWAP1 DUP1 MLOAD SWAP1 PUSH1 0x20 ADD SWAP1 PUSH2 0x251C SWAP3 SWAP2 SWAP1 PUSH2 0x28AB JUMP JUMPDEST POP POP POP JUMP JUMPDEST PUSH1 0x0 PUSH1 0x1 SWAP1 SLOAD SWAP1 PUSH2 0x100 EXP SWAP1 DIV PUSH1 0xFF AND PUSH2 0x2570 JUMPI PUSH1 0x40 MLOAD PUSH32 0x8C379A000000000000000000000000000000000000000000000000000000000 DUP2 MSTORE PUSH1 0x4 ADD PUSH2 0x2567 SWAP1 PUSH2 0x3C70 JUMP JUMPDEST PUSH1 0x40 MLOAD DUP1 SWAP2 SUB SWAP1 REVERT JUMPDEST PUSH2 0x2580 PUSH2 0x257B PUSH2 0x173B JUMP JUMPDEST PUSH2 0x1B94 JUMP JUMPDEST JUMP JUMPDEST PUSH1 0x0 PUSH2 0x25A3 DUP5 PUSH20 0xFFFFFFFFFFFFFFFFFFFFFFFFFFFFFFFFFFFFFFFF AND PUSH2 0x247D JUMP JUMPDEST ISZERO PUSH2 0x26FD JUMPI DUP4 PUSH20 0xFFFFFFFFFFFFFFFFFFFFFFFFFFFFFFFFFFFFFFFF AND PUSH4 0x150B7A02 PUSH2 0x25CC PUSH2 0x173B JUMP JUMPDEST DUP8 DUP7 DUP7 PUSH1 0x40 MLOAD DUP6 PUSH4 0xFFFFFFFF AND PUSH1 0xE0 SHL DUP2 MSTORE PUSH1 0x4 ADD PUSH2 0x25EE SWAP5 SWAP4 SWAP3 SWAP2 SWAP1 PUSH2 0x3FDF JUMP JUMPDEST PUSH1 0x20 PUSH1 0x40 MLOAD DUP1 DUP4 SUB DUP2 PUSH1 0x0 DUP8 GAS CALL SWAP3 POP POP POP DUP1 ISZERO PUSH2 0x262A JUMPI POP PUSH1 0x40 MLOAD RETURNDATASIZE PUSH1 0x1F NOT PUSH1 0x1F DUP3 ADD AND DUP3 ADD DUP1 PUSH1 0x40 MSTORE POP DUP2 ADD SWAP1 PUSH2 0x2627 SWAP2 SWAP1 PUSH2 0x4040 JUMP JUMPDEST PUSH1 0x1 JUMPDEST PUSH2 0x26AD JUMPI RETURNDATASIZE DUP1 PUSH1 0x0 DUP2 EQ PUSH2 0x265A JUMPI PUSH1 0x40 MLOAD SWAP2 POP PUSH1 0x1F NOT PUSH1 0x3F RETURNDATASIZE ADD AND DUP3 ADD PUSH1 0x40 MSTORE RETURNDATASIZE DUP3 MSTORE RETURNDATASIZE PUSH1 0x0 PUSH1 0x20 DUP5 ADD RETURNDATACOPY PUSH2 0x265F JUMP JUMPDEST PUSH1 0x60 SWAP2 POP JUMPDEST POP PUSH1 0x0 DUP2 MLOAD EQ ISZERO PUSH2 0x26A5 JUMPI PUSH1 0x40 MLOAD PUSH32 0x8C379A000000000000000000000000000000000000000000000000000000000 DUP2 MSTORE PUSH1 0x4 ADD PUSH2 0x269C SWAP1 PUSH2 0x3D6E JUMP JUMPDEST PUSH1 0x40 MLOAD DUP1 SWAP2 SUB SWAP1 REVERT JUMPDEST DUP1 MLOAD DUP2 PUSH1 0x20 ADD REVERT JUMPDEST PUSH4 0x150B7A02 PUSH1 0xE0 SHL PUSH28 0xFFFFFFFFFFFFFFFFFFFFFFFFFFFFFFFFFFFFFFFFFFFFFFFFFFFFFFFF NOT AND DUP2 PUSH28 0xFFFFFFFFFFFFFFFFFFFFFFFFFFFFFFFFFFFFFFFFFFFFFFFFFFFFFFFF NOT AND EQ SWAP2 POP POP PUSH2 0x2702 JUMP JUMPDEST PUSH1 0x1 SWAP1 POP JUMPDEST SWAP5 SWAP4 POP POP POP POP JUMP JUMPDEST PUSH1 0x60 PUSH1 0x0 DUP3 EQ ISZERO PUSH2 0x2752 JUMPI PUSH1 0x40 MLOAD DUP1 PUSH1 0x40 ADD PUSH1 0x40 MSTORE DUP1 PUSH1 0x1 DUP2 MSTORE PUSH1 0x20 ADD PUSH32 0x3000000000000000000000000000000000000000000000000000000000000000 DUP2 MSTORE POP SWAP1 POP PUSH2 0x2866 JUMP JUMPDEST PUSH1 0x0 DUP3 SWAP1 POP PUSH1 0x0 JUMPDEST PUSH1 0x0 DUP3 EQ PUSH2 0x2784 JUMPI DUP1 DUP1 PUSH2 0x276D SWAP1 PUSH2 0x406D JUMP JUMPDEST SWAP2 POP POP PUSH1 0xA DUP3 PUSH2 0x277D SWAP2 SWAP1 PUSH2 0x40E5 JUMP JUMPDEST SWAP2 POP PUSH2 0x275A JUMP JUMPDEST PUSH1 0x0 DUP2 PUSH8 0xFFFFFFFFFFFFFFFF DUP2 GT ISZERO PUSH2 0x27A0 JUMPI PUSH2 0x279F PUSH2 0x2E75 JUMP JUMPDEST JUMPDEST PUSH1 0x40 MLOAD SWAP1 DUP1 DUP3 MSTORE DUP1 PUSH1 0x1F ADD PUSH1 0x1F NOT AND PUSH1 0x20 ADD DUP3 ADD PUSH1 0x40 MSTORE DUP1 ISZERO PUSH2 0x27D2 JUMPI DUP2 PUSH1 0x20 ADD PUSH1 0x1 DUP3 MUL DUP1 CALLDATASIZE DUP4 CALLDATACOPY DUP1 DUP3 ADD SWAP2 POP POP SWAP1 POP JUMPDEST POP SWAP1 POP JUMPDEST PUSH1 0x0 DUP6 EQ PUSH2 0x285F JUMPI PUSH1 0x1 DUP3 PUSH2 0x27EB SWAP2 SWAP1 PUSH2 0x3B4B JUMP JUMPDEST SWAP2 POP PUSH1 0xA DUP6 PUSH2 0x27FA SWAP2 SWAP1 PUSH2 0x4116 JUMP JUMPDEST PUSH1 0x30 PUSH2 0x2806 SWAP2 SWAP1 PUSH2 0x3B7F JUMP JUMPDEST PUSH1 0xF8 SHL DUP2 DUP4 DUP2 MLOAD DUP2 LT PUSH2 0x281C JUMPI PUSH2 0x281B PUSH2 0x4147 JUMP JUMPDEST JUMPDEST PUSH1 0x20 ADD ADD SWAP1 PUSH31 0xFFFFFFFFFFFFFFFFFFFFFFFFFFFFFFFFFFFFFFFFFFFFFFFFFFFFFFFFFFFFFF NOT AND SWAP1 DUP2 PUSH1 0x0 BYTE SWAP1 MSTORE8 POP PUSH1 0xA DUP6 PUSH2 0x2858 SWAP2 SWAP1 PUSH2 0x40E5 JUMP JUMPDEST SWAP5 POP PUSH2 0x27D6 JUMP JUMPDEST DUP1 SWAP4 POP POP POP POP JUMPDEST SWAP2 SWAP1 POP JUMP JUMPDEST POP DUP1 SLOAD PUSH2 0x2877 SWAP1 PUSH2 0x31B6 JUMP JUMPDEST PUSH1 0x0 DUP3 SSTORE DUP1 PUSH1 0x1F LT PUSH2 0x2889 JUMPI POP PUSH2 0x28A8 JUMP JUMPDEST PUSH1 0x1F ADD PUSH1 0x20 SWAP1 DIV SWAP1 PUSH1 0x0 MSTORE PUSH1 0x20 PUSH1 0x0 KECCAK256 SWAP1 DUP2 ADD SWAP1 PUSH2 0x28A7 SWAP2 SWAP1 PUSH2 0x2931 JUMP JUMPDEST JUMPDEST POP JUMP JUMPDEST DUP3 DUP1 SLOAD PUSH2 0x28B7 SWAP1 PUSH2 0x31B6 JUMP JUMPDEST SWAP1 PUSH1 0x0 MSTORE PUSH1 0x20 PUSH1 0x0 KECCAK256 SWAP1 PUSH1 0x1F ADD PUSH1 0x20 SWAP1 DIV DUP2 ADD SWAP3 DUP3 PUSH2 0x28D9 JUMPI PUSH1 0x0 DUP6 SSTORE PUSH2 0x2920 JUMP JUMPDEST DUP3 PUSH1 0x1F LT PUSH2 0x28F2 JUMPI DUP1 MLOAD PUSH1 0xFF NOT AND DUP4 DUP1 ADD OR DUP6 SSTORE PUSH2 0x2920 JUMP JUMPDEST DUP3 DUP1 ADD PUSH1 0x1 ADD DUP6 SSTORE DUP3 ISZERO PUSH2 0x2920 JUMPI SWAP2 DUP3 ADD JUMPDEST DUP3 DUP2 GT ISZERO PUSH2 0x291F JUMPI DUP3 MLOAD DUP3 SSTORE SWAP2 PUSH1 0x20 ADD SWAP2 SWAP1 PUSH1 0x1 ADD SWAP1 PUSH2 0x2904 JUMP JUMPDEST JUMPDEST POP SWAP1 POP PUSH2 0x292D SWAP2 SWAP1 PUSH2 0x2931 JUMP JUMPDEST POP SWAP1 JUMP JUMPDEST JUMPDEST DUP1 DUP3 GT ISZERO PUSH2 0x294A JUMPI PUSH1 0x0 DUP2 PUSH1 0x0 SWAP1 SSTORE POP PUSH1 0x1 ADD PUSH2 0x2932 JUMP JUMPDEST POP SWAP1 JUMP JUMPDEST PUSH1 0x0 PUSH1 0x40 MLOAD SWAP1 POP SWAP1 JUMP JUMPDEST PUSH1 0x0 DUP1 REVERT JUMPDEST PUSH1 0x0 DUP1 REVERT JUMPDEST PUSH1 0x0 PUSH32 0xFFFFFFFF00000000000000000000000000000000000000000000000000000000 DUP3 AND SWAP1 POP SWAP2 SWAP1 POP JUMP JUMPDEST PUSH2 0x2997 DUP2 PUSH2 0x2962 JUMP JUMPDEST DUP2 EQ PUSH2 0x29A2 JUMPI PUSH1 0x0 DUP1 REVERT JUMPDEST POP JUMP JUMPDEST PUSH1 0x0 DUP2 CALLDATALOAD SWAP1 POP PUSH2 0x29B4 DUP2 PUSH2 0x298E JUMP JUMPDEST SWAP3 SWAP2 POP POP JUMP JUMPDEST PUSH1 0x0 PUSH1 0x20 DUP3 DUP5 SUB SLT ISZERO PUSH2 0x29D0 JUMPI PUSH2 0x29CF PUSH2 0x2958 JUMP JUMPDEST JUMPDEST PUSH1 0x0 PUSH2 0x29DE DUP5 DUP3 DUP6 ADD PUSH2 0x29A5 JUMP JUMPDEST SWAP2 POP POP SWAP3 SWAP2 POP POP JUMP JUMPDEST PUSH1 0x0 DUP2 ISZERO ISZERO SWAP1 POP SWAP2 SWAP1 POP JUMP JUMPDEST PUSH2 0x29FC DUP2 PUSH2 0x29E7 JUMP JUMPDEST DUP3 MSTORE POP POP JUMP JUMPDEST PUSH1 0x0 PUSH1 0x20 DUP3 ADD SWAP1 POP PUSH2 0x2A17 PUSH1 0x0 DUP4 ADD DUP5 PUSH2 0x29F3 JUMP JUMPDEST SWAP3 SWAP2 POP POP JUMP JUMPDEST PUSH1 0x0 DUP2 MLOAD SWAP1 POP SWAP2 SWAP1 POP JUMP JUMPDEST PUSH1 0x0 DUP3 DUP3 MSTORE PUSH1 0x20 DUP3 ADD SWAP1 POP SWAP3 SWAP2 POP POP JUMP JUMPDEST PUSH1 0x0 JUMPDEST DUP4 DUP2 LT ISZERO PUSH2 0x2A57 JUMPI DUP1 DUP3 ADD MLOAD DUP2 DUP5 ADD MSTORE PUSH1 0x20 DUP2 ADD SWAP1 POP PUSH2 0x2A3C JUMP JUMPDEST DUP4 DUP2 GT ISZERO PUSH2 0x2A66 JUMPI PUSH1 0x0 DUP5 DUP5 ADD MSTORE JUMPDEST POP POP POP POP JUMP JUMPDEST PUSH1 0x0 PUSH1 0x1F NOT PUSH1 0x1F DUP4 ADD AND SWAP1 POP SWAP2 SWAP1 POP JUMP JUMPDEST PUSH1 0x0 PUSH2 0x2A88 DUP3 PUSH2 0x2A1D JUMP JUMPDEST PUSH2 0x2A92 DUP2 DUP6 PUSH2 0x2A28 JUMP JUMPDEST SWAP4 POP PUSH2 0x2AA2 DUP2 DUP6 PUSH1 0x20 DUP7 ADD PUSH2 0x2A39 JUMP JUMPDEST PUSH2 0x2AAB DUP2 PUSH2 0x2A6C JUMP JUMPDEST DUP5 ADD SWAP2 POP POP SWAP3 SWAP2 POP POP JUMP JUMPDEST PUSH1 0x0 PUSH1 0x20 DUP3 ADD SWAP1 POP DUP2 DUP2 SUB PUSH1 0x0 DUP4 ADD MSTORE PUSH2 0x2AD0 DUP2 DUP5 PUSH2 0x2A7D JUMP JUMPDEST SWAP1 POP SWAP3 SWAP2 POP POP JUMP JUMPDEST PUSH1 0x0 DUP2 SWAP1 POP SWAP2 SWAP1 POP JUMP JUMPDEST PUSH2 0x2AEB DUP2 PUSH2 0x2AD8 JUMP JUMPDEST DUP2 EQ PUSH2 0x2AF6 JUMPI PUSH1 0x0 DUP1 REVERT JUMPDEST POP JUMP JUMPDEST PUSH1 0x0 DUP2 CALLDATALOAD SWAP1 POP PUSH2 0x2B08 DUP2 PUSH2 0x2AE2 JUMP JUMPDEST SWAP3 SWAP2 POP POP JUMP JUMPDEST PUSH1 0x0 PUSH1 0x20 DUP3 DUP5 SUB SLT ISZERO PUSH2 0x2B24 JUMPI PUSH2 0x2B23 PUSH2 0x2958 JUMP JUMPDEST JUMPDEST PUSH1 0x0 PUSH2 0x2B32 DUP5 DUP3 DUP6 ADD PUSH2 0x2AF9 JUMP JUMPDEST SWAP2 POP POP SWAP3 SWAP2 POP POP JUMP JUMPDEST PUSH1 0x0 PUSH20 0xFFFFFFFFFFFFFFFFFFFFFFFFFFFFFFFFFFFFFFFF DUP3 AND SWAP1 POP SWAP2 SWAP1 POP JUMP JUMPDEST PUSH1 0x0 PUSH2 0x2B66 DUP3 PUSH2 0x2B3B JUMP JUMPDEST SWAP1 POP SWAP2 SWAP1 POP JUMP JUMPDEST PUSH2 0x2B76 DUP2 PUSH2 0x2B5B JUMP JUMPDEST DUP3 MSTORE POP POP JUMP JUMPDEST PUSH1 0x0 PUSH1 0x20 DUP3 ADD SWAP1 POP PUSH2 0x2B91 PUSH1 0x0 DUP4 ADD DUP5 PUSH2 0x2B6D JUMP JUMPDEST SWAP3 SWAP2 POP POP JUMP JUMPDEST PUSH2 0x2BA0 DUP2 PUSH2 0x2B5B JUMP JUMPDEST DUP2 EQ PUSH2 0x2BAB JUMPI PUSH1 0x0 DUP1 REVERT JUMPDEST POP JUMP JUMPDEST PUSH1 0x0 DUP2 CALLDATALOAD SWAP1 POP PUSH2 0x2BBD DUP2 PUSH2 0x2B97 JUMP JUMPDEST SWAP3 SWAP2 POP POP JUMP JUMPDEST PUSH1 0x0 DUP1 PUSH1 0x40 DUP4 DUP6 SUB SLT ISZERO PUSH2 0x2BDA JUMPI PUSH2 0x2BD9 PUSH2 0x2958 JUMP JUMPDEST JUMPDEST PUSH1 0x0 PUSH2 0x2BE8 DUP6 DUP3 DUP7 ADD PUSH2 0x2BAE JUMP JUMPDEST SWAP3 POP POP PUSH1 0x20 PUSH2 0x2BF9 DUP6 DUP3 DUP7 ADD PUSH2 0x2AF9 JUMP JUMPDEST SWAP2 POP POP SWAP3 POP SWAP3 SWAP1 POP JUMP JUMPDEST PUSH1 0x0 DUP1 REVERT JUMPDEST PUSH1 0x0 DUP1 REVERT JUMPDEST PUSH1 0x0 DUP1 REVERT JUMPDEST PUSH1 0x0 DUP1 DUP4 PUSH1 0x1F DUP5 ADD SLT PUSH2 0x2C28 JUMPI PUSH2 0x2C27 PUSH2 0x2C03 JUMP JUMPDEST JUMPDEST DUP3 CALLDATALOAD SWAP1 POP PUSH8 0xFFFFFFFFFFFFFFFF DUP2 GT ISZERO PUSH2 0x2C45 JUMPI PUSH2 0x2C44 PUSH2 0x2C08 JUMP JUMPDEST JUMPDEST PUSH1 0x20 DUP4 ADD SWAP2 POP DUP4 PUSH1 0x1 DUP3 MUL DUP4 ADD GT ISZERO PUSH2 0x2C61 JUMPI PUSH2 0x2C60 PUSH2 0x2C0D JUMP JUMPDEST JUMPDEST SWAP3 POP SWAP3 SWAP1 POP JUMP JUMPDEST PUSH1 0x0 DUP1 PUSH1 0x0 DUP1 PUSH1 0x0 PUSH1 0x80 DUP7 DUP9 SUB SLT ISZERO PUSH2 0x2C84 JUMPI PUSH2 0x2C83 PUSH2 0x2958 JUMP JUMPDEST JUMPDEST PUSH1 0x0 PUSH2 0x2C92 DUP9 DUP3 DUP10 ADD PUSH2 0x2BAE JUMP JUMPDEST SWAP6 POP POP PUSH1 0x20 PUSH2 0x2CA3 DUP9 DUP3 DUP10 ADD PUSH2 0x2BAE JUMP JUMPDEST SWAP5 POP POP PUSH1 0x40 PUSH2 0x2CB4 DUP9 DUP3 DUP10 ADD PUSH2 0x2AF9 JUMP JUMPDEST SWAP4 POP POP PUSH1 0x60 DUP7 ADD CALLDATALOAD PUSH8 0xFFFFFFFFFFFFFFFF DUP2 GT ISZERO PUSH2 0x2CD5 JUMPI PUSH2 0x2CD4 PUSH2 0x295D JUMP JUMPDEST JUMPDEST PUSH2 0x2CE1 DUP9 DUP3 DUP10 ADD PUSH2 0x2C12 JUMP JUMPDEST SWAP3 POP SWAP3 POP POP SWAP3 SWAP6 POP SWAP3 SWAP6 SWAP1 SWAP4 POP JUMP JUMPDEST PUSH2 0x2CF9 DUP2 PUSH2 0x2962 JUMP JUMPDEST DUP3 MSTORE POP POP JUMP JUMPDEST PUSH1 0x0 PUSH1 0x20 DUP3 ADD SWAP1 POP PUSH2 0x2D14 PUSH1 0x0 DUP4 ADD DUP5 PUSH2 0x2CF0 JUMP JUMPDEST SWAP3 SWAP2 POP POP JUMP JUMPDEST PUSH1 0x0 DUP1 PUSH1 0x0 PUSH1 0x60 DUP5 DUP7 SUB SLT ISZERO PUSH2 0x2D33 JUMPI PUSH2 0x2D32 PUSH2 0x2958 JUMP JUMPDEST JUMPDEST PUSH1 0x0 PUSH2 0x2D41 DUP7 DUP3 DUP8 ADD PUSH2 0x2BAE JUMP JUMPDEST SWAP4 POP POP PUSH1 0x20 PUSH2 0x2D52 DUP7 DUP3 DUP8 ADD PUSH2 0x2BAE JUMP JUMPDEST SWAP3 POP POP PUSH1 0x40 PUSH2 0x2D63 DUP7 DUP3 DUP8 ADD PUSH2 0x2AF9 JUMP JUMPDEST SWAP2 POP POP SWAP3 POP SWAP3 POP SWAP3 JUMP JUMPDEST PUSH1 0x0 PUSH1 0x20 DUP3 DUP5 SUB SLT ISZERO PUSH2 0x2D83 JUMPI PUSH2 0x2D82 PUSH2 0x2958 JUMP JUMPDEST JUMPDEST PUSH1 0x0 PUSH2 0x2D91 DUP5 DUP3 DUP6 ADD PUSH2 0x2BAE JUMP JUMPDEST SWAP2 POP POP SWAP3 SWAP2 POP POP JUMP JUMPDEST PUSH2 0x2DA3 DUP2 PUSH2 0x2AD8 JUMP JUMPDEST DUP3 MSTORE POP POP JUMP JUMPDEST PUSH1 0x0 PUSH1 0x20 DUP3 ADD SWAP1 POP PUSH2 0x2DBE PUSH1 0x0 DUP4 ADD DUP5 PUSH2 0x2D9A JUMP JUMPDEST SWAP3 SWAP2 POP POP JUMP JUMPDEST PUSH2 0x2DCD DUP2 PUSH2 0x29E7 JUMP JUMPDEST DUP2 EQ PUSH2 0x2DD8 JUMPI PUSH1 0x0 DUP1 REVERT JUMPDEST POP JUMP JUMPDEST PUSH1 0x0 DUP2 CALLDATALOAD SWAP1 POP PUSH2 0x2DEA DUP2 PUSH2 0x2DC4 JUMP JUMPDEST SWAP3 SWAP2 POP POP JUMP JUMPDEST PUSH1 0x0 DUP1 PUSH1 0x40 DUP4 DUP6 SUB SLT ISZERO PUSH2 0x2E07 JUMPI PUSH2 0x2E06 PUSH2 0x2958 JUMP JUMPDEST JUMPDEST PUSH1 0x0 PUSH2 0x2E15 DUP6 DUP3 DUP7 ADD PUSH2 0x2AF9 JUMP JUMPDEST SWAP3 POP POP PUSH1 0x20 PUSH2 0x2E26 DUP6 DUP3 DUP7 ADD PUSH2 0x2DDB JUMP JUMPDEST SWAP2 POP POP SWAP3 POP SWAP3 SWAP1 POP JUMP JUMPDEST PUSH1 0x0 DUP1 PUSH1 0x40 DUP4 DUP6 SUB SLT ISZERO PUSH2 0x2E47 JUMPI PUSH2 0x2E46 PUSH2 0x2958 JUMP JUMPDEST JUMPDEST PUSH1 0x0 PUSH2 0x2E55 DUP6 DUP3 DUP7 ADD PUSH2 0x2BAE JUMP JUMPDEST SWAP3 POP POP PUSH1 0x20 PUSH2 0x2E66 DUP6 DUP3 DUP7 ADD PUSH2 0x2DDB JUMP JUMPDEST SWAP2 POP POP SWAP3 POP SWAP3 SWAP1 POP JUMP JUMPDEST PUSH1 0x0 DUP1 REVERT JUMPDEST PUSH32 0x4E487B7100000000000000000000000000000000000000000000000000000000 PUSH1 0x0 MSTORE PUSH1 0x41 PUSH1 0x4 MSTORE PUSH1 0x24 PUSH1 0x0 REVERT JUMPDEST PUSH2 0x2EAD DUP3 PUSH2 0x2A6C JUMP JUMPDEST DUP2 ADD DUP2 DUP2 LT PUSH8 0xFFFFFFFFFFFFFFFF DUP3 GT OR ISZERO PUSH2 0x2ECC JUMPI PUSH2 0x2ECB PUSH2 0x2E75 JUMP JUMPDEST JUMPDEST DUP1 PUSH1 0x40 MSTORE POP POP POP JUMP JUMPDEST PUSH1 0x0 PUSH2 0x2EDF PUSH2 0x294E JUMP JUMPDEST SWAP1 POP PUSH2 0x2EEB DUP3 DUP3 PUSH2 0x2EA4 JUMP JUMPDEST SWAP2 SWAP1 POP JUMP JUMPDEST PUSH1 0x0 PUSH8 0xFFFFFFFFFFFFFFFF DUP3 GT ISZERO PUSH2 0x2F0B JUMPI PUSH2 0x2F0A PUSH2 0x2E75 JUMP JUMPDEST JUMPDEST PUSH2 0x2F14 DUP3 PUSH2 0x2A6C JUMP JUMPDEST SWAP1 POP PUSH1 0x20 DUP2 ADD SWAP1 POP SWAP2 SWAP1 POP JUMP JUMPDEST DUP3 DUP2 DUP4 CALLDATACOPY PUSH1 0x0 DUP4 DUP4 ADD MSTORE POP POP POP JUMP JUMPDEST PUSH1 0x0 PUSH2 0x2F43 PUSH2 0x2F3E DUP5 PUSH2 0x2EF0 JUMP JUMPDEST PUSH2 0x2ED5 JUMP JUMPDEST SWAP1 POP DUP3 DUP2 MSTORE PUSH1 0x20 DUP2 ADD DUP5 DUP5 DUP5 ADD GT ISZERO PUSH2 0x2F5F JUMPI PUSH2 0x2F5E PUSH2 0x2E70 JUMP JUMPDEST JUMPDEST PUSH2 0x2F6A DUP5 DUP3 DUP6 PUSH2 0x2F21 JUMP JUMPDEST POP SWAP4 SWAP3 POP POP POP JUMP JUMPDEST PUSH1 0x0 DUP3 PUSH1 0x1F DUP4 ADD SLT PUSH2 0x2F87 JUMPI PUSH2 0x2F86 PUSH2 0x2C03 JUMP JUMPDEST JUMPDEST DUP2 CALLDATALOAD PUSH2 0x2F97 DUP5 DUP3 PUSH1 0x20 DUP7 ADD PUSH2 0x2F30 JUMP JUMPDEST SWAP2 POP POP SWAP3 SWAP2 POP POP JUMP JUMPDEST PUSH1 0x0 DUP1 PUSH1 0x0 DUP1 PUSH1 0x80 DUP6 DUP8 SUB SLT ISZERO PUSH2 0x2FBA JUMPI PUSH2 0x2FB9 PUSH2 0x2958 JUMP JUMPDEST JUMPDEST PUSH1 0x0 PUSH2 0x2FC8 DUP8 DUP3 DUP9 ADD PUSH2 0x2BAE JUMP JUMPDEST SWAP5 POP POP PUSH1 0x20 PUSH2 0x2FD9 DUP8 DUP3 DUP9 ADD PUSH2 0x2BAE JUMP JUMPDEST SWAP4 POP POP PUSH1 0x40 PUSH2 0x2FEA DUP8 DUP3 DUP9 ADD PUSH2 0x2AF9 JUMP JUMPDEST SWAP3 POP POP PUSH1 0x60 DUP6 ADD CALLDATALOAD PUSH8 0xFFFFFFFFFFFFFFFF DUP2 GT ISZERO PUSH2 0x300B JUMPI PUSH2 0x300A PUSH2 0x295D JUMP JUMPDEST JUMPDEST PUSH2 0x3017 DUP8 DUP3 DUP9 ADD PUSH2 0x2F72 JUMP JUMPDEST SWAP2 POP POP SWAP3 SWAP6 SWAP2 SWAP5 POP SWAP3 POP JUMP JUMPDEST PUSH1 0x0 PUSH8 0xFFFFFFFFFFFFFFFF DUP3 GT ISZERO PUSH2 0x303E JUMPI PUSH2 0x303D PUSH2 0x2E75 JUMP JUMPDEST JUMPDEST PUSH2 0x3047 DUP3 PUSH2 0x2A6C JUMP JUMPDEST SWAP1 POP PUSH1 0x20 DUP2 ADD SWAP1 POP SWAP2 SWAP1 POP JUMP JUMPDEST PUSH1 0x0 PUSH2 0x3067 PUSH2 0x3062 DUP5 PUSH2 0x3023 JUMP JUMPDEST PUSH2 0x2ED5 JUMP JUMPDEST SWAP1 POP DUP3 DUP2 MSTORE PUSH1 0x20 DUP2 ADD DUP5 DUP5 DUP5 ADD GT ISZERO PUSH2 0x3083 JUMPI PUSH2 0x3082 PUSH2 0x2E70 JUMP JUMPDEST JUMPDEST PUSH2 0x308E DUP5 DUP3 DUP6 PUSH2 0x2F21 JUMP JUMPDEST POP SWAP4 SWAP3 POP POP POP JUMP JUMPDEST PUSH1 0x0 DUP3 PUSH1 0x1F DUP4 ADD SLT PUSH2 0x30AB JUMPI PUSH2 0x30AA PUSH2 0x2C03 JUMP JUMPDEST JUMPDEST DUP2 CALLDATALOAD PUSH2 0x30BB DUP5 DUP3 PUSH1 0x20 DUP7 ADD PUSH2 0x3054 JUMP JUMPDEST SWAP2 POP POP SWAP3 SWAP2 POP POP JUMP JUMPDEST PUSH1 0x0 DUP1 PUSH1 0x0 DUP1 PUSH1 0x80 DUP6 DUP8 SUB SLT ISZERO PUSH2 0x30DE JUMPI PUSH2 0x30DD PUSH2 0x2958 JUMP JUMPDEST JUMPDEST PUSH1 0x0 PUSH2 0x30EC DUP8 DUP3 DUP9 ADD PUSH2 0x2BAE JUMP JUMPDEST SWAP5 POP POP PUSH1 0x20 PUSH2 0x30FD DUP8 DUP3 DUP9 ADD PUSH2 0x2AF9 JUMP JUMPDEST SWAP4 POP POP PUSH1 0x40 DUP6 ADD CALLDATALOAD PUSH8 0xFFFFFFFFFFFFFFFF DUP2 GT ISZERO PUSH2 0x311E JUMPI PUSH2 0x311D PUSH2 0x295D JUMP JUMPDEST JUMPDEST PUSH2 0x312A DUP8 DUP3 DUP9 ADD PUSH2 0x3096 JUMP JUMPDEST SWAP3 POP POP PUSH1 0x60 PUSH2 0x313B DUP8 DUP3 DUP9 ADD PUSH2 0x2DDB JUMP JUMPDEST SWAP2 POP POP SWAP3 SWAP6 SWAP2 SWAP5 POP SWAP3 POP JUMP JUMPDEST PUSH1 0x0 DUP1 PUSH1 0x40 DUP4 DUP6 SUB SLT ISZERO PUSH2 0x315E JUMPI PUSH2 0x315D PUSH2 0x2958 JUMP JUMPDEST JUMPDEST PUSH1 0x0 PUSH2 0x316C DUP6 DUP3 DUP7 ADD PUSH2 0x2BAE JUMP JUMPDEST SWAP3 POP POP PUSH1 0x20 PUSH2 0x317D DUP6 DUP3 DUP7 ADD PUSH2 0x2BAE JUMP JUMPDEST SWAP2 POP POP SWAP3 POP SWAP3 SWAP1 POP JUMP JUMPDEST PUSH32 0x4E487B7100000000000000000000000000000000000000000000000000000000 PUSH1 0x0 MSTORE PUSH1 0x22 PUSH1 0x4 MSTORE PUSH1 0x24 PUSH1 0x0 REVERT JUMPDEST PUSH1 0x0 PUSH1 0x2 DUP3 DIV SWAP1 POP PUSH1 0x1 DUP3 AND DUP1 PUSH2 0x31CE JUMPI PUSH1 0x7F DUP3 AND SWAP2 POP JUMPDEST PUSH1 0x20 DUP3 LT DUP2 EQ ISZERO PUSH2 0x31E2 JUMPI PUSH2 0x31E1 PUSH2 0x3187 JUMP JUMPDEST JUMPDEST POP SWAP2 SWAP1 POP JUMP JUMPDEST PUSH32 0x4552433732313A20617070726F76656420717565727920666F72206E6F6E6578 PUSH1 0x0 DUP3 ADD MSTORE PUSH32 0x697374656E7420746F6B656E0000000000000000000000000000000000000000 PUSH1 0x20 DUP3 ADD MSTORE POP JUMP JUMPDEST PUSH1 0x0 PUSH2 0x3244 PUSH1 0x2C DUP4 PUSH2 0x2A28 JUMP JUMPDEST SWAP2 POP PUSH2 0x324F DUP3 PUSH2 0x31E8 JUMP JUMPDEST PUSH1 0x40 DUP3 ADD SWAP1 POP SWAP2 SWAP1 POP JUMP JUMPDEST PUSH1 0x0 PUSH1 0x20 DUP3 ADD SWAP1 POP DUP2 DUP2 SUB PUSH1 0x0 DUP4 ADD MSTORE PUSH2 0x3273 DUP2 PUSH2 0x3237 JUMP JUMPDEST SWAP1 POP SWAP2 SWAP1 POP JUMP JUMPDEST PUSH32 0x4552433732313A20617070726F76616C20746F2063757272656E74206F776E65 PUSH1 0x0 DUP3 ADD MSTORE PUSH32 0x7200000000000000000000000000000000000000000000000000000000000000 PUSH1 0x20 DUP3 ADD MSTORE POP JUMP JUMPDEST PUSH1 0x0 PUSH2 0x32D6 PUSH1 0x21 DUP4 PUSH2 0x2A28 JUMP JUMPDEST SWAP2 POP PUSH2 0x32E1 DUP3 PUSH2 0x327A JUMP JUMPDEST PUSH1 0x40 DUP3 ADD SWAP1 POP SWAP2 SWAP1 POP JUMP JUMPDEST PUSH1 0x0 PUSH1 0x20 DUP3 ADD SWAP1 POP DUP2 DUP2 SUB PUSH1 0x0 DUP4 ADD MSTORE PUSH2 0x3305 DUP2 PUSH2 0x32C9 JUMP JUMPDEST SWAP1 POP SWAP2 SWAP1 POP JUMP JUMPDEST PUSH32 0x4552433732313A20617070726F76652063616C6C6572206973206E6F74206F77 PUSH1 0x0 DUP3 ADD MSTORE PUSH32 0x6E6572206E6F7220617070726F76656420666F7220616C6C0000000000000000 PUSH1 0x20 DUP3 ADD MSTORE POP JUMP JUMPDEST PUSH1 0x0 PUSH2 0x3368 PUSH1 0x38 DUP4 PUSH2 0x2A28 JUMP JUMPDEST SWAP2 POP PUSH2 0x3373 DUP3 PUSH2 0x330C JUMP JUMPDEST PUSH1 0x40 DUP3 ADD SWAP1 POP SWAP2 SWAP1 POP JUMP JUMPDEST PUSH1 0x0 PUSH1 0x20 DUP3 ADD SWAP1 POP DUP2 DUP2 SUB PUSH1 0x0 DUP4 ADD MSTORE PUSH2 0x3397 DUP2 PUSH2 0x335B JUMP JUMPDEST SWAP1 POP SWAP2 SWAP1 POP JUMP JUMPDEST PUSH32 0x4552433732313A207472616E736665722063616C6C6572206973206E6F74206F PUSH1 0x0 DUP3 ADD MSTORE PUSH32 0x70657261746F7200000000000000000000000000000000000000000000000000 PUSH1 0x20 DUP3 ADD MSTORE POP JUMP JUMPDEST PUSH1 0x0 PUSH2 0x33FA PUSH1 0x27 DUP4 PUSH2 0x2A28 JUMP JUMPDEST SWAP2 POP PUSH2 0x3405 DUP3 PUSH2 0x339E JUMP JUMPDEST PUSH1 0x40 DUP3 ADD SWAP1 POP SWAP2 SWAP1 POP JUMP JUMPDEST PUSH1 0x0 PUSH1 0x20 DUP3 ADD SWAP1 POP DUP2 DUP2 SUB PUSH1 0x0 DUP4 ADD MSTORE PUSH2 0x3429 DUP2 PUSH2 0x33ED JUMP JUMPDEST SWAP1 POP SWAP2 SWAP1 POP JUMP JUMPDEST PUSH32 0x4552433732313A207472616E736665722063616C6C6572206973206E6F74206F PUSH1 0x0 DUP3 ADD MSTORE PUSH32 0x776E6572206E6F7220617070726F766564000000000000000000000000000000 PUSH1 0x20 DUP3 ADD MSTORE POP JUMP JUMPDEST PUSH1 0x0 PUSH2 0x348C PUSH1 0x31 DUP4 PUSH2 0x2A28 JUMP JUMPDEST SWAP2 POP PUSH2 0x3497 DUP3 PUSH2 0x3430 JUMP JUMPDEST PUSH1 0x40 DUP3 ADD SWAP1 POP SWAP2 SWAP1 POP JUMP JUMPDEST PUSH1 0x0 PUSH1 0x20 DUP3 ADD SWAP1 POP DUP2 DUP2 SUB PUSH1 0x0 DUP4 ADD MSTORE PUSH2 0x34BB DUP2 PUSH2 0x347F JUMP JUMPDEST SWAP1 POP SWAP2 SWAP1 POP JUMP JUMPDEST PUSH32 0x4552433732314275726E61626C653A2063616C6C6572206973206E6F74206F77 PUSH1 0x0 DUP3 ADD MSTORE PUSH32 0x6E6572206E6F7220617070726F76656400000000000000000000000000000000 PUSH1 0x20 DUP3 ADD MSTORE POP JUMP JUMPDEST PUSH1 0x0 PUSH2 0x351E PUSH1 0x30 DUP4 PUSH2 0x2A28 JUMP JUMPDEST SWAP2 POP PUSH2 0x3529 DUP3 PUSH2 0x34C2 JUMP JUMPDEST PUSH1 0x40 DUP3 ADD SWAP1 POP SWAP2 SWAP1 POP JUMP JUMPDEST PUSH1 0x0 PUSH1 0x20 DUP3 ADD SWAP1 POP DUP2 DUP2 SUB PUSH1 0x0 DUP4 ADD MSTORE PUSH2 0x354D DUP2 PUSH2 0x3511 JUMP JUMPDEST SWAP1 POP SWAP2 SWAP1 POP JUMP JUMPDEST PUSH32 0x4552433732313A206F776E657220717565727920666F72206E6F6E6578697374 PUSH1 0x0 DUP3 ADD MSTORE PUSH32 0x656E7420746F6B656E0000000000000000000000000000000000000000000000 PUSH1 0x20 DUP3 ADD MSTORE POP JUMP JUMPDEST PUSH1 0x0 PUSH2 0x35B0 PUSH1 0x29 DUP4 PUSH2 0x2A28 JUMP JUMPDEST SWAP2 POP PUSH2 0x35BB DUP3 PUSH2 0x3554 JUMP JUMPDEST PUSH1 0x40 DUP3 ADD SWAP1 POP SWAP2 SWAP1 POP JUMP JUMPDEST PUSH1 0x0 PUSH1 0x20 DUP3 ADD SWAP1 POP DUP2 DUP2 SUB PUSH1 0x0 DUP4 ADD MSTORE PUSH2 0x35DF DUP2 PUSH2 0x35A3 JUMP JUMPDEST SWAP1 POP SWAP2 SWAP1 POP JUMP JUMPDEST PUSH32 0x6E6F742D617574686F72697A6564000000000000000000000000000000000000 PUSH1 0x0 DUP3 ADD MSTORE POP JUMP JUMPDEST PUSH1 0x0 PUSH2 0x361C PUSH1 0xE DUP4 PUSH2 0x2A28 JUMP JUMPDEST SWAP2 POP PUSH2 0x3627 DUP3 PUSH2 0x35E6 JUMP JUMPDEST PUSH1 0x20 DUP3 ADD SWAP1 POP SWAP2 SWAP1 POP JUMP JUMPDEST PUSH1 0x0 PUSH1 0x20 DUP3 ADD SWAP1 POP DUP2 DUP2 SUB PUSH1 0x0 DUP4 ADD MSTORE PUSH2 0x364B DUP2 PUSH2 0x360F JUMP JUMPDEST SWAP1 POP SWAP2 SWAP1 POP JUMP JUMPDEST PUSH32 0x4F776E61626C653A2063616C6C6572206973206E6F7420746865206F776E6572 PUSH1 0x0 DUP3 ADD MSTORE POP JUMP JUMPDEST PUSH1 0x0 PUSH2 0x3688 PUSH1 0x20 DUP4 PUSH2 0x2A28 JUMP JUMPDEST SWAP2 POP PUSH2 0x3693 DUP3 PUSH2 0x3652 JUMP JUMPDEST PUSH1 0x20 DUP3 ADD SWAP1 POP SWAP2 SWAP1 POP JUMP JUMPDEST PUSH1 0x0 PUSH1 0x20 DUP3 ADD SWAP1 POP DUP2 DUP2 SUB PUSH1 0x0 DUP4 ADD MSTORE PUSH2 0x36B7 DUP2 PUSH2 0x367B JUMP JUMPDEST SWAP1 POP SWAP2 SWAP1 POP JUMP JUMPDEST PUSH32 0x4552433732313A2062616C616E636520717565727920666F7220746865207A65 PUSH1 0x0 DUP3 ADD MSTORE PUSH32 0x726F206164647265737300000000000000000000000000000000000000000000 PUSH1 0x20 DUP3 ADD MSTORE POP JUMP JUMPDEST PUSH1 0x0 PUSH2 0x371A PUSH1 0x2A DUP4 PUSH2 0x2A28 JUMP JUMPDEST SWAP2 POP PUSH2 0x3725 DUP3 PUSH2 0x36BE JUMP JUMPDEST PUSH1 0x40 DUP3 ADD SWAP1 POP SWAP2 SWAP1 POP JUMP JUMPDEST PUSH1 0x0 PUSH1 0x20 DUP3 ADD SWAP1 POP DUP2 DUP2 SUB PUSH1 0x0 DUP4 ADD MSTORE PUSH2 0x3749 DUP2 PUSH2 0x370D JUMP JUMPDEST SWAP1 POP SWAP2 SWAP1 POP JUMP JUMPDEST PUSH32 0x496E697469616C697A61626C653A20636F6E747261637420697320616C726561 PUSH1 0x0 DUP3 ADD MSTORE PUSH32 0x647920696E697469616C697A6564000000000000000000000000000000000000 PUSH1 0x20 DUP3 ADD MSTORE POP JUMP JUMPDEST PUSH1 0x0 PUSH2 0x37AC PUSH1 0x2E DUP4 PUSH2 0x2A28 JUMP JUMPDEST SWAP2 POP PUSH2 0x37B7 DUP3 PUSH2 0x3750 JUMP JUMPDEST PUSH1 0x40 DUP3 ADD SWAP1 POP SWAP2 SWAP1 POP JUMP JUMPDEST PUSH1 0x0 PUSH1 0x20 DUP3 ADD SWAP1 POP DUP2 DUP2 SUB PUSH1 0x0 DUP4 ADD MSTORE PUSH2 0x37DB DUP2 PUSH2 0x379F JUMP JUMPDEST SWAP1 POP SWAP2 SWAP1 POP JUMP JUMPDEST PUSH32 0x45524337323155524953746F726167653A2055524920717565727920666F7220 PUSH1 0x0 DUP3 ADD MSTORE PUSH32 0x6E6F6E6578697374656E7420746F6B656E000000000000000000000000000000 PUSH1 0x20 DUP3 ADD MSTORE POP JUMP JUMPDEST PUSH1 0x0 PUSH2 0x383E PUSH1 0x31 DUP4 PUSH2 0x2A28 JUMP JUMPDEST SWAP2 POP PUSH2 0x3849 DUP3 PUSH2 0x37E2 JUMP JUMPDEST PUSH1 0x40 DUP3 ADD SWAP1 POP SWAP2 SWAP1 POP JUMP JUMPDEST PUSH1 0x0 PUSH1 0x20 DUP3 ADD SWAP1 POP DUP2 DUP2 SUB PUSH1 0x0 DUP4 ADD MSTORE PUSH2 0x386D DUP2 PUSH2 0x3831 JUMP JUMPDEST SWAP1 POP SWAP2 SWAP1 POP JUMP JUMPDEST PUSH1 0x0 DUP2 SWAP1 POP SWAP3 SWAP2 POP POP JUMP JUMPDEST PUSH1 0x0 PUSH2 0x388A DUP3 PUSH2 0x2A1D JUMP JUMPDEST PUSH2 0x3894 DUP2 DUP6 PUSH2 0x3874 JUMP JUMPDEST SWAP4 POP PUSH2 0x38A4 DUP2 DUP6 PUSH1 0x20 DUP7 ADD PUSH2 0x2A39 JUMP JUMPDEST DUP1 DUP5 ADD SWAP2 POP POP SWAP3 SWAP2 POP POP JUMP JUMPDEST PUSH1 0x0 PUSH2 0x38BC DUP3 DUP6 PUSH2 0x387F JUMP JUMPDEST SWAP2 POP PUSH2 0x38C8 DUP3 DUP5 PUSH2 0x387F JUMP JUMPDEST SWAP2 POP DUP2 SWAP1 POP SWAP4 SWAP3 POP POP POP JUMP JUMPDEST PUSH32 0x4F776E61626C653A206E6577206F776E657220697320746865207A65726F2061 PUSH1 0x0 DUP3 ADD MSTORE PUSH32 0x6464726573730000000000000000000000000000000000000000000000000000 PUSH1 0x20 DUP3 ADD MSTORE POP JUMP JUMPDEST PUSH1 0x0 PUSH2 0x3930 PUSH1 0x26 DUP4 PUSH2 0x2A28 JUMP JUMPDEST SWAP2 POP PUSH2 0x393B DUP3 PUSH2 0x38D4 JUMP JUMPDEST PUSH1 0x40 DUP3 ADD SWAP1 POP SWAP2 SWAP1 POP JUMP JUMPDEST PUSH1 0x0 PUSH1 0x20 DUP3 ADD SWAP1 POP DUP2 DUP2 SUB PUSH1 0x0 DUP4 ADD MSTORE PUSH2 0x395F DUP2 PUSH2 0x3923 JUMP JUMPDEST SWAP1 POP SWAP2 SWAP1 POP JUMP JUMPDEST PUSH32 0x4552433732313A206F70657261746F7220717565727920666F72206E6F6E6578 PUSH1 0x0 DUP3 ADD MSTORE PUSH32 0x697374656E7420746F6B656E0000000000000000000000000000000000000000 PUSH1 0x20 DUP3 ADD MSTORE POP JUMP JUMPDEST PUSH1 0x0 PUSH2 0x39C2 PUSH1 0x2C DUP4 PUSH2 0x2A28 JUMP JUMPDEST SWAP2 POP PUSH2 0x39CD DUP3 PUSH2 0x3966 JUMP JUMPDEST PUSH1 0x40 DUP3 ADD SWAP1 POP SWAP2 SWAP1 POP JUMP JUMPDEST PUSH1 0x0 PUSH1 0x20 DUP3 ADD SWAP1 POP DUP2 DUP2 SUB PUSH1 0x0 DUP4 ADD MSTORE PUSH2 0x39F1 DUP2 PUSH2 0x39B5 JUMP JUMPDEST SWAP1 POP SWAP2 SWAP1 POP JUMP JUMPDEST PUSH32 0x4552433732313A207472616E736665722066726F6D20696E636F727265637420 PUSH1 0x0 DUP3 ADD MSTORE PUSH32 0x6F776E6572000000000000000000000000000000000000000000000000000000 PUSH1 0x20 DUP3 ADD MSTORE POP JUMP JUMPDEST PUSH1 0x0 PUSH2 0x3A54 PUSH1 0x25 DUP4 PUSH2 0x2A28 JUMP JUMPDEST SWAP2 POP PUSH2 0x3A5F DUP3 PUSH2 0x39F8 JUMP JUMPDEST PUSH1 0x40 DUP3 ADD SWAP1 POP SWAP2 SWAP1 POP JUMP JUMPDEST PUSH1 0x0 PUSH1 0x20 DUP3 ADD SWAP1 POP DUP2 DUP2 SUB PUSH1 0x0 DUP4 ADD MSTORE PUSH2 0x3A83 DUP2 PUSH2 0x3A47 JUMP JUMPDEST SWAP1 POP SWAP2 SWAP1 POP JUMP JUMPDEST PUSH32 0x4552433732313A207472616E7366657220746F20746865207A65726F20616464 PUSH1 0x0 DUP3 ADD MSTORE PUSH32 0x7265737300000000000000000000000000000000000000000000000000000000 PUSH1 0x20 DUP3 ADD MSTORE POP JUMP JUMPDEST PUSH1 0x0 PUSH2 0x3AE6 PUSH1 0x24 DUP4 PUSH2 0x2A28 JUMP JUMPDEST SWAP2 POP PUSH2 0x3AF1 DUP3 PUSH2 0x3A8A JUMP JUMPDEST PUSH1 0x40 DUP3 ADD SWAP1 POP SWAP2 SWAP1 POP JUMP JUMPDEST PUSH1 0x0 PUSH1 0x20 DUP3 ADD SWAP1 POP DUP2 DUP2 SUB PUSH1 0x0 DUP4 ADD MSTORE PUSH2 0x3B15 DUP2 PUSH2 0x3AD9 JUMP JUMPDEST SWAP1 POP SWAP2 SWAP1 POP JUMP JUMPDEST PUSH32 0x4E487B7100000000000000000000000000000000000000000000000000000000 PUSH1 0x0 MSTORE PUSH1 0x11 PUSH1 0x4 MSTORE PUSH1 0x24 PUSH1 0x0 REVERT JUMPDEST PUSH1 0x0 PUSH2 0x3B56 DUP3 PUSH2 0x2AD8 JUMP JUMPDEST SWAP2 POP PUSH2 0x3B61 DUP4 PUSH2 0x2AD8 JUMP JUMPDEST SWAP3 POP DUP3 DUP3 LT ISZERO PUSH2 0x3B74 JUMPI PUSH2 0x3B73 PUSH2 0x3B1C JUMP JUMPDEST JUMPDEST DUP3 DUP3 SUB SWAP1 POP SWAP3 SWAP2 POP POP JUMP JUMPDEST PUSH1 0x0 PUSH2 0x3B8A DUP3 PUSH2 0x2AD8 JUMP JUMPDEST SWAP2 POP PUSH2 0x3B95 DUP4 PUSH2 0x2AD8 JUMP JUMPDEST SWAP3 POP DUP3 PUSH32 0xFFFFFFFFFFFFFFFFFFFFFFFFFFFFFFFFFFFFFFFFFFFFFFFFFFFFFFFFFFFFFFFF SUB DUP3 GT ISZERO PUSH2 0x3BCA JUMPI PUSH2 0x3BC9 PUSH2 0x3B1C JUMP JUMPDEST JUMPDEST DUP3 DUP3 ADD SWAP1 POP SWAP3 SWAP2 POP POP JUMP JUMPDEST PUSH1 0x0 PUSH1 0x40 DUP3 ADD SWAP1 POP PUSH2 0x3BEA PUSH1 0x0 DUP4 ADD DUP6 PUSH2 0x2D9A JUMP JUMPDEST PUSH2 0x3BF7 PUSH1 0x20 DUP4 ADD DUP5 PUSH2 0x29F3 JUMP JUMPDEST SWAP4 SWAP3 POP POP POP JUMP JUMPDEST PUSH32 0x496E697469616C697A61626C653A20636F6E7472616374206973206E6F742069 PUSH1 0x0 DUP3 ADD MSTORE PUSH32 0x6E697469616C697A696E67000000000000000000000000000000000000000000 PUSH1 0x20 DUP3 ADD MSTORE POP JUMP JUMPDEST PUSH1 0x0 PUSH2 0x3C5A PUSH1 0x2B DUP4 PUSH2 0x2A28 JUMP JUMPDEST SWAP2 POP PUSH2 0x3C65 DUP3 PUSH2 0x3BFE JUMP JUMPDEST PUSH1 0x40 DUP3 ADD SWAP1 POP SWAP2 SWAP1 POP JUMP JUMPDEST PUSH1 0x0 PUSH1 0x20 DUP3 ADD SWAP1 POP DUP2 DUP2 SUB PUSH1 0x0 DUP4 ADD MSTORE PUSH2 0x3C89 DUP2 PUSH2 0x3C4D JUMP JUMPDEST SWAP1 POP SWAP2 SWAP1 POP JUMP JUMPDEST PUSH32 0x4552433732313A20617070726F766520746F2063616C6C657200000000000000 PUSH1 0x0 DUP3 ADD MSTORE POP JUMP JUMPDEST PUSH1 0x0 PUSH2 0x3CC6 PUSH1 0x19 DUP4 PUSH2 0x2A28 JUMP JUMPDEST SWAP2 POP PUSH2 0x3CD1 DUP3 PUSH2 0x3C90 JUMP JUMPDEST PUSH1 0x20 DUP3 ADD SWAP1 POP SWAP2 SWAP1 POP JUMP JUMPDEST PUSH1 0x0 PUSH1 0x20 DUP3 ADD SWAP1 POP DUP2 DUP2 SUB PUSH1 0x0 DUP4 ADD MSTORE PUSH2 0x3CF5 DUP2 PUSH2 0x3CB9 JUMP JUMPDEST SWAP1 POP SWAP2 SWAP1 POP JUMP JUMPDEST PUSH32 0x4552433732313A207472616E7366657220746F206E6F6E204552433732315265 PUSH1 0x0 DUP3 ADD MSTORE PUSH32 0x63656976657220696D706C656D656E7465720000000000000000000000000000 PUSH1 0x20 DUP3 ADD MSTORE POP JUMP JUMPDEST PUSH1 0x0 PUSH2 0x3D58 PUSH1 0x32 DUP4 PUSH2 0x2A28 JUMP JUMPDEST SWAP2 POP PUSH2 0x3D63 DUP3 PUSH2 0x3CFC JUMP JUMPDEST PUSH1 0x40 DUP3 ADD SWAP1 POP SWAP2 SWAP1 POP JUMP JUMPDEST PUSH1 0x0 PUSH1 0x20 DUP3 ADD SWAP1 POP DUP2 DUP2 SUB PUSH1 0x0 DUP4 ADD MSTORE PUSH2 0x3D87 DUP2 PUSH2 0x3D4B JUMP JUMPDEST SWAP1 POP SWAP2 SWAP1 POP JUMP JUMPDEST PUSH32 0x4552433732313A206D696E7420746F20746865207A65726F2061646472657373 PUSH1 0x0 DUP3 ADD MSTORE POP JUMP JUMPDEST PUSH1 0x0 PUSH2 0x3DC4 PUSH1 0x20 DUP4 PUSH2 0x2A28 JUMP JUMPDEST SWAP2 POP PUSH2 0x3DCF DUP3 PUSH2 0x3D8E JUMP JUMPDEST PUSH1 0x20 DUP3 ADD SWAP1 POP SWAP2 SWAP1 POP JUMP JUMPDEST PUSH1 0x0 PUSH1 0x20 DUP3 ADD SWAP1 POP DUP2 DUP2 SUB PUSH1 0x0 DUP4 ADD MSTORE PUSH2 0x3DF3 DUP2 PUSH2 0x3DB7 JUMP JUMPDEST SWAP1 POP SWAP2 SWAP1 POP JUMP JUMPDEST PUSH32 0x4552433732313A20746F6B656E20616C7265616479206D696E74656400000000 PUSH1 0x0 DUP3 ADD MSTORE POP JUMP JUMPDEST PUSH1 0x0 PUSH2 0x3E30 PUSH1 0x1C DUP4 PUSH2 0x2A28 JUMP JUMPDEST SWAP2 POP PUSH2 0x3E3B DUP3 PUSH2 0x3DFA JUMP JUMPDEST PUSH1 0x20 DUP3 ADD SWAP1 POP SWAP2 SWAP1 POP JUMP JUMPDEST PUSH1 0x0 PUSH1 0x20 DUP3 ADD SWAP1 POP DUP2 DUP2 SUB PUSH1 0x0 DUP4 ADD MSTORE PUSH2 0x3E5F DUP2 PUSH2 0x3E23 JUMP JUMPDEST SWAP1 POP SWAP2 SWAP1 POP JUMP JUMPDEST PUSH32 0x45524337323155524953746F726167653A2055524920736574206F66206E6F6E PUSH1 0x0 DUP3 ADD MSTORE PUSH32 0x6578697374656E7420746F6B656E000000000000000000000000000000000000 PUSH1 0x20 DUP3 ADD MSTORE POP JUMP JUMPDEST PUSH1 0x0 PUSH2 0x3EC2 PUSH1 0x2E DUP4 PUSH2 0x2A28 JUMP JUMPDEST SWAP2 POP PUSH2 0x3ECD DUP3 PUSH2 0x3E66 JUMP JUMPDEST PUSH1 0x40 DUP3 ADD SWAP1 POP SWAP2 SWAP1 POP JUMP JUMPDEST PUSH1 0x0 PUSH1 0x20 DUP3 ADD SWAP1 POP DUP2 DUP2 SUB PUSH1 0x0 DUP4 ADD MSTORE PUSH2 0x3EF1 DUP2 PUSH2 0x3EB5 JUMP JUMPDEST SWAP1 POP SWAP2 SWAP1 POP JUMP JUMPDEST PUSH32 0x4552433732314D657461646174613A2055524920717565727920666F72206E6F PUSH1 0x0 DUP3 ADD MSTORE PUSH32 0x6E6578697374656E7420746F6B656E0000000000000000000000000000000000 PUSH1 0x20 DUP3 ADD MSTORE POP JUMP JUMPDEST PUSH1 0x0 PUSH2 0x3F54 PUSH1 0x2F DUP4 PUSH2 0x2A28 JUMP JUMPDEST SWAP2 POP PUSH2 0x3F5F DUP3 PUSH2 0x3EF8 JUMP JUMPDEST PUSH1 0x40 DUP3 ADD SWAP1 POP SWAP2 SWAP1 POP JUMP JUMPDEST PUSH1 0x0 PUSH1 0x20 DUP3 ADD SWAP1 POP DUP2 DUP2 SUB PUSH1 0x0 DUP4 ADD MSTORE PUSH2 0x3F83 DUP2 PUSH2 0x3F47 JUMP JUMPDEST SWAP1 POP SWAP2 SWAP1 POP JUMP JUMPDEST PUSH1 0x0 DUP2 MLOAD SWAP1 POP SWAP2 SWAP1 POP JUMP JUMPDEST PUSH1 0x0 DUP3 DUP3 MSTORE PUSH1 0x20 DUP3 ADD SWAP1 POP SWAP3 SWAP2 POP POP JUMP JUMPDEST PUSH1 0x0 PUSH2 0x3FB1 DUP3 PUSH2 0x3F8A JUMP JUMPDEST PUSH2 0x3FBB DUP2 DUP6 PUSH2 0x3F95 JUMP JUMPDEST SWAP4 POP PUSH2 0x3FCB DUP2 DUP6 PUSH1 0x20 DUP7 ADD PUSH2 0x2A39 JUMP JUMPDEST PUSH2 0x3FD4 DUP2 PUSH2 0x2A6C JUMP JUMPDEST DUP5 ADD SWAP2 POP POP SWAP3 SWAP2 POP POP JUMP JUMPDEST PUSH1 0x0 PUSH1 0x80 DUP3 ADD SWAP1 POP PUSH2 0x3FF4 PUSH1 0x0 DUP4 ADD DUP8 PUSH2 0x2B6D JUMP JUMPDEST PUSH2 0x4001 PUSH1 0x20 DUP4 ADD DUP7 PUSH2 0x2B6D JUMP JUMPDEST PUSH2 0x400E PUSH1 0x40 DUP4 ADD DUP6 PUSH2 0x2D9A JUMP JUMPDEST DUP2 DUP2 SUB PUSH1 0x60 DUP4 ADD MSTORE PUSH2 0x4020 DUP2 DUP5 PUSH2 0x3FA6 JUMP JUMPDEST SWAP1 POP SWAP6 SWAP5 POP POP POP POP POP JUMP JUMPDEST PUSH1 0x0 DUP2 MLOAD SWAP1 POP PUSH2 0x403A DUP2 PUSH2 0x298E JUMP JUMPDEST SWAP3 SWAP2 POP POP JUMP JUMPDEST PUSH1 0x0 PUSH1 0x20 DUP3 DUP5 SUB SLT ISZERO PUSH2 0x4056 JUMPI PUSH2 0x4055 PUSH2 0x2958 JUMP JUMPDEST JUMPDEST PUSH1 0x0 PUSH2 0x4064 DUP5 DUP3 DUP6 ADD PUSH2 0x402B JUMP JUMPDEST SWAP2 POP POP SWAP3 SWAP2 POP POP JUMP JUMPDEST PUSH1 0x0 PUSH2 0x4078 DUP3 PUSH2 0x2AD8 JUMP JUMPDEST SWAP2 POP PUSH32 0xFFFFFFFFFFFFFFFFFFFFFFFFFFFFFFFFFFFFFFFFFFFFFFFFFFFFFFFFFFFFFFFF DUP3 EQ ISZERO PUSH2 0x40AB JUMPI PUSH2 0x40AA PUSH2 0x3B1C JUMP JUMPDEST JUMPDEST PUSH1 0x1 DUP3 ADD SWAP1 POP SWAP2 SWAP1 POP JUMP JUMPDEST PUSH32 0x4E487B7100000000000000000000000000000000000000000000000000000000 PUSH1 0x0 MSTORE PUSH1 0x12 PUSH1 0x4 MSTORE PUSH1 0x24 PUSH1 0x0 REVERT JUMPDEST PUSH1 0x0 PUSH2 0x40F0 DUP3 PUSH2 0x2AD8 JUMP JUMPDEST SWAP2 POP PUSH2 0x40FB DUP4 PUSH2 0x2AD8 JUMP JUMPDEST SWAP3 POP DUP3 PUSH2 0x410B JUMPI PUSH2 0x410A PUSH2 0x40B6 JUMP JUMPDEST JUMPDEST DUP3 DUP3 DIV SWAP1 POP SWAP3 SWAP2 POP POP JUMP JUMPDEST PUSH1 0x0 PUSH2 0x4121 DUP3 PUSH2 0x2AD8 JUMP JUMPDEST SWAP2 POP PUSH2 0x412C DUP4 PUSH2 0x2AD8 JUMP JUMPDEST SWAP3 POP DUP3 PUSH2 0x413C JUMPI PUSH2 0x413B PUSH2 0x40B6 JUMP JUMPDEST JUMPDEST DUP3 DUP3 MOD SWAP1 POP SWAP3 SWAP2 POP POP JUMP JUMPDEST PUSH32 0x4E487B7100000000000000000000000000000000000000000000000000000000 PUSH1 0x0 MSTORE PUSH1 0x32 PUSH1 0x4 MSTORE PUSH1 0x24 PUSH1 0x0 REVERT INVALID LOG2 PUSH5 0x6970667358 0x22 SLT KECCAK256 0x4A MSTORE 0xBD 0xB7 0xB2 POP COINBASE 0xF 0xAA SWAP5 0xEF PUSH1 0xF0 CODECOPY CALLDATALOAD 0xC4 PUSH25 0x8FFB1AA499F528B17FB00EB39B278764736F6C634300080C00 CALLER "
		},
		"gasEstimates": {
			"creation": {
				"codeDepositCost": "3362400",
				"executionCost": "3747",
				"totalCost": "3366147"
			},
			"external": {
				"approve(address,uint256)": "infinite",
				"balanceOf(address)": "2968",
				"burn(uint256)": "infinite",
				"deny(address)": "7904",
				"denyOper(address)": "7860",
				"getApproved(uint256)": "5228",
				"initialize()": "infinite",
				"isApprovedForAll(address,address)": "infinite",
				"mintUniqueTokenTo(address,uint256,string,bool)": "infinite",
				"name()": "infinite",
				"onERC721Received(address,address,uint256,bytes)": "infinite",
				"owner()": "2589",
				"ownerOf(uint256)": "3067",
				"rely(address)": "24916",
				"relyOper(address)": "24960",
				"renounceOwnership()": "30485",
				"safeTransferFrom(address,address,uint256)": "infinite",
				"safeTransferFrom(address,address,uint256,bytes)": "infinite",
				"setAdmin(address)": "24966",
				"setApprovalForAll(address,bool)": "infinite",
				"setTokenIdType(uint256,bool)": "infinite",
				"supportsInterface(bytes4)": "797",
				"symbol()": "infinite",
				"tokenURI(uint256)": "infinite",
				"transferFrom(address,address,uint256)": "infinite",
				"transferOwnership(address)": "30833"
			},
			"internal": {
				"_baseURI()": "infinite",
				"_mint(address,uint256,bool)": "infinite",
				"_safeMint(address,uint256,bool)": "infinite",
				"_safeMint(address,uint256,bool,bytes memory)": "infinite",
				"_setTokenIdType(uint256,bool)": "infinite",
				"setBaseURI(string memory)": "infinite"
			}
		},
		"methodIdentifiers": {
			"approve(address,uint256)": "095ea7b3",
			"balanceOf(address)": "70a08231",
			"burn(uint256)": "42966c68",
			"deny(address)": "9c52a7f1",
			"denyOper(address)": "8f47012e",
			"getApproved(uint256)": "081812fc",
			"initialize()": "8129fc1c",
			"isApprovedForAll(address,address)": "e985e9c5",
			"mintUniqueTokenTo(address,uint256,string,bool)": "c327325d",
			"name()": "06fdde03",
			"onERC721Received(address,address,uint256,bytes)": "150b7a02",
			"owner()": "8da5cb5b",
			"ownerOf(uint256)": "6352211e",
			"rely(address)": "65fae35e",
			"relyOper(address)": "bde5a6aa",
			"renounceOwnership()": "715018a6",
			"safeTransferFrom(address,address,uint256)": "42842e0e",
			"safeTransferFrom(address,address,uint256,bytes)": "b88d4fde",
			"setAdmin(address)": "704b6c02",
			"setApprovalForAll(address,bool)": "a22cb465",
			"setTokenIdType(uint256,bool)": "7b4fca3d",
			"supportsInterface(bytes4)": "01ffc9a7",
			"symbol()": "95d89b41",
			"tokenURI(uint256)": "c87b56dd",
			"transferFrom(address,address,uint256)": "23b872dd",
			"transferOwnership(address)": "f2fde38b"
		}
	},
	"abi": [
		{
			"anonymous": false,
			"inputs": [
				{
					"indexed": true,
					"internalType": "address",
					"name": "owner",
					"type": "address"
				},
				{
					"indexed": true,
					"internalType": "address",
					"name": "approved",
					"type": "address"
				},
				{
					"indexed": true,
					"internalType": "uint256",
					"name": "tokenId",
					"type": "uint256"
				}
			],
			"name": "Approval",
			"type": "event"
		},
		{
			"anonymous": false,
			"inputs": [
				{
					"indexed": true,
					"internalType": "address",
					"name": "owner",
					"type": "address"
				},
				{
					"indexed": true,
					"internalType": "address",
					"name": "operator",
					"type": "address"
				},
				{
					"indexed": false,
					"internalType": "bool",
					"name": "approved",
					"type": "bool"
				}
			],
			"name": "ApprovalForAll",
			"type": "event"
		},
		{
			"anonymous": false,
			"inputs": [
				{
					"indexed": true,
					"internalType": "address",
					"name": "previousOwner",
					"type": "address"
				},
				{
					"indexed": true,
					"internalType": "address",
					"name": "newOwner",
					"type": "address"
				}
			],
			"name": "OwnershipTransferred",
			"type": "event"
		},
		{
			"anonymous": false,
			"inputs": [
				{
					"indexed": false,
					"internalType": "uint256",
					"name": "",
					"type": "uint256"
				},
				{
					"indexed": false,
					"internalType": "bool",
					"name": "",
					"type": "bool"
				}
			],
			"name": "SetTokenIdType",
			"type": "event"
		},
		{
			"anonymous": false,
			"inputs": [
				{
					"indexed": true,
					"internalType": "address",
					"name": "from",
					"type": "address"
				},
				{
					"indexed": true,
					"internalType": "address",
					"name": "to",
					"type": "address"
				},
				{
					"indexed": true,
					"internalType": "uint256",
					"name": "tokenId",
					"type": "uint256"
				}
			],
			"name": "Transfer",
			"type": "event"
		},
		{
			"inputs": [
				{
					"internalType": "address",
					"name": "to",
					"type": "address"
				},
				{
					"internalType": "uint256",
					"name": "tokenId",
					"type": "uint256"
				}
			],
			"name": "approve",
			"outputs": [],
			"stateMutability": "nonpayable",
			"type": "function"
		},
		{
			"inputs": [
				{
					"internalType": "address",
					"name": "owner",
					"type": "address"
				}
			],
			"name": "balanceOf",
			"outputs": [
				{
					"internalType": "uint256",
					"name": "",
					"type": "uint256"
				}
			],
			"stateMutability": "view",
			"type": "function"
		},
		{
			"inputs": [
				{
					"internalType": "uint256",
					"name": "tokenId",
					"type": "uint256"
				}
			],
			"name": "burn",
			"outputs": [],
			"stateMutability": "nonpayable",
			"type": "function"
		},
		{
			"inputs": [
				{
					"internalType": "address",
					"name": "guy",
					"type": "address"
				}
			],
			"name": "deny",
			"outputs": [],
			"stateMutability": "nonpayable",
			"type": "function"
		},
		{
			"inputs": [
				{
					"internalType": "address",
					"name": "oper",
					"type": "address"
				}
			],
			"name": "denyOper",
			"outputs": [],
			"stateMutability": "nonpayable",
			"type": "function"
		},
		{
			"inputs": [
				{
					"internalType": "uint256",
					"name": "tokenId",
					"type": "uint256"
				}
			],
			"name": "getApproved",
			"outputs": [
				{
					"internalType": "address",
					"name": "",
					"type": "address"
				}
			],
			"stateMutability": "view",
			"type": "function"
		},
		{
			"inputs": [],
			"name": "initialize",
			"outputs": [],
			"stateMutability": "nonpayable",
			"type": "function"
		},
		{
			"inputs": [
				{
					"internalType": "address",
					"name": "owner",
					"type": "address"
				},
				{
					"internalType": "address",
					"name": "operator",
					"type": "address"
				}
			],
			"name": "isApprovedForAll",
			"outputs": [
				{
					"internalType": "bool",
					"name": "",
					"type": "bool"
				}
			],
			"stateMutability": "view",
			"type": "function"
		},
		{
			"inputs": [
				{
					"internalType": "address",
					"name": "to",
					"type": "address"
				},
				{
					"internalType": "uint256",
					"name": "tokenId",
					"type": "uint256"
				},
				{
					"internalType": "string",
					"name": "uri",
					"type": "string"
				},
				{
					"internalType": "bool",
					"name": "idType",
					"type": "bool"
				}
			],
			"name": "mintUniqueTokenTo",
			"outputs": [],
			"stateMutability": "nonpayable",
			"type": "function"
		},
		{
			"inputs": [],
			"name": "name",
			"outputs": [
				{
					"internalType": "string",
					"name": "",
					"type": "string"
				}
			],
			"stateMutability": "view",
			"type": "function"
		},
		{
			"inputs": [
				{
					"internalType": "address",
					"name": "operator",
					"type": "address"
				},
				{
					"internalType": "address",
					"name": "from",
					"type": "address"
				},
				{
					"internalType": "uint256",
					"name": "tokenId",
					"type": "uint256"
				},
				{
					"internalType": "bytes",
					"name": "data",
					"type": "bytes"
				}
			],
			"name": "onERC721Received",
			"outputs": [
				{
					"internalType": "bytes4",
					"name": "",
					"type": "bytes4"
				}
			],
			"stateMutability": "nonpayable",
			"type": "function"
		},
		{
			"inputs": [],
			"name": "owner",
			"outputs": [
				{
					"internalType": "address",
					"name": "",
					"type": "address"
				}
			],
			"stateMutability": "view",
			"type": "function"
		},
		{
			"inputs": [
				{
					"internalType": "uint256",
					"name": "tokenId",
					"type": "uint256"
				}
			],
			"name": "ownerOf",
			"outputs": [
				{
					"internalType": "address",
					"name": "",
					"type": "address"
				}
			],
			"stateMutability": "view",
			"type": "function"
		},
		{
			"inputs": [
				{
					"internalType": "address",
					"name": "guy",
					"type": "address"
				}
			],
			"name": "rely",
			"outputs": [],
			"stateMutability": "nonpayable",
			"type": "function"
		},
		{
			"inputs": [
				{
					"internalType": "address",
					"name": "oper",
					"type": "address"
				}
			],
			"name": "relyOper",
			"outputs": [],
			"stateMutability": "nonpayable",
			"type": "function"
		},
		{
			"inputs": [],
			"name": "renounceOwnership",
			"outputs": [],
			"stateMutability": "nonpayable",
			"type": "function"
		},
		{
			"inputs": [
				{
					"internalType": "address",
					"name": "from",
					"type": "address"
				},
				{
					"internalType": "address",
					"name": "to",
					"type": "address"
				},
				{
					"internalType": "uint256",
					"name": "tokenId",
					"type": "uint256"
				}
			],
			"name": "safeTransferFrom",
			"outputs": [],
			"stateMutability": "nonpayable",
			"type": "function"
		},
		{
			"inputs": [
				{
					"internalType": "address",
					"name": "from",
					"type": "address"
				},
				{
					"internalType": "address",
					"name": "to",
					"type": "address"
				},
				{
					"internalType": "uint256",
					"name": "tokenId",
					"type": "uint256"
				},
				{
					"internalType": "bytes",
					"name": "_data",
					"type": "bytes"
				}
			],
			"name": "safeTransferFrom",
			"outputs": [],
			"stateMutability": "nonpayable",
			"type": "function"
		},
		{
			"inputs": [
				{
					"internalType": "address",
					"name": "admin_",
					"type": "address"
				}
			],
			"name": "setAdmin",
			"outputs": [],
			"stateMutability": "nonpayable",
			"type": "function"
		},
		{
			"inputs": [
				{
					"internalType": "address",
					"name": "operator",
					"type": "address"
				},
				{
					"internalType": "bool",
					"name": "approved",
					"type": "bool"
				}
			],
			"name": "setApprovalForAll",
			"outputs": [],
			"stateMutability": "nonpayable",
			"type": "function"
		},
		{
			"inputs": [
				{
					"internalType": "uint256",
					"name": "tokenId",
					"type": "uint256"
				},
				{
					"internalType": "bool",
					"name": "idType",
					"type": "bool"
				}
			],
			"name": "setTokenIdType",
			"outputs": [],
			"stateMutability": "nonpayable",
			"type": "function"
		},
		{
			"inputs": [
				{
					"internalType": "bytes4",
					"name": "interfaceId",
					"type": "bytes4"
				}
			],
			"name": "supportsInterface",
			"outputs": [
				{
					"internalType": "bool",
					"name": "",
					"type": "bool"
				}
			],
			"stateMutability": "view",
			"type": "function"
		},
		{
			"inputs": [],
			"name": "symbol",
			"outputs": [
				{
					"internalType": "string",
					"name": "",
					"type": "string"
				}
			],
			"stateMutability": "view",
			"type": "function"
		},
		{
			"inputs": [
				{
					"internalType": "uint256",
					"name": "tokenId",
					"type": "uint256"
				}
			],
			"name": "tokenURI",
			"outputs": [
				{
					"internalType": "string",
					"name": "",
					"type": "string"
				}
			],
			"stateMutability": "view",
			"type": "function"
		},
		{
			"inputs": [
				{
					"internalType": "address",
					"name": "from",
					"type": "address"
				},
				{
					"internalType": "address",
					"name": "to",
					"type": "address"
				},
				{
					"internalType": "uint256",
					"name": "tokenId",
					"type": "uint256"
				}
			],
			"name": "transferFrom",
			"outputs": [],
			"stateMutability": "nonpayable",
			"type": "function"
		},
		{
			"inputs": [
				{
					"internalType": "address",
					"name": "newOwner",
					"type": "address"
				}
			],
			"name": "transferOwnership",
			"outputs": [],
			"stateMutability": "nonpayable",
			"type": "function"
		}
	]
}